{
  "address": "0xA7c59f010700930003b33aB25a7a0679C860f29c",
  "abi": [
    {
      "inputs": [],
      "stateMutability": "nonpayable",
      "type": "constructor"
    },
    {
      "anonymous": false,
      "inputs": [
        {
          "indexed": false,
          "internalType": "uint8",
          "name": "version",
          "type": "uint8"
        }
      ],
      "name": "Initialized",
      "type": "event"
    },
    {
      "anonymous": false,
      "inputs": [
        {
          "indexed": true,
          "internalType": "address",
          "name": "previousOwner",
          "type": "address"
        },
        {
          "indexed": true,
          "internalType": "address",
          "name": "newOwner",
          "type": "address"
        }
      ],
      "name": "OwnershipTransferred",
      "type": "event"
    },
    {
      "anonymous": false,
      "inputs": [
        {
          "indexed": false,
          "internalType": "uint256",
          "name": "oldProposalThreshold",
          "type": "uint256"
        },
        {
          "indexed": false,
          "internalType": "uint256",
          "name": "newProposalThreshold",
          "type": "uint256"
        }
      ],
      "name": "ProposalThresholdSet",
      "type": "event"
    },
    {
      "anonymous": false,
      "inputs": [
        {
          "indexed": false,
          "internalType": "uint256",
          "name": "oldQuorumNumerator",
          "type": "uint256"
        },
        {
          "indexed": false,
          "internalType": "uint256",
          "name": "newQuorumNumerator",
          "type": "uint256"
        }
      ],
      "name": "QuorumNumeratorUpdated",
      "type": "event"
    },
    {
      "anonymous": false,
      "inputs": [
        {
          "indexed": false,
          "internalType": "uint256",
          "name": "oldVotingDelay",
          "type": "uint256"
        },
        {
          "indexed": false,
          "internalType": "uint256",
          "name": "newVotingDelay",
          "type": "uint256"
        }
      ],
      "name": "VotingDelaySet",
      "type": "event"
    },
    {
      "anonymous": false,
      "inputs": [
        {
          "indexed": false,
          "internalType": "uint256",
          "name": "oldVotingPeriod",
          "type": "uint256"
        },
        {
          "indexed": false,
          "internalType": "uint256",
          "name": "newVotingPeriod",
          "type": "uint256"
        }
      ],
      "name": "VotingPeriodSet",
      "type": "event"
    },
    {
      "inputs": [
        {
          "internalType": "address",
          "name": "_token",
          "type": "address"
        }
      ],
      "name": "acceptToSenate",
      "outputs": [],
      "stateMutability": "nonpayable",
      "type": "function"
    },
    {
      "inputs": [
        {
          "internalType": "address",
          "name": "_token",
          "type": "address"
        }
      ],
      "name": "banFromSenate",
      "outputs": [],
      "stateMutability": "nonpayable",
      "type": "function"
    },
    {
      "inputs": [
        {
          "internalType": "address",
          "name": "_newMarshalInTown",
          "type": "address"
        }
      ],
      "name": "changeMarshalDeputy",
      "outputs": [],
      "stateMutability": "nonpayable",
      "type": "function"
    },
    {
      "inputs": [
        {
          "internalType": "address",
          "name": "account",
          "type": "address"
        },
        {
          "internalType": "uint256",
          "name": "blockNumber",
          "type": "uint256"
        }
      ],
      "name": "checkTresholdReached",
      "outputs": [
        {
          "internalType": "bool",
          "name": "",
          "type": "bool"
        }
      ],
      "stateMutability": "view",
      "type": "function"
    },
    {
      "inputs": [],
      "name": "getSettings",
      "outputs": [
        {
          "internalType": "uint256",
          "name": "currProposalThreshold",
          "type": "uint256"
        },
        {
          "internalType": "uint256",
          "name": "currVotingDelay",
          "type": "uint256"
        },
        {
          "internalType": "uint256",
          "name": "currVotingPeriod",
          "type": "uint256"
        }
      ],
      "stateMutability": "view",
      "type": "function"
    },
    {
      "inputs": [],
      "name": "getTotalSuply",
      "outputs": [
        {
          "internalType": "uint256",
          "name": "",
          "type": "uint256"
        }
      ],
      "stateMutability": "view",
      "type": "function"
    },
    {
      "inputs": [
        {
          "internalType": "address",
          "name": "account",
          "type": "address"
        },
        {
          "internalType": "uint256",
          "name": "blockNumber",
          "type": "uint256"
        },
        {
          "internalType": "bytes",
          "name": "params",
          "type": "bytes"
        }
      ],
      "name": "getVotes",
      "outputs": [
        {
          "internalType": "uint256",
          "name": "",
          "type": "uint256"
        }
      ],
      "stateMutability": "view",
      "type": "function"
    },
    {
      "inputs": [
        {
          "internalType": "address[]",
          "name": "_tokens",
          "type": "address[]"
        },
        {
          "internalType": "address",
          "name": "_marshalDeputy",
          "type": "address"
        },
        {
          "internalType": "address",
          "name": "_chancelor",
          "type": "address"
        },
        {
          "internalType": "uint256",
          "name": "_votingDelay",
          "type": "uint256"
        },
        {
          "internalType": "uint256",
          "name": "_votingPeriod",
          "type": "uint256"
        },
        {
          "internalType": "uint256",
          "name": "_tokenTreshold",
          "type": "uint256"
        },
        {
          "internalType": "uint256",
          "name": "_quorumPercentage",
          "type": "uint256"
        },
        {
          "internalType": "uint256",
          "name": "_quarantinePeriod",
          "type": "uint256"
        }
      ],
      "name": "initialize",
      "outputs": [],
      "stateMutability": "nonpayable",
      "type": "function"
    },
    {
      "inputs": [],
      "name": "name",
      "outputs": [
        {
          "internalType": "string",
          "name": "",
          "type": "string"
        }
      ],
      "stateMutability": "view",
      "type": "function"
    },
    {
      "inputs": [],
      "name": "owner",
      "outputs": [
        {
          "internalType": "address",
          "name": "",
          "type": "address"
        }
      ],
      "stateMutability": "view",
      "type": "function"
    },
    {
      "inputs": [],
      "name": "proposalThreshold",
      "outputs": [
        {
          "internalType": "uint256",
          "name": "",
          "type": "uint256"
        }
      ],
      "stateMutability": "view",
      "type": "function"
    },
    {
      "inputs": [
        {
          "internalType": "address",
          "name": "_token",
          "type": "address"
        }
      ],
      "name": "quarantineFromSenate",
      "outputs": [],
      "stateMutability": "nonpayable",
      "type": "function"
    },
    {
      "inputs": [
        {
          "internalType": "address",
          "name": "_token",
          "type": "address"
        }
      ],
      "name": "quarantineUntil",
      "outputs": [
        {
          "internalType": "uint256",
          "name": "",
          "type": "uint256"
        }
      ],
      "stateMutability": "view",
      "type": "function"
    },
    {
      "inputs": [
        {
          "internalType": "uint256",
          "name": "blockNumber",
          "type": "uint256"
        }
      ],
      "name": "quorum",
      "outputs": [
        {
          "internalType": "uint256",
          "name": "",
          "type": "uint256"
        }
      ],
      "stateMutability": "view",
      "type": "function"
    },
    {
      "inputs": [],
      "name": "quorumDenominator",
      "outputs": [
        {
          "internalType": "uint256",
          "name": "",
          "type": "uint256"
        }
      ],
      "stateMutability": "view",
      "type": "function"
    },
    {
      "inputs": [
        {
          "internalType": "uint256",
          "name": "blockNumber",
          "type": "uint256"
        }
      ],
      "name": "quorumNumerator",
      "outputs": [
        {
          "internalType": "uint256",
          "name": "",
          "type": "uint256"
        }
      ],
      "stateMutability": "view",
      "type": "function"
    },
    {
      "inputs": [],
      "name": "quorumNumerator",
      "outputs": [
        {
          "internalType": "uint256",
          "name": "",
          "type": "uint256"
        }
      ],
      "stateMutability": "view",
      "type": "function"
    },
    {
      "inputs": [],
      "name": "renounceOwnership",
      "outputs": [],
      "stateMutability": "nonpayable",
      "type": "function"
    },
    {
      "inputs": [
        {
          "internalType": "address",
          "name": "_tokenAddress",
          "type": "address"
        }
      ],
      "name": "senateMemberStatus",
      "outputs": [
        {
          "internalType": "enum ISenateUpgradeable.membershipStatus",
          "name": "",
          "type": "uint8"
        }
      ],
      "stateMutability": "view",
      "type": "function"
    },
    {
      "inputs": [
        {
          "internalType": "uint256",
          "name": "newProposalThreshold",
          "type": "uint256"
        }
      ],
      "name": "setProposalThreshold",
      "outputs": [],
      "stateMutability": "nonpayable",
      "type": "function"
    },
    {
      "inputs": [
        {
          "internalType": "uint256",
          "name": "newVotingDelay",
          "type": "uint256"
        }
      ],
      "name": "setVotingDelay",
      "outputs": [],
      "stateMutability": "nonpayable",
      "type": "function"
    },
    {
      "inputs": [
        {
          "internalType": "uint256",
          "name": "newVotingPeriod",
          "type": "uint256"
        }
      ],
      "name": "setVotingPeriod",
      "outputs": [],
      "stateMutability": "nonpayable",
      "type": "function"
    },
    {
      "inputs": [
        {
          "internalType": "bytes4",
          "name": "interfaceId",
          "type": "bytes4"
        }
      ],
      "name": "supportsInterface",
      "outputs": [
        {
          "internalType": "bool",
          "name": "",
          "type": "bool"
        }
      ],
      "stateMutability": "view",
      "type": "function"
    },
    {
      "inputs": [
        {
          "internalType": "address",
          "name": "newOwner",
          "type": "address"
        }
      ],
      "name": "transferOwnership",
      "outputs": [],
      "stateMutability": "nonpayable",
      "type": "function"
    },
    {
      "inputs": [
        {
          "internalType": "uint256",
          "name": "newQuorumNumerator",
          "type": "uint256"
        }
      ],
      "name": "updateQuorumNumerator",
      "outputs": [],
      "stateMutability": "nonpayable",
      "type": "function"
    },
    {
      "inputs": [],
      "name": "version",
      "outputs": [
        {
          "internalType": "string",
          "name": "",
          "type": "string"
        }
      ],
      "stateMutability": "view",
      "type": "function"
    },
    {
      "inputs": [],
      "name": "votingDelay",
      "outputs": [
        {
          "internalType": "uint256",
          "name": "",
          "type": "uint256"
        }
      ],
      "stateMutability": "view",
      "type": "function"
    },
    {
      "inputs": [],
      "name": "votingPeriod",
      "outputs": [
        {
          "internalType": "uint256",
          "name": "",
          "type": "uint256"
        }
      ],
      "stateMutability": "view",
      "type": "function"
    }
  ],
  "numDeployments": 108,
  "bytecode": "0x608080604052346100c1576000549060ff8260081c1661006f575060ff80821610610034575b6040516126f690816100c78239f35b60ff90811916176000557f7f26b83ff96e1f2b6a682f133852f6798a09c465da95921460cefb3847402498602060405160ff8152a138610025565b62461bcd60e51b815260206004820152602760248201527f496e697469616c697a61626c653a20636f6e747261637420697320696e697469604482015266616c697a696e6760c81b6064820152608490fd5b600080fdfe608060408181526004918236101561001657600080fd5b600092833560e01c91826301ffc9a7146119f45750816302a251a3146119d457816306f3f9e61461177057816306fdde031461168e5781632f2baecc146116455781633932abb11461162557816354fd4d50146115cc57816360c4247f146115ac57816370b0f66014611578578163715018a61461150d5781637a7621401461139857816385b4bb531461136557816387742bdc14610b885781638da5cb5b14610b605781638ee3e67f14610b2957816397c3d33414610b0d5781639e059b2014610a55578163a7713a7014610a31578163b509272114610865578163b58131b014610845578163beeb4d3a14610777578163cce7699814610728578163ea0217cf146106f4578163ece40cc1146106bd578163f2fde38b146105d4578163f8ce560a1461041c578163f8ef763b146101d1575063ff2d5ddb1461015957600080fd5b346101cd5760203660031901126101cd576101ba610175611ac2565b6001600160a01b039061018e8261010254163314611c31565b168084526101006020526101a58385205415611ed5565b80845260fe602052828420546101be57611e33565b5051f35b6101c781611f69565b50611e33565b5080fd5b91905034610418576060366003190112610418576101ed611ac2565b9260249283356044359167ffffffffffffffff80841161041457366023850112156104145783820135908111610402578551602094610235601f8401601f1916870183611b0f565b8282523689848301011161038a57918591818a899501848301370101528396845b61025e61241a565b518110156103f9576001600160a01b03610299816102838461027e61241a565b612406565b5116600052610100602052604060002054151590565b80156103d6575b6102e7578886826102b38561027e61241a565b51168a51928380926301ffc9a760e01b8252637487d9fb60e11b8a8301525afa9081156103cc57889161039f575b506102f6575b506102f1906123f7565b610256565b6103058261027e9b939b61241a565b51168588518092630748d63560e31b8252818061033b8a898b8401602090939291936001600160a01b0360408201951681520152565b03915afa908115610395578791610362575b5061035b906102f192611f46565b98906102e7565b90508581813d831161038e575b6103798183611b0f565b8101031261038a57516102f161034d565b8680fd5b503d61036f565b88513d89823e3d90fd5b6103bf9150873d89116103c5575b6103b78183611b0f565b810190611ca2565b386102e1565b503d6103ad565b89513d8a823e3d90fd5b50806103e48361027e61241a565b511687526101048652878720544311156102a0565b84898851908152f35b8685604184634e487b7160e01b835252fd5b8480fd5b8280fd5b8383346101cd5760209283600319360112610418578035928094815b61044061241a565b5181101561059757816001600160a01b03610461816102838561027e61241a565b8015610574575b6104b257806104798461027e61241a565b51168751928380926301ffc9a760e01b8252637487d9fb60e11b8a83015260249586915afa90811561056a57869161054d575b506104c2575b50506104bd906123f7565b610438565b83906104d38461027e9b959b61241a565b5116875192838092632394e7a360e21b82528b8a8301525afa908115610543578491610510575b50610508906104bd92611f46565b9690886104b2565b90508281813d831161053c575b6105278183611b0f565b8101031261053857516104bd6104fa565b8380fd5b503d61051d565b86513d86823e3d90fd5b6105649150853d87116103c5576103b78183611b0f565b8a6104ac565b88513d88823e3d90fd5b50806105828461027e61241a565b51168552610104825286852054431115610468565b50926105a48693956121d0565b9183600019048311841515166105c1575090606491519202048152f35b80601187634e487b7160e01b6024945252fd5b905034610418576020366003190112610418576105ef611ac2565b6105f7611b31565b6001600160a01b038091169182156106545750609954928273ffffffffffffffffffffffffffffffffffffffff198516176099555192167f8be0079c531659141344cd1fd0a4f28419497f9722a3daafe3b4186f6b6457e08484a3f35b608490602085519162461bcd60e51b8352820152602660248201527f4f776e61626c653a206e6577206f776e657220697320746865207a65726f206160448201527f64647265737300000000000000000000000000000000000000000000000000006064820152fd5b905034610418576020366003190112610418576106f1906106eb6001600160a01b0361010254163314611c31565b35612131565b51f35b905034610418576020366003190112610418576106f1906107226001600160a01b0361010254163314611c31565b3561208a565b5050346101cd5760203660031901126101cd57610743611ac2565b61074b611b31565b6001600160a01b03610101911673ffffffffffffffffffffffffffffffffffffffff1982541617905551f35b90503461041857602036600319011261041857610792611ac2565b6001600160a01b039182610101541633036107dc5750168083526101006020526107bf8284205415611ed5565b6107cc6101035443611f46565b9083526101046020528183205551f35b608490602085519162461bcd60e51b8352820152602760248201527f53656e6174655570677261646561626c653a3a4f6e6c7920646570757479206160448201527f6c6c6f77656421000000000000000000000000000000000000000000000000006064820152fd5b5050346101cd57816003193601126101cd57602090610135549051908152f35b8383346101cd57816003193601126101cd578192825b61088361241a565b51811015610a27576001600160a01b036108a3816102838461027e61241a565b80156109e4575b6109da57806108bb8361027e61241a565b51168451918280926301ffc9a760e01b8252637487d9fb60e11b87830152602094859160249586915afa9081156109d05788916109b3575b5061090a575b505050610905906123f7565b61087b565b6109198461027e99959961241a565b5116906000194301904382116109a257908391875180948193632394e7a360e21b8352898301525afa918215610998578692610968575b505061095f9061090592611f46565b949086806108f9565b90809250813d8311610991575b61097f8183611b0f565b8101031261041457518161095f610950565b503d610975565b85513d88823e3d90fd5b87601187634e487b7160e01b835252fd5b6109ca9150843d86116103c5576103b78183611b0f565b896108f3565b87513d8a823e3d90fd5b50610905906123f7565b50806109f28361027e61241a565b5116855261010460205283852054600019430190438211610a145710156108aa565b602487601187634e487b7160e01b835252fd5b6020858451908152f35b5050346101cd57816003193601126101cd57602090610a4e612168565b9051908152f35b828434610b0a576020366003190112610b0a576001600160a01b03610a78611ac2565b168082526101049081602052838320544311610aa1578252602090815290829020548251908152f35b608485602086519162461bcd60e51b8352820152602260248201527f53656e6174655570677261646561626c653a3a4e6f742051756172616e74696e60448201527f65640000000000000000000000000000000000000000000000000000000000006064820152fd5b80fd5b5050346101cd57816003193601126101cd576020905160648152f35b5050346101cd57806003193601126101cd57602090610b57610b49611ac2565b610135549060243590612487565b90519015158152f35b5050346101cd57816003193601126101cd576020906001600160a01b03609954169051908152f35b905034610418576101003660031901126104185780359067ffffffffffffffff8083116104145736602384011215610414578282013591818311611352578260051b90855194602094610bdd86850188611b0f565b86528486016024809483010191368311611327578401905b82821061132f575050508135946001600160a01b039081871680970361132b57604435948286168096036113275789549760ff8960081c16159687809861131a575b8015611303575b1561129c57908b929160019a898c60ff19831617865561128b575b50610ca760ff8d5195610c6b87611add565b601187527f52657075626c69634368616e63656c6f720000000000000000000000000000008d8801525460081c16610ca28161264f565b61264f565b60e4356101035573ffffffffffffffffffffffffffffffffffffffff1991610101908382541617905561010291825416179055815190811161127957908893929161010591610cf68354611b89565b601f8111611205575b5089908d601f84116001146111855791908361117a575b5050600019600383901b1c191690851b1790555b89925b61102a575b505050610d5b60ff885460081c16610d498161264f565b610d528161264f565b610ca28161264f565b610d66606435612053565b610d7160843561208a565b610d7c60a435612131565b610d9060ff885460081c16610ca28161264f565b60c4359060648211610fb657610da4612168565b9283151580610fab575b610f79575b6101985490610dc0612182565b5081151580610f42575b15610e8857610dd884612379565b926000198301928311610e7757505091610e307f0553476bf02ef2726e8ce5ced78d63e26e602e4a2257b1f559418e24b46339979492610e188a95611d2b565b509063ffffffff82549181199060201b169116179055565b825191825285820152a1610e4357505051f35b835461ff001916845582519182527f7f26b83ff96e1f2b6a682f133852f6798a09c465da95921460cefb384740249891a151f35b60118b91634e487b7160e01b835252fd5b91905063ffffffff91824311610ef25750509181610eed7f0553476bf02ef2726e8ce5ced78d63e26e602e4a2257b1f559418e24b4633997946001600160e01b03610ed38b96612379565b865192610edf84611add565b431683521688820152612315565b610e30565b906026608492888b519362461bcd60e51b85528401528201527f53616665436173743a2076616c756520646f65736e27742066697420696e203360448201526532206269747360d01b6064820152fd5b506000198201828111610f6757610f5d63ffffffff91611d2b565b5054164314610dca565b5089601184634e487b7160e01b835252fd5b610fa6610f8585612379565b6001600160e01b038a5191610f9983611add565b8c83521688820152612315565b610db3565b506101985415610dae565b60a490604484878a519362461bcd60e51b85528401528201527f4368616e63656c6f72566f74657351756f72756d4672616374696f6e3a20717560448201527f6f72756d4e756d657261746f72206f7665722071756f72756d44656e6f6d696e60648201526330ba37b960e11b6084820152fd5b8051831015611175578161103e8483612406565b5116928951936301ffc9a760e01b8086528c8a878a81637487d9fb60e11b96878d8301525afa928315611169578c978c929461114a575b5083156110db575b5050509061108d6110ba92611cba565b6110b08461109b8386612406565b511660005260fe602052604060002054151590565b156110c0576123f7565b92610d2d565b6110d5846110ce8386612406565b5116611daf565b506123f7565b91939650915087856110ed8887612406565b5116938d51948593849283528a8301525afa938b851561113f578a956110ba9361108d9291611122575b50919250893861107d565b61113991508b3d8d116103c5576103b78183611b0f565b38611117565b8b51903d90823e3d90fd5b611162919450823d84116103c5576103b78183611b0f565b9238611075565b508c51903d90823e3d90fd5b610d32565b015190503880610d16565b9190601f1984168584527ffc62abc8c0fc47c2d92f5aec99bf8b60f375828e14394d89345cae11a9867371935b8d8282106111ef57505090848995949392106111d6575b505050811b019055610d2a565b015160001960f88460031b161c191690553880806111c9565b8385015186558f9a9095019493840193016111b2565b90919280949596508d527ffc62abc8c0fc47c2d92f5aec99bf8b60f375828e14394d89345cae11a9867371601f840160051c8101918b851061126f575b8c979695949392918f91601f0160051c0191905b828210611264575050610cff565b81558c97018e611256565b9091508190611242565b858b604187634e487b7160e01b835252fd5b61ffff191661010117845538610c59565b608486602e898c8f519362461bcd60e51b85528401528201527f496e697469616c697a61626c653a20636f6e747261637420697320616c72656160448201527f647920696e697469616c697a65640000000000000000000000000000000000006064820152fd5b50303b158015610c3e5750600160ff8b1614610c3e565b50600160ff8b1610610c37565b8980fd5b8880fd5b81356001600160a01b038116810361134e578152908601908601610bf5565b8a80fd5b856041602492634e487b7160e01b835252fd5b5050346101cd57816003193601126101cd5760609061013554906101335490610134549181519384526020840152820152f35b90503461041857602080600319360112610538576113b4611ac2565b6001600160a01b03906113cd8261010254163314611c31565b169183516301ffc9a760e01b90818152637487d9fb60e11b80848301528482602481895afa9182156109d05788926114ee575b5081156114a7575b506114139150611cba565b828552610100825283852054611441575060fe90828552528183205415611438575051f35b6101ba90611daf565b60849184519162461bcd60e51b83528201526024808201527f53656e6174655570677261646561626c653a3a42616e6e65642061726520457860448201527f696c6564000000000000000000000000000000000000000000000000000000006064820152fd5b865192835283830152508281602481875afa8015610998576114139187916114d1575b5038611408565b6114e89150843d86116103c5576103b78183611b0f565b386114ca565b611506919250853d87116103c5576103b78183611b0f565b9038611400565b5050346101cd57816003193601126101cd57611527611b31565b816001600160a01b036099549273ffffffffffffffffffffffffffffffffffffffff1984166099555192167f8be0079c531659141344cd1fd0a4f28419497f9722a3daafe3b4186f6b6457e08284a3f35b905034610418576020366003190112610418576106f1906115a66001600160a01b0361010254163314611c31565b35612053565b828434610b0a576020366003190112610b0a5750610a4e602092356121d0565b5050346101cd57816003193601126101cd578051611621916115ed82611add565b600182527f310000000000000000000000000000000000000000000000000000000000000060208301525191829182611a79565b0390f35b5050346101cd57816003193601126101cd57602090610133549051908152f35b8383346101cd5760203660031901126101cd57611668611663611ac2565b611bc3565b9051918382101561167b57602083838152f35b80602185634e487b7160e01b6024945252fd5b5050346101cd57816003193601126101cd5780519082610105908154906116b482611b89565b8086529260019280841690811561174557506001146116e9575b61162186866116df828b0383611b0f565b5191829182611a79565b815294507ffc62abc8c0fc47c2d92f5aec99bf8b60f375828e14394d89345cae11a98673715b82861061172d575050506116df8260206116219582010194386116ce565b8054602087870181019190915290950194810161170f565b90506116219750869350602092506116df94915060ff191682840152151560051b82010194386116ce565b905034610418576020806003193601126105385781359061178f611b31565b6064821161195f5761179f612168565b9283151580611954575b611922575b610198546117ba612182565b50801515806118ea575b15611831576117d284612379565b91600019820191821161181e575091611812869492610e187f0553476bf02ef2726e8ce5ced78d63e26e602e4a2257b1f559418e24b46339979795611d2b565b8351928352820152a151f35b876011602492634e487b7160e01b835252fd5b5063ffffffff908143116118995750917f0553476bf02ef2726e8ce5ced78d63e26e602e4a2257b1f559418e24b4633997939161189486946001600160e01b0361187a85612379565b87519261188684611add565b431683521683820152612315565b611812565b6084908387519162461bcd60e51b8352820152602660248201527f53616665436173743a2076616c756520646f65736e27742066697420696e203360448201526532206269747360d01b6064820152fd5b50600019810181811161190f5761190563ffffffff91611d2b565b50541643146117c4565b602488601185634e487b7160e01b835252fd5b61194f61192e85612379565b6001600160e01b0387519161194283611add565b8983521684820152612315565b6117ae565b5061019854156117a9565b905060a492519162461bcd60e51b8352820152604460248201527f4368616e63656c6f72566f74657351756f72756d4672616374696f6e3a20717560448201527f6f72756d4e756d657261746f72206f7665722071756f72756d44656e6f6d696e60648201526330ba37b960e11b6084820152fd5b5050346101cd57816003193601126101cd57602090610134549051908152f35b84913461041857602036600319011261041857357fffffffff00000000000000000000000000000000000000000000000000000000811680910361041857602092507f915e3f4b000000000000000000000000000000000000000000000000000000008114908115611a68575b5015158152f35b6301ffc9a760e01b91501483611a61565b6020808252825181830181905290939260005b828110611aae57505060409293506000838284010152601f8019910116010190565b818101860151848201604001528501611a8c565b600435906001600160a01b0382168203611ad857565b600080fd5b6040810190811067ffffffffffffffff821117611af957604052565b634e487b7160e01b600052604160045260246000fd5b90601f8019910116810190811067ffffffffffffffff821117611af957604052565b6001600160a01b03609954163303611b4557565b606460405162461bcd60e51b815260206004820152602060248201527f4f776e61626c653a2063616c6c6572206973206e6f7420746865206f776e65726044820152fd5b90600182811c92168015611bb9575b6020831014611ba357565b634e487b7160e01b600052602260045260246000fd5b91607f1691611b98565b6001600160a01b0316600081815261010460205260409020544311611be85750600290565b611c0081600052610100602052604060002054151590565b15611c0b5750600390565b611c229060005260fe602052604060002054151590565b15611c2c57600190565b600090565b15611c3857565b608460405162461bcd60e51b815260206004820152602a60248201527f53656e6174655570677261646561626c653a3a4f6e6c79204368616e63656c6f60448201527f7220616c6c6f77656421000000000000000000000000000000000000000000006064820152fd5b90816020910312611ad857518015158103611ad85790565b15611cc157565b608460405162461bcd60e51b815260206004820152602a60248201527f53656e6174655570677261646561626c653a3a496e76616c696420696d706c6560448201527f6d656e746174696f6e21000000000000000000000000000000000000000000006064820152fd5b6101988054821015611d62576000527f3f539f465397ab387efa93a617e37005205c037386b5b474fcfac82f47f77f0d0190600090565b634e487b7160e01b600052603260045260246000fd5b60fd54811015611d625760fd6000527f9346ac6dd7de6b96975fec380d4d994c4c12e6a8897544f22915316cc6cca2800190600090565b600081815260fe6020526040812054611e2e5760fd5468010000000000000000811015611e1a579082611e06611ded8460016040960160fd55611d78565b819391549060031b600019811b9283911b169119161790565b905560fd5492815260fe6020522055600190565b602482634e487b7160e01b81526041600452fd5b905090565b600081815261010080602052604082205415600014611ecf5760ff5468010000000000000000811015611ebb57600181018060ff55811015611ea7577fe08ec2af2cfc251225e1968fd6ca21e4044f129bffa95bac3503be8bdb30a3670183905560ff549282526020526040902055600190565b602483634e487b7160e01b81526032600452fd5b602483634e487b7160e01b81526041600452fd5b50905090565b15611edc57565b608460405162461bcd60e51b815260206004820152602160248201527f53656e6174655570677261646561626c653a3a416c72656164792042616e6e6560448201527f64000000000000000000000000000000000000000000000000000000000000006064820152fd5b91908201809211611f5357565b634e487b7160e01b600052601160045260246000fd5b600081815260fe6020526040812054909190801561204e576000199080820181811161203a5760fd549083820191821161202657808203611ff2575b50505060fd548015611fde57810190611fbd82611d78565b909182549160031b1b1916905560fd55815260fe6020526040812055600190565b602484634e487b7160e01b81526031600452fd5b612010612001611ded93611d78565b90549060031b1c928392611d78565b9055845260fe6020526040842055388080611fa5565b602486634e487b7160e01b81526011600452fd5b602485634e487b7160e01b81526011600452fd5b505090565b6101337fc565b045403dc03c2eea82b81a0465edad9e2e7fc4d97e11421c209da93d7a93604082548151908152846020820152a155565b80156120c7576101347f7e3f7f0708a84de9203036abaa450dccc85ad5ff52f78c170f3edb55cf5e8828604082548151908152846020820152a155565b608460405162461bcd60e51b815260206004820152602860248201527f4368616e63656c6f7253657474696e67733a20766f74696e6720706572696f6460448201527f20746f6f206c6f770000000000000000000000000000000000000000000000006064820152fd5b6101357fccb45da8d5717e6c4544694297c4ba5cf151d455c9bb0ed4fc7a38411bc05461604082548151908152846020820152a155565b61019854612177576101975490565b61217f612182565b90565b6101985460008161219557506000919050565b60001982019182116121bc57506121b36001600160e01b0391611d2b565b505460201c1690565b80634e487b7160e01b602492526011600452fd5b61019854801561230c5760001990808201818111611f53576121f190611d2b565b50906020846040519361220385611add565b5463ffffffff9485821691828252841c938491015211156123045750438410156122c05792906000915b84831061226757505050600090821560001461224c5750600092915050565b82019182116121bc57506121b36001600160e01b0391611d2b565b90919360019061227d818718831c828816611f46565b91838561228985611d2b565b505416111561229d575050935b919061222d565b90955081018091111561229657634e487b7160e01b600052601160045260246000fd5b606460405162461bcd60e51b815260206004820152602060248201527f436865636b706f696e74733a20626c6f636b206e6f7420796574206d696e65646044820152fd5b935050505090565b50506101975490565b610198805468010000000000000000811015611af95761233a91600182019055611d2b565b61236357815160209283015190921b63ffffffff191663ffffffff92909216919091179055565b565b634e487b7160e01b600052600060045260246000fd5b6001600160e01b039081811161238d571690565b608460405162461bcd60e51b815260206004820152602760248201527f53616665436173743a2076616c756520646f65736e27742066697420696e203260448201527f32342062697473000000000000000000000000000000000000000000000000006064820152fd5b6000198114611f535760010190565b8051821015611d625760209160051b010190565b6040519060fd54808352826020918282019060fd6000527f9346ac6dd7de6b96975fec380d4d994c4c12e6a8897544f22915316cc6cca280936000905b82821061246d5750505061236192500383611b0f565b855484526001958601958895509381019390910190612457565b919091600090815b61249761241a565b51811015612645576001600160a01b036124b7816102838461027e61241a565b801561261e575b61261457806124cf8361027e61241a565b5116906040918251916301ffc9a760e01b835282600492637487d9fb60e11b8483015281602460209687935afa90811561260957908a9392916000916125ec575b50612529575b5050505050612524906123f7565b61248f565b918392918761257595936125428961027e9c9a9c61241a565b511691875196879485938493630748d63560e31b85528401602090939291936001600160a01b0360408201951681520152565b03915afa9283156125e257506000926125b1575b505061259491611f46565b91838310156125a7573880868180612516565b5050505050600190565b81819392933d83116125db575b6125c88183611b0f565b81010312610b0a57505161259438612589565b503d6125be565b513d6000823e3d90fd5b6126039150853d87116103c5576103b78183611b0f565b38612510565b85513d6000823e3d90fd5b50612524906123f7565b508061262c8361027e61241a565b51166000526101046020526040600020544311156124be565b5050505050600090565b1561265657565b608460405162461bcd60e51b815260206004820152602b60248201527f496e697469616c697a61626c653a20636f6e7472616374206973206e6f74206960448201527f6e697469616c697a696e670000000000000000000000000000000000000000006064820152fdfea26469706673582212205491b226487cc2b981629700cc9bde245dd19a449f8847394e49b022f2dcb58764736f6c63430008100033"
}