{
  "address": "0xfaAddC93baf78e89DCf37bA67943E1bE8F37Bb8c",
  "abi": [
    {
      "inputs": [],
      "stateMutability": "nonpayable",
      "type": "constructor"
    },
    {
      "inputs": [],
      "name": "Empty",
      "type": "error"
    },
    {
      "anonymous": false,
      "inputs": [
        {
          "indexed": false,
          "internalType": "uint8",
          "name": "version",
          "type": "uint8"
        }
      ],
      "name": "Initialized",
      "type": "event"
    },
    {
      "anonymous": false,
      "inputs": [
        {
          "indexed": true,
          "internalType": "address",
          "name": "previousOwner",
          "type": "address"
        },
        {
          "indexed": true,
          "internalType": "address",
          "name": "newOwner",
          "type": "address"
        }
      ],
      "name": "OwnershipTransferred",
      "type": "event"
    },
    {
      "anonymous": false,
      "inputs": [
        {
          "indexed": false,
          "internalType": "uint256",
          "name": "proposalId",
          "type": "uint256"
        }
      ],
      "name": "ProposalCanceled",
      "type": "event"
    },
    {
      "anonymous": false,
      "inputs": [
        {
          "indexed": false,
          "internalType": "uint256",
          "name": "proposalId",
          "type": "uint256"
        },
        {
          "indexed": false,
          "internalType": "address",
          "name": "proposer",
          "type": "address"
        },
        {
          "indexed": false,
          "internalType": "address[]",
          "name": "targets",
          "type": "address[]"
        },
        {
          "indexed": false,
          "internalType": "uint256[]",
          "name": "values",
          "type": "uint256[]"
        },
        {
          "indexed": false,
          "internalType": "string[]",
          "name": "signatures",
          "type": "string[]"
        },
        {
          "indexed": false,
          "internalType": "bytes[]",
          "name": "calldatas",
          "type": "bytes[]"
        },
        {
          "indexed": false,
          "internalType": "uint256",
          "name": "startBlock",
          "type": "uint256"
        },
        {
          "indexed": false,
          "internalType": "uint256",
          "name": "endBlock",
          "type": "uint256"
        },
        {
          "indexed": false,
          "internalType": "string",
          "name": "description",
          "type": "string"
        }
      ],
      "name": "ProposalCreated",
      "type": "event"
    },
    {
      "anonymous": false,
      "inputs": [
        {
          "indexed": false,
          "internalType": "uint256",
          "name": "proposalId",
          "type": "uint256"
        }
      ],
      "name": "ProposalExecuted",
      "type": "event"
    },
    {
      "anonymous": false,
      "inputs": [
        {
          "indexed": false,
          "internalType": "uint256",
          "name": "proposalId",
          "type": "uint256"
        },
        {
          "indexed": false,
          "internalType": "uint256",
          "name": "eta",
          "type": "uint256"
        }
      ],
      "name": "ProposalQueued",
      "type": "event"
    },
    {
      "anonymous": false,
      "inputs": [
        {
          "indexed": false,
          "internalType": "address",
          "name": "oldSenate",
          "type": "address"
        },
        {
          "indexed": false,
          "internalType": "address",
          "name": "newSenate",
          "type": "address"
        }
      ],
      "name": "SenateChange",
      "type": "event"
    },
    {
      "anonymous": false,
      "inputs": [
        {
          "indexed": false,
          "internalType": "address",
          "name": "oldTimelock",
          "type": "address"
        },
        {
          "indexed": false,
          "internalType": "address",
          "name": "newTimelock",
          "type": "address"
        }
      ],
      "name": "TimelockChange",
      "type": "event"
    },
    {
      "anonymous": false,
      "inputs": [
        {
          "indexed": true,
          "internalType": "address",
          "name": "voter",
          "type": "address"
        },
        {
          "indexed": false,
          "internalType": "uint256",
          "name": "proposalId",
          "type": "uint256"
        },
        {
          "indexed": false,
          "internalType": "uint8",
          "name": "support",
          "type": "uint8"
        },
        {
          "indexed": false,
          "internalType": "uint256",
          "name": "weight",
          "type": "uint256"
        },
        {
          "indexed": false,
          "internalType": "string",
          "name": "reason",
          "type": "string"
        }
      ],
      "name": "VoteCast",
      "type": "event"
    },
    {
      "anonymous": false,
      "inputs": [
        {
          "indexed": true,
          "internalType": "address",
          "name": "voter",
          "type": "address"
        },
        {
          "indexed": false,
          "internalType": "uint256",
          "name": "proposalId",
          "type": "uint256"
        },
        {
          "indexed": false,
          "internalType": "uint8",
          "name": "support",
          "type": "uint8"
        },
        {
          "indexed": false,
          "internalType": "uint256",
          "name": "weight",
          "type": "uint256"
        },
        {
          "indexed": false,
          "internalType": "string",
          "name": "reason",
          "type": "string"
        },
        {
          "indexed": false,
          "internalType": "bytes",
          "name": "params",
          "type": "bytes"
        }
      ],
      "name": "VoteCastWithParams",
      "type": "event"
    },
    {
      "inputs": [],
      "name": "BALLOT_TYPEHASH",
      "outputs": [
        {
          "internalType": "bytes32",
          "name": "",
          "type": "bytes32"
        }
      ],
      "stateMutability": "view",
      "type": "function"
    },
    {
      "inputs": [],
      "name": "COUNTING_MODE",
      "outputs": [
        {
          "internalType": "string",
          "name": "",
          "type": "string"
        }
      ],
      "stateMutability": "pure",
      "type": "function"
    },
    {
      "inputs": [],
      "name": "EXTENDED_BALLOT_TYPEHASH",
      "outputs": [
        {
          "internalType": "bytes32",
          "name": "",
          "type": "bytes32"
        }
      ],
      "stateMutability": "view",
      "type": "function"
    },
    {
      "inputs": [
        {
          "internalType": "uint256",
          "name": "proposalId",
          "type": "uint256"
        }
      ],
      "name": "cancel",
      "outputs": [],
      "stateMutability": "nonpayable",
      "type": "function"
    },
    {
      "inputs": [
        {
          "internalType": "uint256",
          "name": "proposalId",
          "type": "uint256"
        },
        {
          "internalType": "uint8",
          "name": "support",
          "type": "uint8"
        }
      ],
      "name": "castVote",
      "outputs": [
        {
          "internalType": "uint256",
          "name": "",
          "type": "uint256"
        }
      ],
      "stateMutability": "nonpayable",
      "type": "function"
    },
    {
      "inputs": [
        {
          "internalType": "uint256",
          "name": "proposalId",
          "type": "uint256"
        },
        {
          "internalType": "uint8",
          "name": "support",
          "type": "uint8"
        },
        {
          "internalType": "uint8",
          "name": "v",
          "type": "uint8"
        },
        {
          "internalType": "bytes32",
          "name": "r",
          "type": "bytes32"
        },
        {
          "internalType": "bytes32",
          "name": "s",
          "type": "bytes32"
        }
      ],
      "name": "castVoteBySig",
      "outputs": [
        {
          "internalType": "uint256",
          "name": "",
          "type": "uint256"
        }
      ],
      "stateMutability": "nonpayable",
      "type": "function"
    },
    {
      "inputs": [
        {
          "internalType": "uint256",
          "name": "proposalId",
          "type": "uint256"
        },
        {
          "internalType": "uint8",
          "name": "support",
          "type": "uint8"
        },
        {
          "internalType": "string",
          "name": "reason",
          "type": "string"
        }
      ],
      "name": "castVoteWithReason",
      "outputs": [
        {
          "internalType": "uint256",
          "name": "",
          "type": "uint256"
        }
      ],
      "stateMutability": "nonpayable",
      "type": "function"
    },
    {
      "inputs": [
        {
          "internalType": "uint256",
          "name": "proposalId",
          "type": "uint256"
        },
        {
          "internalType": "uint8",
          "name": "support",
          "type": "uint8"
        },
        {
          "internalType": "string",
          "name": "reason",
          "type": "string"
        },
        {
          "internalType": "bytes",
          "name": "params",
          "type": "bytes"
        }
      ],
      "name": "castVoteWithReasonAndParams",
      "outputs": [
        {
          "internalType": "uint256",
          "name": "",
          "type": "uint256"
        }
      ],
      "stateMutability": "nonpayable",
      "type": "function"
    },
    {
      "inputs": [
        {
          "internalType": "uint256",
          "name": "proposalId",
          "type": "uint256"
        },
        {
          "internalType": "uint8",
          "name": "support",
          "type": "uint8"
        },
        {
          "internalType": "string",
          "name": "reason",
          "type": "string"
        },
        {
          "internalType": "bytes",
          "name": "params",
          "type": "bytes"
        },
        {
          "internalType": "uint8",
          "name": "v",
          "type": "uint8"
        },
        {
          "internalType": "bytes32",
          "name": "r",
          "type": "bytes32"
        },
        {
          "internalType": "bytes32",
          "name": "s",
          "type": "bytes32"
        }
      ],
      "name": "castVoteWithReasonAndParamsBySig",
      "outputs": [
        {
          "internalType": "uint256",
          "name": "",
          "type": "uint256"
        }
      ],
      "stateMutability": "nonpayable",
      "type": "function"
    },
    {
      "inputs": [
        {
          "internalType": "address[]",
          "name": "targets",
          "type": "address[]"
        },
        {
          "internalType": "uint256[]",
          "name": "values",
          "type": "uint256[]"
        },
        {
          "internalType": "bytes[]",
          "name": "calldatas",
          "type": "bytes[]"
        },
        {
          "internalType": "bytes32",
          "name": "descriptionHash",
          "type": "bytes32"
        }
      ],
      "name": "execute",
      "outputs": [
        {
          "internalType": "uint256",
          "name": "",
          "type": "uint256"
        }
      ],
      "stateMutability": "payable",
      "type": "function"
    },
    {
      "inputs": [
        {
          "internalType": "uint256",
          "name": "proposalId",
          "type": "uint256"
        }
      ],
      "name": "execute",
      "outputs": [],
      "stateMutability": "payable",
      "type": "function"
    },
    {
      "inputs": [
        {
          "internalType": "uint256",
          "name": "proposalId",
          "type": "uint256"
        }
      ],
      "name": "getActions",
      "outputs": [
        {
          "internalType": "address[]",
          "name": "targets",
          "type": "address[]"
        },
        {
          "internalType": "uint256[]",
          "name": "values",
          "type": "uint256[]"
        },
        {
          "internalType": "string[]",
          "name": "signatures",
          "type": "string[]"
        },
        {
          "internalType": "bytes[]",
          "name": "calldatas",
          "type": "bytes[]"
        }
      ],
      "stateMutability": "view",
      "type": "function"
    },
    {
      "inputs": [
        {
          "internalType": "uint256",
          "name": "proposalId",
          "type": "uint256"
        },
        {
          "internalType": "address",
          "name": "voter",
          "type": "address"
        }
      ],
      "name": "getReceipt",
      "outputs": [
        {
          "components": [
            {
              "internalType": "bool",
              "name": "hasVoted",
              "type": "bool"
            },
            {
              "internalType": "uint8",
              "name": "support",
              "type": "uint8"
            },
            {
              "internalType": "uint96",
              "name": "votes",
              "type": "uint96"
            }
          ],
          "internalType": "struct IChancelorCompatibilityBravoUpgradeable.Receipt",
          "name": "",
          "type": "tuple"
        }
      ],
      "stateMutability": "view",
      "type": "function"
    },
    {
      "inputs": [],
      "name": "getSettings",
      "outputs": [
        {
          "internalType": "uint256",
          "name": "currProposalThreshold",
          "type": "uint256"
        },
        {
          "internalType": "uint256",
          "name": "currVotingDelay",
          "type": "uint256"
        },
        {
          "internalType": "uint256",
          "name": "currVotingPeriod",
          "type": "uint256"
        }
      ],
      "stateMutability": "view",
      "type": "function"
    },
    {
      "inputs": [
        {
          "internalType": "address",
          "name": "account",
          "type": "address"
        },
        {
          "internalType": "uint256",
          "name": "blockNumber",
          "type": "uint256"
        }
      ],
      "name": "getVotes",
      "outputs": [
        {
          "internalType": "uint256",
          "name": "",
          "type": "uint256"
        }
      ],
      "stateMutability": "view",
      "type": "function"
    },
    {
      "inputs": [
        {
          "internalType": "address",
          "name": "account",
          "type": "address"
        },
        {
          "internalType": "uint256",
          "name": "blockNumber",
          "type": "uint256"
        },
        {
          "internalType": "bytes",
          "name": "params",
          "type": "bytes"
        }
      ],
      "name": "getVotesWithParams",
      "outputs": [
        {
          "internalType": "uint256",
          "name": "",
          "type": "uint256"
        }
      ],
      "stateMutability": "view",
      "type": "function"
    },
    {
      "inputs": [
        {
          "internalType": "uint256",
          "name": "proposalId",
          "type": "uint256"
        },
        {
          "internalType": "address",
          "name": "account",
          "type": "address"
        }
      ],
      "name": "hasVoted",
      "outputs": [
        {
          "internalType": "bool",
          "name": "",
          "type": "bool"
        }
      ],
      "stateMutability": "view",
      "type": "function"
    },
    {
      "inputs": [
        {
          "internalType": "address[]",
          "name": "targets",
          "type": "address[]"
        },
        {
          "internalType": "uint256[]",
          "name": "values",
          "type": "uint256[]"
        },
        {
          "internalType": "bytes[]",
          "name": "calldatas",
          "type": "bytes[]"
        },
        {
          "internalType": "bytes32",
          "name": "descriptionHash",
          "type": "bytes32"
        }
      ],
      "name": "hashProposal",
      "outputs": [
        {
          "internalType": "uint256",
          "name": "",
          "type": "uint256"
        }
      ],
      "stateMutability": "pure",
      "type": "function"
    },
    {
      "inputs": [
        {
          "internalType": "contract TimelockControllerUpgradeable",
          "name": "_timelock",
          "type": "address"
        },
        {
          "internalType": "contract SenateUpgradeable",
          "name": "_senate",
          "type": "address"
        }
      ],
      "name": "initialize",
      "outputs": [],
      "stateMutability": "nonpayable",
      "type": "function"
    },
    {
      "inputs": [],
      "name": "name",
      "outputs": [
        {
          "internalType": "string",
          "name": "",
          "type": "string"
        }
      ],
      "stateMutability": "view",
      "type": "function"
    },
    {
      "inputs": [
        {
          "internalType": "address",
          "name": "",
          "type": "address"
        },
        {
          "internalType": "address",
          "name": "",
          "type": "address"
        },
        {
          "internalType": "uint256[]",
          "name": "",
          "type": "uint256[]"
        },
        {
          "internalType": "uint256[]",
          "name": "",
          "type": "uint256[]"
        },
        {
          "internalType": "bytes",
          "name": "",
          "type": "bytes"
        }
      ],
      "name": "onERC1155BatchReceived",
      "outputs": [
        {
          "internalType": "bytes4",
          "name": "",
          "type": "bytes4"
        }
      ],
      "stateMutability": "nonpayable",
      "type": "function"
    },
    {
      "inputs": [
        {
          "internalType": "address",
          "name": "",
          "type": "address"
        },
        {
          "internalType": "address",
          "name": "",
          "type": "address"
        },
        {
          "internalType": "uint256",
          "name": "",
          "type": "uint256"
        },
        {
          "internalType": "uint256",
          "name": "",
          "type": "uint256"
        },
        {
          "internalType": "bytes",
          "name": "",
          "type": "bytes"
        }
      ],
      "name": "onERC1155Received",
      "outputs": [
        {
          "internalType": "bytes4",
          "name": "",
          "type": "bytes4"
        }
      ],
      "stateMutability": "nonpayable",
      "type": "function"
    },
    {
      "inputs": [
        {
          "internalType": "address",
          "name": "",
          "type": "address"
        },
        {
          "internalType": "address",
          "name": "",
          "type": "address"
        },
        {
          "internalType": "uint256",
          "name": "",
          "type": "uint256"
        },
        {
          "internalType": "bytes",
          "name": "",
          "type": "bytes"
        }
      ],
      "name": "onERC721Received",
      "outputs": [
        {
          "internalType": "bytes4",
          "name": "",
          "type": "bytes4"
        }
      ],
      "stateMutability": "nonpayable",
      "type": "function"
    },
    {
      "inputs": [],
      "name": "owner",
      "outputs": [
        {
          "internalType": "address",
          "name": "",
          "type": "address"
        }
      ],
      "stateMutability": "view",
      "type": "function"
    },
    {
      "inputs": [
        {
          "internalType": "uint256",
          "name": "proposalId",
          "type": "uint256"
        }
      ],
      "name": "proposalDeadline",
      "outputs": [
        {
          "internalType": "uint256",
          "name": "",
          "type": "uint256"
        }
      ],
      "stateMutability": "view",
      "type": "function"
    },
    {
      "inputs": [
        {
          "internalType": "uint256",
          "name": "proposalId",
          "type": "uint256"
        }
      ],
      "name": "proposalEta",
      "outputs": [
        {
          "internalType": "uint256",
          "name": "",
          "type": "uint256"
        }
      ],
      "stateMutability": "view",
      "type": "function"
    },
    {
      "inputs": [
        {
          "internalType": "uint256",
          "name": "proposalId",
          "type": "uint256"
        }
      ],
      "name": "proposalSnapshot",
      "outputs": [
        {
          "internalType": "uint256",
          "name": "",
          "type": "uint256"
        }
      ],
      "stateMutability": "view",
      "type": "function"
    },
    {
      "inputs": [],
      "name": "proposalThreshold",
      "outputs": [
        {
          "internalType": "uint256",
          "name": "",
          "type": "uint256"
        }
      ],
      "stateMutability": "view",
      "type": "function"
    },
    {
      "inputs": [
        {
          "internalType": "uint256",
          "name": "proposalId",
          "type": "uint256"
        }
      ],
      "name": "proposals",
      "outputs": [
        {
          "internalType": "uint256",
          "name": "id",
          "type": "uint256"
        },
        {
          "internalType": "address",
          "name": "proposer",
          "type": "address"
        },
        {
          "internalType": "uint256",
          "name": "eta",
          "type": "uint256"
        },
        {
          "internalType": "uint256",
          "name": "startBlock",
          "type": "uint256"
        },
        {
          "internalType": "uint256",
          "name": "endBlock",
          "type": "uint256"
        },
        {
          "internalType": "uint256",
          "name": "forVotes",
          "type": "uint256"
        },
        {
          "internalType": "uint256",
          "name": "againstVotes",
          "type": "uint256"
        },
        {
          "internalType": "uint256",
          "name": "abstainVotes",
          "type": "uint256"
        },
        {
          "internalType": "bool",
          "name": "canceled",
          "type": "bool"
        },
        {
          "internalType": "bool",
          "name": "executed",
          "type": "bool"
        }
      ],
      "stateMutability": "view",
      "type": "function"
    },
    {
      "inputs": [
        {
          "internalType": "address[]",
          "name": "targets",
          "type": "address[]"
        },
        {
          "internalType": "uint256[]",
          "name": "values",
          "type": "uint256[]"
        },
        {
          "internalType": "bytes[]",
          "name": "calldatas",
          "type": "bytes[]"
        },
        {
          "internalType": "string",
          "name": "description",
          "type": "string"
        }
      ],
      "name": "propose",
      "outputs": [
        {
          "internalType": "uint256",
          "name": "",
          "type": "uint256"
        }
      ],
      "stateMutability": "nonpayable",
      "type": "function"
    },
    {
      "inputs": [
        {
          "internalType": "address[]",
          "name": "targets",
          "type": "address[]"
        },
        {
          "internalType": "uint256[]",
          "name": "values",
          "type": "uint256[]"
        },
        {
          "internalType": "string[]",
          "name": "signatures",
          "type": "string[]"
        },
        {
          "internalType": "bytes[]",
          "name": "calldatas",
          "type": "bytes[]"
        },
        {
          "internalType": "string",
          "name": "description",
          "type": "string"
        }
      ],
      "name": "propose",
      "outputs": [
        {
          "internalType": "uint256",
          "name": "",
          "type": "uint256"
        }
      ],
      "stateMutability": "nonpayable",
      "type": "function"
    },
    {
      "inputs": [
        {
          "internalType": "address[]",
          "name": "targets",
          "type": "address[]"
        },
        {
          "internalType": "uint256[]",
          "name": "values",
          "type": "uint256[]"
        },
        {
          "internalType": "bytes[]",
          "name": "calldatas",
          "type": "bytes[]"
        },
        {
          "internalType": "bytes32",
          "name": "descriptionHash",
          "type": "bytes32"
        }
      ],
      "name": "queue",
      "outputs": [
        {
          "internalType": "uint256",
          "name": "",
          "type": "uint256"
        }
      ],
      "stateMutability": "nonpayable",
      "type": "function"
    },
    {
      "inputs": [
        {
          "internalType": "uint256",
          "name": "proposalId",
          "type": "uint256"
        }
      ],
      "name": "queue",
      "outputs": [],
      "stateMutability": "nonpayable",
      "type": "function"
    },
    {
      "inputs": [
        {
          "internalType": "uint256",
          "name": "blockNumber",
          "type": "uint256"
        }
      ],
      "name": "quorum",
      "outputs": [
        {
          "internalType": "uint256",
          "name": "",
          "type": "uint256"
        }
      ],
      "stateMutability": "view",
      "type": "function"
    },
    {
      "inputs": [
        {
          "internalType": "uint256",
          "name": "proposalId",
          "type": "uint256"
        }
      ],
      "name": "quorumReached",
      "outputs": [
        {
          "internalType": "bool",
          "name": "",
          "type": "bool"
        }
      ],
      "stateMutability": "view",
      "type": "function"
    },
    {
      "inputs": [],
      "name": "quorumVotes",
      "outputs": [
        {
          "internalType": "uint256",
          "name": "",
          "type": "uint256"
        }
      ],
      "stateMutability": "view",
      "type": "function"
    },
    {
      "inputs": [
        {
          "internalType": "address",
          "name": "target",
          "type": "address"
        },
        {
          "internalType": "uint256",
          "name": "value",
          "type": "uint256"
        },
        {
          "internalType": "bytes",
          "name": "data",
          "type": "bytes"
        }
      ],
      "name": "relay",
      "outputs": [],
      "stateMutability": "nonpayable",
      "type": "function"
    },
    {
      "inputs": [],
      "name": "renounceOwnership",
      "outputs": [],
      "stateMutability": "nonpayable",
      "type": "function"
    },
    {
      "inputs": [],
      "name": "senate",
      "outputs": [
        {
          "internalType": "address",
          "name": "",
          "type": "address"
        }
      ],
      "stateMutability": "view",
      "type": "function"
    },
    {
      "inputs": [
        {
          "internalType": "uint256",
          "name": "proposalId",
          "type": "uint256"
        }
      ],
      "name": "state",
      "outputs": [
        {
          "internalType": "enum IChancelorUpgradeable.ProposalState",
          "name": "",
          "type": "uint8"
        }
      ],
      "stateMutability": "view",
      "type": "function"
    },
    {
      "inputs": [
        {
          "internalType": "bytes4",
          "name": "interfaceId",
          "type": "bytes4"
        }
      ],
      "name": "supportsInterface",
      "outputs": [
        {
          "internalType": "bool",
          "name": "",
          "type": "bool"
        }
      ],
      "stateMutability": "view",
      "type": "function"
    },
    {
      "inputs": [],
      "name": "timelock",
      "outputs": [
        {
          "internalType": "address",
          "name": "",
          "type": "address"
        }
      ],
      "stateMutability": "view",
      "type": "function"
    },
    {
      "inputs": [
        {
          "internalType": "address",
          "name": "newOwner",
          "type": "address"
        }
      ],
      "name": "transferOwnership",
      "outputs": [],
      "stateMutability": "nonpayable",
      "type": "function"
    },
    {
      "inputs": [
        {
          "internalType": "contract SenateUpgradeable",
          "name": "newSenate",
          "type": "address"
        }
      ],
      "name": "updateSenate",
      "outputs": [],
      "stateMutability": "nonpayable",
      "type": "function"
    },
    {
      "inputs": [
        {
          "internalType": "contract TimelockControllerUpgradeable",
          "name": "newTimelock",
          "type": "address"
        }
      ],
      "name": "updateTimelock",
      "outputs": [],
      "stateMutability": "nonpayable",
      "type": "function"
    },
    {
      "inputs": [],
      "name": "version",
      "outputs": [
        {
          "internalType": "string",
          "name": "",
          "type": "string"
        }
      ],
      "stateMutability": "view",
      "type": "function"
    },
    {
      "inputs": [],
      "name": "votingDelay",
      "outputs": [
        {
          "internalType": "uint256",
          "name": "",
          "type": "uint256"
        }
      ],
      "stateMutability": "view",
      "type": "function"
    },
    {
      "inputs": [],
      "name": "votingPeriod",
      "outputs": [
        {
          "internalType": "uint256",
          "name": "",
          "type": "uint256"
        }
      ],
      "stateMutability": "view",
      "type": "function"
    },
    {
      "stateMutability": "payable",
      "type": "receive"
    }
  ],
  "numDeployments": 145,
  "bytecode": "0x60808060405234620000c6576000549060ff8260081c1662000074575060ff8082161062000038575b60405161456e9081620000cc8239f35b60ff90811916176000557f7f26b83ff96e1f2b6a682f133852f6798a09c465da95921460cefb3847402498602060405160ff8152a13862000028565b62461bcd60e51b815260206004820152602760248201527f496e697469616c697a61626c653a20636f6e747261637420697320696e697469604482015266616c697a696e6760c81b6064820152608490fd5b600080fdfe60406080815260049081361015610038575b5050361561001e57600080fd5b6001600160a01b036102275416300361003357005b600080fd5b600091823560e01c8063013cf08b14611f2857806301ffc9a714611dbd57806302a251a314611d5a5780630342018114611c5657806306fdde0314611b6c578063150b7a0214611afd578063160cbed714611ade5780631cced89314611a2257806324bc1a64146119b15780632656227d146119995780632d63f693146119685780632fe3e2611461192d578063328dd982146118935780633932abb1146117ee5780633bccf4fd146117315780633e4f49e6146116ec57806340e58ee5146113aa5780634385963214611360578063485cc95514610f8e57806354fd4d5014610f5d5780635678138814610f225780635f398a1414610eaf578063715018a614610e505780637b3c71d314610dee5780637d5e81e214610d6557806385b4bb5314610d365780638da5cb5b14610d0e5780639a802a6d14610caf578063a6e5b8e614610c86578063a890c91014610bc8578063ab58fb8e14610ba8578063b58131b014610b8b578063bc197c8114610aeb578063c01f9e3714610aae578063c28bc2fa146108bf578063c59057e4146108a0578063d33219b414610877578063d4a8dd981461084e578063da95691a1461070e578063dd4e2ba5146106ad578063ddf0b0091461065a578063deaaa7cc1461061f578063e23a9a5214610575578063eb9019d41461049e578063f23a6e611461042c578063f2fde38b14610350578063f8ce560a146102bf5763fe0d94c1146102555750610011565b60203660031901126102bb57806102b7913584526101c46020526102938385209161028d6102856003850161311e565b91840161311e565b906132c1565b6009820154916102b160026102aa600184016131fb565b9201613255565b9061269f565b5051f35b8280fd5b5091903461034c57602092836003193601126102bb57836001600160a01b036101f65416916024845180948193637c672b0560e11b83528035908301525afa9283156103415792610312575b5051908152f35b9091508281813d831161033a575b61032a818361210d565b810103126100335751903861030b565b503d610320565b8251903d90823e3d90fd5b5080fd5b50346102bb5760203660031901126102bb5761036a61221d565b6103726124d7565b6001600160a01b038091169182156103c3575060995492826001600160a01b03198516176099555192167f8be0079c531659141344cd1fd0a4f28419497f9722a3daafe3b4186f6b6457e0600084a3f35b608490602085519162461bcd60e51b8352820152602660248201527f4f776e61626c653a206e6577206f776e657220697320746865207a65726f206160448201527f64647265737300000000000000000000000000000000000000000000000000006064820152fd5b50913461049b5760a036600319011261049b5761044761221d565b50610450612233565b506084359067ffffffffffffffff821161049b5750602092610474913691016121b7565b50517ff23a6e61000000000000000000000000000000000000000000000000000000008152f35b80fd5b5091903461034c578060031936011261034c5760206104bb61221d565b938383516104c8816120d5565b526001600160a01b03806101f65416908451966104e4886120d5565b86885261051b86519889958694859463f8ef763b60e01b8652169084015260243560248401526060604484015260648301906121f8565b03915afa91821561056a5791610536575b6020925051908152f35b90506020823d8211610562575b816105506020938361210d565b8101031261003357602091519061052c565b3d9150610543565b9051903d90823e3d90fd5b50346102bb57816003193601126102bb576001600160a01b0360088360609561059c612233565b94818380516105aa81612081565b82815282602082015201523581526101c46020522001911660005260205280600020908051916105d983612081565b5460ff811615159283815260ff836020830192828560081c16845201916bffffffffffffffffffffffff809460101c168352845195865251166020850152511690820152f35b50503461034c578160031936011261034c57602090517f150214d74d59b7d1e90c73fc22ef3d991dd0a76b046543d4d80ab92d2a50328f8152f35b50346102bb5760203660031901126102bb57806102b7913584526101c46020526106908385209161028d6102856003850161311e565b6009820154916106a760026102aa600184016131fb565b90613a44565b50503461034c578160031936011261034c57805161070a916106ce826120f1565b601a82527f737570706f72743d627261766f2671756f72756d3d627261766f0000000000006020830152519182916020835260208301906121f8565b0390f35b5090346102bb5760a03660031901126102bb5767ffffffffffffffff91803583811161084a576107419036908301612261565b60249182358581116108465761075a90369083016122cf565b9060443595808711610842573660238801121561084257868201359461077f86612249565b9561078c8851978861210d565b808752602098828a89019260051b8201019236841161083e57808201925b848410610814575050505050606435818111610810576107cd903690840161232d565b9760843591821161049b5750966107ef610803926108099798993691016121b7565b946107fe868383878933613439565b6132c1565b91614076565b9051908152f35b8880fd5b833586811161083a578c9161082f83928536918801016121b7565b8152019301926107aa565b8d80fd5b8b80fd5b8780fd5b8680fd5b8480fd5b50913461049b57602036600319011261049b575061086e60209235613d1e565b90519015158152f35b50503461034c578160031936011261034c576020906001600160a01b0361022754169051908152f35b50503461034c576020906108096108b6366123ae565b929190916125a2565b50346102bb5760603660031901126102bb576108d961221d565b6024359060443567ffffffffffffffff8111610aaa576108fc9036908501612029565b906001600160a01b036102275416610915813314613004565b3003610a84575b610927913691612180565b9184519361093485612081565b602985527f416464726573733a206c6f772d6c6576656c2063616c6c20776974682076616c60208601527f7565206661696c6564000000000000000000000000000000000000000000000086860152814710610a1b57823b156109d85750828692839260206102b79796519301915af13d156109d0573d906109b58261212f565b916109c28651938461210d565b82523d86602084013e61304f565b60609061304f565b606490602087519162461bcd60e51b8352820152601d60248201527f416464726573733a2063616c6c20746f206e6f6e2d636f6e74726163740000006044820152fd5b608490602087519162461bcd60e51b8352820152602660248201527f416464726573733a20696e73756666696369656e742062616c616e636520666f60448201527f722063616c6c00000000000000000000000000000000000000000000000000006064820152fd5b610a8e363661214b565b602081519101205b80610a9f613093565b03610a96575061091c565b8580fd5b50346102bb5760203660031901126102bb57610ae260018360209567ffffffffffffffff9435815261019487522001612606565b51169051908152f35b50913461049b5760a036600319011261049b57610b0661221d565b50610b0f612233565b5067ffffffffffffffff9060443582811161034c57610b3190369086016122cf565b5060643582811161034c57610b4990369086016122cf565b5060843591821161049b5750602092610b64913691016121b7565b50517fbc197c81000000000000000000000000000000000000000000000000000000008152f35b50503461034c578160031936011261034c576020906108096144bb565b50913461049b57602036600319011261049b575061080960209235613996565b50503461034c57602036600319011261034c57610be361221d565b6001600160a01b036102279181835416610bfe813314613004565b3003610c60575b825484516001600160a01b03828516811682529390921692831660208301526001600160a01b0319917f08f74ea46ef7894f65eabfb5e6e695de773a000b47c529ab559178069b2264019080604081015b0390a11617905551f35b610c6a363661214b565b602081519101205b80610c7b613093565b03610c725750610c05565b50503461034c578160031936011261034c576020906001600160a01b036101f654169051908152f35b5091903461034c57606036600319011261034c57610ccb61221d565b9260443567ffffffffffffffff8111610d0a5790610cee602092369083016121b7565b506001600160a01b03806101f65416908451966104e4886120d5565b8380fd5b50503461034c578160031936011261034c576020906001600160a01b03609954169051908152f35b50503461034c578160031936011261034c57606090610d536138f0565b91929081519384526020840152820152f35b50913461049b57608036600319011261049b5767ffffffffffffffff83358181116102bb57610d979036908601612261565b93602435828111610d0a57610daf90369083016122cf565b9160443581811161084a57610dc7903690840161232d565b9360643591821161049b575091610de86108099492602097943691016121b7565b92614076565b50346102bb5760603660031901126102bb57610e08612019565b60443567ffffffffffffffff811161084a579160209491610e39610e326108099536908501612029565b3691612180565b91855193610e46856120d5565b8452339035612bf0565b50503461034c578160031936011261034c57610e6a6124d7565b60006001600160a01b03609954926001600160a01b031984166099555192167f8be0079c531659141344cd1fd0a4f28419497f9722a3daafe3b4186f6b6457e08284a3f35b50346102bb5760803660031901126102bb57610ec9612019565b67ffffffffffffffff9360443585811161034c57610eea9036908501612029565b95909160643591821161049b575091610f196108099492610f1160209895369086016121b7565b943691612180565b91339035612bf0565b50346102bb57816003193601126102bb5760209261080991610f42612019565b845191610f4e836120d5565b838352855193610e46856120d5565b50503461034c578160031936011261034c5761070a90610f7b612569565b90519182916020835260208301906121f8565b50346102bb57816003193601126102bb57610fa761221d565b90610fb0612233565b9184549060ff8260081c161590818092611353575b801561133c575b156112d357600192828460ff1983161789556112c2575b508551610fef816120f1565b6011815260209461105a8683017f52657075626c69634368616e63656c6f72000000000000000000000000000000815260ff8b5460081c169061103182613cad565b611039612569565b9061104383613cad565b855190209089815191012090606555606655613cad565b81519067ffffffffffffffff82116112af5750806101939261107c845461252f565b601f8111611257575b508790601f83116001146111da578b926111cf575b5050600019600383901b1c191690851b1790555b86549460ff8660081c166110c181613cad565b6110ca81613cad565b6110d381613cad565b6101f6805489516001600160a01b03808316825294851660208201819052919361113e93909290917f304e188ff78544bf68047712e88b34e09b3e2f53411c33ea1f31c8db0323955290604090a16001600160a01b031980951617905561113981613cad565b613cad565b610227805489516001600160a01b03858316811682529590941694851660208501529093927f08f74ea46ef7894f65eabfb5e6e695de773a000b47c529ab559178069b22640190604090a116179055611198575b50505051f35b7f7f26b83ff96e1f2b6a682f133852f6798a09c465da95921460cefb38474024989261ff00191685558351908152a1388080611192565b01519050388061109a565b848c528793507ffc8af01f449989052b52093a58fc9f42d0b11f0c6dd5dca0463dab62346ccc689190601f1984168d5b8b8282106112415750508411611228575b505050811b0190556110ae565b015160001960f88460031b161c1916905538808061121b565b8385015186558b9790950194938401930161120a565b61129f90856000527ffc8af01f449989052b52093a58fc9f42d0b11f0c6dd5dca0463dab62346ccc68601f850160051c8101918b86106112a5575b601f0160051c01906133c5565b38611085565b9091508190611292565b896041602492634e487b7160e01b835252fd5b61ffff191661010117875538610fe3565b608484602088519162461bcd60e51b8352820152602e60248201527f496e697469616c697a61626c653a20636f6e747261637420697320616c72656160448201527f647920696e697469616c697a65640000000000000000000000000000000000006064820152fd5b50303b158015610fcc5750600160ff841614610fcc565b50600160ff841610610fc5565b50346102bb57816003193601126102bb576001600160a01b03600883602095611387612233565b943581526101c4875220019116600052825260ff81600020541690519015158152f35b50346102bb57602080600319360112610d0a57813584526101c48152828420916001600160a01b03928381541680331490811561161c575b50156115b457806114066113fb6003611423940161311e565b61028d85840161311e565b60098201549161141d60026102aa600184016131fb565b906125a2565b9061142d82613ddc565b600881101590816115a15760028114159182611593575b8261156e575b50501561152c57818652610194835260028587200161010061ff00198254161790557f789cf55be980739dad1d0699b93b58e806b51c9d96619bfa8fe0a28abaa7b30c838651848152a18186528561022894858552868220546114ac57508551f35b6102275416918682205490833b156102bb5760249083895195869485937fc4d252f50000000000000000000000000000000000000000000000000000000085528401525af180156115225761150f575b5084525260008183205538808080858551f35b61151b90959195612057565b93386114fc565b85513d88823e3d90fd5b6064908386519162461bcd60e51b8352820152601e60248201527f4368616e63656c6f723a2070726f706f73616c206e6f742061637469766500006044820152fd5b9091506115805760071415388061144a565b602487602184634e487b7160e01b835252fd5b506006811415915087611444565b602488602185634e487b7160e01b835252fd5b5060849184519162461bcd60e51b8352820152602760248201527f476f7665726e6f72427261766f3a2070726f706f7365722061626f766520746860448201527f726573686f6c64000000000000000000000000000000000000000000000000006064820152fd5b905060001943014381116116d95761168091859189895161163c816120d5565b52876101f6541690895192611650846120d5565b8b84528a519586948593849363f8ef763b60e01b85528b85015260248401526060604484015260648301906121f8565b03915afa9081156116cf5787916116a2575b5061169b6144bb565b11386113e2565b90508381813d83116116c8575b6116b9818361210d565b81010312610846575138611692565b503d6116af565b86513d89823e3d90fd5b602488601186634e487b7160e01b835252fd5b5091903461034c57602036600319011261034c5761170a8335613ddc565b905191600882101561171e57602083838152f35b80602185634e487b7160e01b6024945252fd5b50346102bb5760a03660031901126102bb573561174c612019565b60443560ff8116810361084a5791602094916117cc6117c4610809958751898101917f150214d74d59b7d1e90c73fc22ef3d991dd0a76b046543d4d80ab92d2a50328f8352868a83015260ff86166060830152606082526117ac826120b9565b6117bf6084359360643593519020612b54565b612a9f565b919091612947565b8551926117d8846120d5565b8484528651946117e7866120d5565b8552612bf0565b5090346102bb57826003193601126102bb5760206001600160a01b036101f654168251938480927f3932abb10000000000000000000000000000000000000000000000000000000082525afa918215611889578392611852575b6020838351908152f35b9091506020813d8211611881575b8161186d6020938361210d565b810103126102bb5760209250519038611848565b3d9150611860565b81513d85823e3d90fd5b50346102bb5760203660031901126102bb578061191f836119049561070a943581526101c460205220936118c9600186016131fb565b946119126118f06118dc60028401613255565b956118e96003850161311e565b930161311e565b94835198899860808a5260808a0190612411565b9088820360208a015261244e565b9186830390870152612482565b908382036060850152612482565b50503461034c578160031936011261034c57602090517fb3b3f3b703cd84ce352197dcff232b1b5d3cfb2025ce47cf04742d0651f1af888152f35b50346102bb5760203660031901126102bb57610ae28260209467ffffffffffffffff93358152610194865220612606565b6020836108096119a8366123ae565b9291909161269f565b5090346102bb57826003193601126102bb576000194301438111611a0f5760209060246001600160a01b036101f654169484519586938492637c672b0560e11b84528301525afa918215611889578392611852576020838351908152f35b602484601185634e487b7160e01b835252fd5b50503461034c57602036600319011261034c57611a3d61221d565b6001600160a01b03806102275416611a56813314613004565b3003611ab8575b6101f6805484516001600160a01b038285168116825293909416928316602085015290926001600160a01b031991907f304e188ff78544bf68047712e88b34e09b3e2f53411c33ea1f31c8db03239552908060408101610c56565b611ac2363661214b565b602081519101205b80611ad3613093565b03611aca5750611a5d565b50503461034c57602090610809611af4366123ae565b92919091613a44565b50913461049b57608036600319011261049b57611b1861221d565b50611b21612233565b506064359067ffffffffffffffff821161049b5750602092611b45913691016121b7565b50517f150b7a02000000000000000000000000000000000000000000000000000000008152f35b50503461034c578160031936011261034c578051908261019390815490611b928261252f565b80865292600192808416908115611c2b5750600114611bcf575b61070a8686611bbd828b038361210d565b519182916020835260208301906121f8565b815294507ffc8af01f449989052b52093a58fc9f42d0b11f0c6dd5dca0463dab62346ccc685b828610611c1357505050611bbd82602061070a958201019438611bac565b80546020878701810191909152909501948101611bf5565b905061070a975086935060209250611bbd94915060ff191682840152151560051b8201019438611bac565b50346102bb5760e03660031901126102bb57803590611c73612019565b9067ffffffffffffffff60443581811161084657611c949036908401612029565b91909260643591821161084257611cad913691016121b7565b956084359060ff8216820361049b5750611d5461080995936020989593611d4c89610e3295611cdd368587612180565b8d8151910120908a518e8c01208351928f8c908501957fb3b3f3b703cd84ce352197dcff232b1b5d3cfb2025ce47cf04742d0651f1af88875285015260ff8b166060850152608084015260a083015260a08252611d398261209d565b6117bf60c4359360a43593519020612b54565b949094612947565b92612bf0565b5090346102bb57826003193601126102bb5760206001600160a01b036101f654168251938480927f02a251a30000000000000000000000000000000000000000000000000000000082525afa918215611889578392611852576020838351908152f35b50346102bb5760203660031901126102bb5735907fffffffff0000000000000000000000000000000000000000000000000000000082168092036102bb57602092507f6e665ced000000000000000000000000000000000000000000000000000000008214918215611e33575b50519015158152f35b9091507fa6e5b8e6000000000000000000000000000000000000000000000000000000008114908115611e69575b509038611e2a565b7f3a9263c400000000000000000000000000000000000000000000000000000000811491508115611efe575b8115611ed4575b8115611eaa575b5038611e61565b7f01ffc9a70000000000000000000000000000000000000000000000000000000091501438611ea3565b7f4e2312e00000000000000000000000000000000000000000000000000000000081149150611e9c565b7ffc69c23c0000000000000000000000000000000000000000000000000000000081149150611e95565b50913461049b57602036600319011261049b57823591611f4783613996565b90838352610194908160205267ffffffffffffffff80611f68838720612606565b511692868652602052611f7f600183872001612606565b51168585526101c4602052818520926001600160a01b03845416946005850154936007600687015496015496611fb48a613ddc565b9860088a1015612006576101408b60078c8c8c8c8c8c8c8c8c81519a8b5260208b01528901526060880152608087015260a086015260c085015260e08401526002811461010084015214610120820152f35b8060218d634e487b7160e01b6024945252fd5b6024359060ff8216820361003357565b9181601f840112156100335782359167ffffffffffffffff8311610033576020838186019501011161003357565b67ffffffffffffffff811161206b57604052565b634e487b7160e01b600052604160045260246000fd5b6060810190811067ffffffffffffffff82111761206b57604052565b60c0810190811067ffffffffffffffff82111761206b57604052565b6080810190811067ffffffffffffffff82111761206b57604052565b6020810190811067ffffffffffffffff82111761206b57604052565b6040810190811067ffffffffffffffff82111761206b57604052565b90601f8019910116810190811067ffffffffffffffff82111761206b57604052565b67ffffffffffffffff811161206b57601f01601f191660200190565b9190916121578161212f565b612164604051918261210d565b8093828252821161003357818160009384602080950137010152565b92919261218c8261212f565b9161219a604051938461210d565b829481845281830111610033578281602093846000960137010152565b9080601f83011215610033578160206121d293359101612180565b90565b60005b8381106121e85750506000910152565b81810151838201526020016121d8565b90602091612211815180928185528580860191016121d5565b601f01601f1916010190565b600435906001600160a01b038216820361003357565b602435906001600160a01b038216820361003357565b67ffffffffffffffff811161206b5760051b60200190565b81601f820112156100335780359161227883612249565b92612286604051948561210d565b808452602092838086019260051b820101928311610033578301905b8282106122b0575050505090565b81356001600160a01b03811681036100335781529083019083016122a2565b81601f82011215610033578035916122e683612249565b926122f4604051948561210d565b808452602092838086019260051b820101928311610033578301905b82821061231e575050505090565b81358152908301908301612310565b9080601f830112156100335781359061234582612249565b92612353604051948561210d565b828452602092838086019160051b8301019280841161003357848301915b8483106123815750505050505090565b823567ffffffffffffffff81116100335786916123a3848480948901016121b7565b815201920191612371565b60806003198201126100335767ffffffffffffffff9160043583811161003357826123db91600401612261565b9260243581811161003357836123f3916004016122cf565b926044359182116100335761240a9160040161232d565b9060643590565b90815180825260208080930193019160005b828110612431575050505090565b83516001600160a01b031685529381019392810192600101612423565b90815180825260208080930193019160005b82811061246e575050505090565b835185529381019392810192600101612460565b90815180825260208092019182818360051b85019501936000915b8483106124ad5750505050505090565b90919293949584806124c783856001950387528a516121f8565b980193019301919493929061249d565b6001600160a01b036099541633036124eb57565b606460405162461bcd60e51b815260206004820152602060248201527f4f776e61626c653a2063616c6c6572206973206e6f7420746865206f776e65726044820152fd5b90600182811c9216801561255f575b602083101461254957565b634e487b7160e01b600052602260045260246000fd5b91607f169161253e565b60405190612576826120f1565b600182527f31000000000000000000000000000000000000000000000000000000000000006020830152565b92906125ee92612600926040519485926125de6125cb602086019960808b5260a0870190612411565b601f19968787830301604088015261244e565b9085858303016060860152612482565b9060808301520390810183528261210d565b51902090565b906040516020810167ffffffffffffffff908281108282111761206b57604052819354169052565b1561263557565b608460405162461bcd60e51b815260206004820152602260248201527f4368616e63656c6f723a2070726f706f73616c206e6f7420737563636573736660448201527f756c0000000000000000000000000000000000000000000000000000000000006064820152fd5b91926126ad818584866125a2565b936126b785613ddc565b60088110156128e2578060046126d692149081156128d7575b5061262e565b6000938585526020936101948552604091600283882001946001958660ff198254161790557f712ae1383f79ac853f8d882153778e0260ef8f03b504e2866e0593e04d2b291f8785518b8152a16001600160a01b039561022797878954163003612835575b50508587541692833b15610810576127a7928994926127b6612794938851998a97889687967fe38335e500000000000000000000000000000000000000000000000000000000885260a0600489015260a4880190612411565b600319938488830301602489015261244e565b91858303016044860152612482565b908660648401526084830152039134905af1801561282b57612800575b505030915416036127e2575090565b610195805480600f0b9060801d600f0b136127fc57505090565b5590565b67ffffffffffffffff8211612817575238806127d3565b602485634e487b7160e01b81526041600452fd5b81513d87823e3d90fd5b8990825b612844575b5061273b565b84518210156128d25761286a8392308b61285e838a61291d565b511614612870576128f8565b91612839565b61287a818b61291d565b518381519101208d6fffffffffffffffffffffffffffffffff6fffffffffffffffffffffffffffffffff198c61019594855491608092831d9586600f0b81526101968b5220558885549401901b1691161790556128f8565b61283e565b6005915014386126d0565b634e487b7160e01b600052602160045260246000fd5b60001981146129075760010190565b634e487b7160e01b600052601160045260246000fd5b80518210156129315760209160051b010190565b634e487b7160e01b600052603260045260246000fd5b60058110156128e257806129585750565b600181036129a457606460405162461bcd60e51b815260206004820152601860248201527f45434453413a20696e76616c6964207369676e617475726500000000000000006044820152fd5b600281036129f057606460405162461bcd60e51b815260206004820152601f60248201527f45434453413a20696e76616c6964207369676e6174757265206c656e677468006044820152fd5b60038103612a4757608460405162461bcd60e51b815260206004820152602260248201527f45434453413a20696e76616c6964207369676e6174757265202773272076616c604482015261756560f01b6064820152fd5b600414612a5057565b608460405162461bcd60e51b815260206004820152602260248201527f45434453413a20696e76616c6964207369676e6174757265202776272076616c604482015261756560f01b6064820152fd5b9291907f7fffffffffffffffffffffffffffffff5d576e7357a4501ddfe92f46681b20a08311612b485760ff16601b81141580612b3d575b612b31579160809493916020936040519384528484015260408301526060820152600093849182805260015afa15612b245781516001600160a01b03811615612b1e579190565b50600190565b50604051903d90823e3d90fd5b50505050600090600490565b50601c811415612ad7565b50505050600090600390565b6065546066546040519060208201927f8b73c3c69bb8fe3d512ecc4cf759cc79239f7b179b0ffacaa9a75d522b39400f8452604083015260608201524660808201523060a082015260a08152612ba98161209d565b519020906040519060208201927f190100000000000000000000000000000000000000000000000000000000000084526022830152604282015260428152612600816120b9565b600081815261019460209081526040808320989794969591949092612c1485613ddc565b6008811015612ff057600103612f88578567ffffffffffffffff612c3b612c8d9b9c612606565b5116986001600160a01b03806101f6541690875192612c59846120d5565b85845288519d8e948593849363f8ef763b60e01b8552169e8f600485015260248401526060604484015260648301906121f8565b03915afa988915612f7c578199612f4d575b508481526101c48652838082209189815260088301885220805460ff8116612ee45760ff8516946bffffffffffffffffffffffff8c11612e7b5760081b61ff00166dffffffffffffffffffffffffffff199091161760108b901b6dffffffffffffffffffffffff000016176001179055889392919082612dd557600601612d278582546138e3565b90555b8051612d7d57509181612d77937fb8e138887d0aa13bab447e82de9d5c1777041ecd21ca36ba824ff1e6c07ddda497935196879687528601528401526080606084015260808301906121f8565b0390a290565b9195612d779387612dc7937fe2babfbac5889a709b63bb7f598b324e08bc5a4fb9ec647fb3cbc9ec07eb87129951988998895288015286015260a0606086015260a08501906121f8565b9083820360808501526121f8565b60018303612df257600501612deb8582546138e3565b9055612d2a565b929350909160028303612e12579060078994939201612deb8582546138e3565b60848685519062461bcd60e51b82526004820152602d60248201527f476f7665726e6f72436f6d7061746962696c697479427261766f3a20696e766160448201527f6c696420766f74652074797065000000000000000000000000000000000000006064820152fd5b60848988519062461bcd60e51b82526004820152602660248201527f53616665436173743a2076616c756520646f65736e27742066697420696e203960448201527f36206269747300000000000000000000000000000000000000000000000000006064820152fd5b60848887519062461bcd60e51b82526004820152602d60248201527f476f7665726e6f72436f6d7061746962696c697479427261766f3a20766f746560448201527f20616c72656164792063617374000000000000000000000000000000000000006064820152fd5b9098508581813d8311612f75575b612f65818361210d565b8101031261081057519738612c9f565b503d612f5b565b508351903d90823e3d90fd5b60848685519062461bcd60e51b825260048201526024808201527f4368616e63656c6f723a20766f7465206e6f742063757272656e746c7920616360448201527f74697665000000000000000000000000000000000000000000000000000000006064820152fd5b602482634e487b7160e01b81526021600452fd5b1561300b57565b606460405162461bcd60e51b815260206004820152601860248201527f4368616e63656c6f723a206f6e6c794368616e63656c6f7200000000000000006044820152fd5b9091901561305b575090565b81511561306b5750805190602001fd5b61308f9060405191829162461bcd60e51b83526020600484015260248301906121f8565b0390fd5b6101959081549182600f0b809360801d600f0b13156130f45782600052610196602052604060002054926000604081205560016fffffffffffffffffffffffffffffffff1983541691016fffffffffffffffffffffffffffffffff16179055565b60046040517f3db2a12a000000000000000000000000000000000000000000000000000000008152fd5b9081549161312b83612249565b9260409161313b8351958661210d565b81855260009081526020808220938291908188015b8584106131605750505050505050565b81518386928954926131718461252f565b8082526001948086169081156131df57506001146131a7575b5061319981600196038261210d565b815201970193019295613150565b8b8a52838a20955089905b8082106131c8575081018301945061319961318a565b8654838301860152958501958894909101906131b2565b60ff19168584015250151560051b81018301945061319961318a565b9060405191828154918282526020928383019160005283600020936000905b828210613232575050506132309250038361210d565b565b85546001600160a01b03168452600195860195889550938101939091019061321a565b9060405191828154918282526020928383019160005283600020936000905b82821061328a575050506132309250038361210d565b855484526001958601958895509381019390910190613274565b60005b8281106132b357505050565b6060828201526020016132a7565b91908051906132cf82612249565b936040926132df8451968761210d565b8086526132ee601f1991612249565b01906132fe6020928388016132a4565b6000805b82518110156133bd5780613319613346928561291d565b515161334b57613329818761291d565b515b613335828b61291d565b52613340818a61291d565b506128f8565b613302565b7fffffffff00000000000000000000000000000000000000000000000000000000613376828661291d565b51868151910120166133b861338b838961291d565b51895192888401528281516133a8816024948c86860191016121d5565b810103600481018452018261210d565b61332b565b505050505050565b8181106133d0575050565b600081556001016133c5565b918181106133e957505050565b61323092600052602060002091820191016133c5565b9190601f811161340e57505050565b613230926000526020600020906020601f840160051c830193106112a557601f0160051c01906133c5565b93929385516020809701209561345a8761345387896132c1565b86866125a2565b9460009586526101c4825260408620926009840197885415613483575b50505050505050505050565b6001600160a01b038092166001600160a01b031986541617855560019687860187519067ffffffffffffffff948583116138cf5768010000000000000000998a84116137ef5788906134da858554818755866133dc565b01918c52878c20908b8d5b8581106138bb57505050505050600286018151918483116138a7578883116138a7578690613518848454818655856133dc565b01908a52858a20898b5b848110613895575050505050600385018151918783116138815785908254848455808510613803575b500190895284892089915b83831061371c57505050506004809401918051958611613709578390835487855580881061368b575b50949294019387528287209187945b8686106135ae575050505050505050505538808080808080808080613477565b8051908151848111613678578991816135d289936135cc8a5461252f565b8a6133ff565b82948d601f83116001146136165795829186979261360b575b5050600019600383901b1c191690841b1787555b0194019501949261358e565b0151905038806135eb565b9095601f1983168a8352858320925b8181106136615750908697848895949310613648575b505050811b0187556135ff565b015160001960f88460031b161c1916905538808061363b565b8289015184558f978d979401939283019201613625565b60248b604186634e487b7160e01b835252fd5b848a528888848c2092830192015b8281106136a757505061357f565b90919293508a6136b7825461252f565b806136ca575b5050019088869392613699565b83601f8a8184116001146136e6575050505081555b8a386136bd565b84866136fc965220920160051c820191016133c5565b8a878120818355556136df565b602488604187634e487b7160e01b835252fd5b80519081518681116137ef578b91818e6137418c9461373b895461252f565b896133ff565b8390601f83116001146137825790859683613777575b5050600019600383901b1c191690841b1785555b01920192019190613556565b015190503880613757565b90601f198316888352858320925b8181106137cc57509086978488959493106137b3575b505050811b01855561376b565b015160001960f88460031b161c191690553880806137a6565b9497939686929691938786015181550195019301928f95929693918d9592613790565b60248d634e487b7160e01b81526041600452fd5b8a85848e8781522092830192015b82811061381f57505061354b565b90919293508c61382f825461252f565b80613842575b505001908a889392613811565b83601f8c81841160011461385e575050505081555b8c38613835565b8486613874965220920160051c820191016133c5565b8c89812081835555613857565b60248a634e487b7160e01b81526041600452fd5b88845194019381840155018a90613522565b60248b634e487b7160e01b81526041600452fd5b8a8386511695019481850155018c906134e5565b60248c634e487b7160e01b81526041600452fd5b9190820180921161290757565b60049060606001600160a01b036101f65416604051938480927f85b4bb530000000000000000000000000000000000000000000000000000000082525afa90811561398a57600080938193613946575b50929190565b92509092506060823d8211613982575b816139636060938361210d565b8101031261049b57508051602082015160409092015191929038613940565b3d9150613956565b6040513d6000823e3d90fd5b6001600160a01b0361022754166000918252610228602052602060408320546024604051809481937fd45c443500000000000000000000000000000000000000000000000000000000835260048301525afa908115613a39578291613a08575b5060018103613a03575090565b905090565b90506020813d8211613a31575b81613a226020938361210d565b8101031261034c5751386139f6565b3d9150613a15565b6040513d84823e3d90fd5b92613a51818484876125a2565b93613a5b85613ddc565b60088110156128e2576004613a70911461262e565b6001600160a01b039161022793838554166040968751957ff27a0c920000000000000000000000000000000000000000000000000000000087526020978888600481875afa978815613ca257600098613c73575b5089517fb1c5f42700000000000000000000000000000000000000000000000000000000815260a060048201528981613b0060a482018b612411565b968180613b2d613b1d6003199b8c8482030160248501528d61244e565b8b8382030160448401528a612482565b600060648301528c608483015203915afa908115613c6857600091613c3b575b508b6000526102288a528a60002055541691823b15610033576127a795600095613bc38793613bb3958d519a8b998a9889977f8f2a0bb000000000000000000000000000000000000000000000000000000000895260c060048a015260c4890190612411565b908488830301602489015261244e565b9083606484015260848301528860a483015203925af18015613c305791613c14917f9a2e42fd6722813d69113e7d0079d3d940171428df7373df9c7f7617cfda2892959493613c21575b50426138e3565b825191858352820152a190565b613c2a90612057565b38613c0d565b84513d6000823e3d90fd5b908a82813d8311613c61575b613c51818361210d565b8101031261049b57505138613b4d565b503d613c47565b8b513d6000823e3d90fd5b90978982813d8311613c9b575b613c8a818361210d565b8101031261049b5750519638613ac4565b503d613c80565b8a513d6000823e3d90fd5b15613cb457565b608460405162461bcd60e51b815260206004820152602b60248201527f496e697469616c697a61626c653a20636f6e7472616374206973206e6f74206960448201527f6e697469616c697a696e670000000000000000000000000000000000000000006064820152fd5b60009081526020906101c482526040812090610194835267ffffffffffffffff613d4a60408320612606565b511690836001600160a01b036101f6541692602460405180958193637c672b0560e11b835260048301525afa938415612b24578194613d90575b50505060050154101590565b909180939450813d8311613dbd575b613da9818361210d565b8101031261049b5750519060053880613d84565b503d613d9f565b90816020910312610033575180151581036100335790565b613de581613f33565b9060088210156128e25760048203613f2f576000908152602061022881526040822054908115600014613e185750505090565b909192506001600160a01b036102275416916040517f2ab0f5290000000000000000000000000000000000000000000000000000000081528160048201528281602481875afa908115613f24578591613f07575b5015613e7b5750505050600790565b81906024604051809581937f584b153e00000000000000000000000000000000000000000000000000000000835260048301525afa928315613efb5792613ece575b505015613ec957600590565b600290565b613eed9250803d10613ef4575b613ee5818361210d565b810190613dc4565b3880613ebd565b503d613edb565b604051903d90823e3d90fd5b613f1e9150833d8511613ef457613ee5818361210d565b38613e6c565b6040513d87823e3d90fd5b5090565b600081815261019480602052600260408320015460ff81166140385760081c60ff166140305767ffffffffffffffff9081613f7060408520612606565b51168015613fec57431115613fe5578383526020524390613f9660016040852001612606565b51161015613fde57613fa782613d1e565b9182613fbf575b505015613fba57600490565b600390565b6040925081526101c46020522060066005820154910154103880613fae565b5050600190565b5050905090565b606460405162461bcd60e51b815260206004820152601e60248201527f4368616e63656c6f723a20756e6b6e6f776e2070726f706f73616c20696400006044820152fd5b505050600290565b50505050600790565b9061323061404e83612249565b61405b604051918261210d565b8381526020819461406e601f1991612249565b0191016132a4565b926140a69192614093828261408b8151614041565b878933613439565b6140ac61409e6138f0565b9591506143af565b936143af565b906000194301438111612907576001600160a01b036101f654169560409182519788917f8ee3e67f000000000000000000000000000000000000000000000000000000008352336004840152602483015281604460209a8b935afa9081156143a457600091614387575b501561431e5761412d85518887012084838b6125a2565b9761413b815183511461442e565b614148815185511461442e565b8051156142db578860005261019480895267ffffffffffffffff978861417086600020612606565b51166142725789979461423761426c9895614229614253968f7f7d84a6263ae0d98d3329bd7b46bb4e8d6f98cd35a7adb45c274c8b7fd5ebd5e09f97819f9c986141cf6141c86142459a6141c3436143af565b61449f565b9c8d61449f565b92600052528b866000209a169b67ffffffffffffffff199a8d8c825416179055600187600020019116809a82541617905561420a8151614041565b9480519e8f9e8f918252339101528d61012091829101528d0190612411565b908b820360608d015261244e565b9089820360808b0152612482565b9087820360a0890152612482565b9260c086015260e08501528382036101008501526121f8565b0390a190565b60848a86519062461bcd60e51b82526004820152602260248201527f4368616e63656c6f723a2070726f706f73616c20616c7265616479206578697360448201527f74730000000000000000000000000000000000000000000000000000000000006064820152fd5b60648884519062461bcd60e51b82526004820152601960248201527f4368616e63656c6f723a20656d7074792070726f706f73616c000000000000006044820152fd5b60848783519062461bcd60e51b82526004820152603260248201527f4368616e63656c6f723a2070726f706f73657220766f7465732062656c6f772060448201527f70726f706f73616c207468726573686f6c6400000000000000000000000000006064820152fd5b61439e9150883d8a11613ef457613ee5818361210d565b38614116565b83513d6000823e3d90fd5b67ffffffffffffffff908181116143c4571690565b608460405162461bcd60e51b815260206004820152602660248201527f53616665436173743a2076616c756520646f65736e27742066697420696e203660448201527f34206269747300000000000000000000000000000000000000000000000000006064820152fd5b1561443557565b608460405162461bcd60e51b815260206004820152602260248201527f4368616e63656c6f723a20696e76616c69642070726f706f73616c206c656e6760448201527f74680000000000000000000000000000000000000000000000000000000000006064820152fd5b91909167ffffffffffffffff8080941691160191821161290757565b600460206001600160a01b036101f65416604051928380927fb58131b00000000000000000000000000000000000000000000000000000000082525afa90811561398a5760009161450a575090565b906020823d8211614530575b816145236020938361210d565b8101031261049b57505190565b3d915061451656fea26469706673582212205c313bb266a7e3fd7e0b24aae7c4c2d1f4860a2c87530671cfc588015387f9de64736f6c63430008100033"
}