{
  "address": "0x22753E4264FDDc6181dc7cce468904A80a363E44",
  "abi": [
    {
      "inputs": [],
      "stateMutability": "nonpayable",
      "type": "constructor"
    },
    {
      "anonymous": false,
      "inputs": [
        {
          "indexed": true,
          "internalType": "bytes32",
          "name": "id",
          "type": "bytes32"
        },
        {
          "indexed": true,
          "internalType": "uint256",
          "name": "index",
          "type": "uint256"
        },
        {
          "indexed": false,
          "internalType": "address",
          "name": "target",
          "type": "address"
        },
        {
          "indexed": false,
          "internalType": "uint256",
          "name": "value",
          "type": "uint256"
        },
        {
          "indexed": false,
          "internalType": "bytes",
          "name": "data",
          "type": "bytes"
        }
      ],
      "name": "CallExecuted",
      "type": "event"
    },
    {
      "anonymous": false,
      "inputs": [
        {
          "indexed": true,
          "internalType": "bytes32",
          "name": "id",
          "type": "bytes32"
        },
        {
          "indexed": true,
          "internalType": "uint256",
          "name": "index",
          "type": "uint256"
        },
        {
          "indexed": false,
          "internalType": "address",
          "name": "target",
          "type": "address"
        },
        {
          "indexed": false,
          "internalType": "uint256",
          "name": "value",
          "type": "uint256"
        },
        {
          "indexed": false,
          "internalType": "bytes",
          "name": "data",
          "type": "bytes"
        },
        {
          "indexed": false,
          "internalType": "bytes32",
          "name": "predecessor",
          "type": "bytes32"
        },
        {
          "indexed": false,
          "internalType": "uint256",
          "name": "delay",
          "type": "uint256"
        }
      ],
      "name": "CallScheduled",
      "type": "event"
    },
    {
      "anonymous": false,
      "inputs": [
        {
          "indexed": true,
          "internalType": "bytes32",
          "name": "id",
          "type": "bytes32"
        }
      ],
      "name": "Cancelled",
      "type": "event"
    },
    {
      "anonymous": false,
      "inputs": [
        {
          "indexed": false,
          "internalType": "uint8",
          "name": "version",
          "type": "uint8"
        }
      ],
      "name": "Initialized",
      "type": "event"
    },
    {
      "anonymous": false,
      "inputs": [
        {
          "indexed": false,
          "internalType": "uint256",
          "name": "oldDuration",
          "type": "uint256"
        },
        {
          "indexed": false,
          "internalType": "uint256",
          "name": "newDuration",
          "type": "uint256"
        }
      ],
      "name": "MinDelayChange",
      "type": "event"
    },
    {
      "anonymous": false,
      "inputs": [
        {
          "indexed": true,
          "internalType": "bytes32",
          "name": "role",
          "type": "bytes32"
        },
        {
          "indexed": true,
          "internalType": "bytes32",
          "name": "previousAdminRole",
          "type": "bytes32"
        },
        {
          "indexed": true,
          "internalType": "bytes32",
          "name": "newAdminRole",
          "type": "bytes32"
        }
      ],
      "name": "RoleAdminChanged",
      "type": "event"
    },
    {
      "anonymous": false,
      "inputs": [
        {
          "indexed": true,
          "internalType": "bytes32",
          "name": "role",
          "type": "bytes32"
        },
        {
          "indexed": true,
          "internalType": "address",
          "name": "account",
          "type": "address"
        },
        {
          "indexed": true,
          "internalType": "address",
          "name": "sender",
          "type": "address"
        }
      ],
      "name": "RoleGranted",
      "type": "event"
    },
    {
      "anonymous": false,
      "inputs": [
        {
          "indexed": true,
          "internalType": "bytes32",
          "name": "role",
          "type": "bytes32"
        },
        {
          "indexed": true,
          "internalType": "address",
          "name": "account",
          "type": "address"
        },
        {
          "indexed": true,
          "internalType": "address",
          "name": "sender",
          "type": "address"
        }
      ],
      "name": "RoleRevoked",
      "type": "event"
    },
    {
      "inputs": [],
      "name": "CANCELLER_ROLE",
      "outputs": [
        {
          "internalType": "bytes32",
          "name": "",
          "type": "bytes32"
        }
      ],
      "stateMutability": "view",
      "type": "function"
    },
    {
      "inputs": [],
      "name": "DEFAULT_ADMIN_ROLE",
      "outputs": [
        {
          "internalType": "bytes32",
          "name": "",
          "type": "bytes32"
        }
      ],
      "stateMutability": "view",
      "type": "function"
    },
    {
      "inputs": [],
      "name": "EXECUTOR_ROLE",
      "outputs": [
        {
          "internalType": "bytes32",
          "name": "",
          "type": "bytes32"
        }
      ],
      "stateMutability": "view",
      "type": "function"
    },
    {
      "inputs": [],
      "name": "PROPOSER_ROLE",
      "outputs": [
        {
          "internalType": "bytes32",
          "name": "",
          "type": "bytes32"
        }
      ],
      "stateMutability": "view",
      "type": "function"
    },
    {
      "inputs": [],
      "name": "TIMELOCK_ADMIN_ROLE",
      "outputs": [
        {
          "internalType": "bytes32",
          "name": "",
          "type": "bytes32"
        }
      ],
      "stateMutability": "view",
      "type": "function"
    },
    {
      "inputs": [
        {
          "internalType": "bytes32",
          "name": "id",
          "type": "bytes32"
        }
      ],
      "name": "cancel",
      "outputs": [],
      "stateMutability": "nonpayable",
      "type": "function"
    },
    {
      "inputs": [
        {
          "internalType": "address",
          "name": "target",
          "type": "address"
        },
        {
          "internalType": "uint256",
          "name": "value",
          "type": "uint256"
        },
        {
          "internalType": "bytes",
          "name": "payload",
          "type": "bytes"
        },
        {
          "internalType": "bytes32",
          "name": "predecessor",
          "type": "bytes32"
        },
        {
          "internalType": "bytes32",
          "name": "salt",
          "type": "bytes32"
        }
      ],
      "name": "execute",
      "outputs": [],
      "stateMutability": "payable",
      "type": "function"
    },
    {
      "inputs": [
        {
          "internalType": "address[]",
          "name": "targets",
          "type": "address[]"
        },
        {
          "internalType": "uint256[]",
          "name": "values",
          "type": "uint256[]"
        },
        {
          "internalType": "bytes[]",
          "name": "payloads",
          "type": "bytes[]"
        },
        {
          "internalType": "bytes32",
          "name": "predecessor",
          "type": "bytes32"
        },
        {
          "internalType": "bytes32",
          "name": "salt",
          "type": "bytes32"
        }
      ],
      "name": "executeBatch",
      "outputs": [],
      "stateMutability": "payable",
      "type": "function"
    },
    {
      "inputs": [],
      "name": "getMinDelay",
      "outputs": [
        {
          "internalType": "uint256",
          "name": "duration",
          "type": "uint256"
        }
      ],
      "stateMutability": "view",
      "type": "function"
    },
    {
      "inputs": [
        {
          "internalType": "bytes32",
          "name": "role",
          "type": "bytes32"
        }
      ],
      "name": "getRoleAdmin",
      "outputs": [
        {
          "internalType": "bytes32",
          "name": "",
          "type": "bytes32"
        }
      ],
      "stateMutability": "view",
      "type": "function"
    },
    {
      "inputs": [
        {
          "internalType": "bytes32",
          "name": "id",
          "type": "bytes32"
        }
      ],
      "name": "getTimestamp",
      "outputs": [
        {
          "internalType": "uint256",
          "name": "timestamp",
          "type": "uint256"
        }
      ],
      "stateMutability": "view",
      "type": "function"
    },
    {
      "inputs": [
        {
          "internalType": "bytes32",
          "name": "role",
          "type": "bytes32"
        },
        {
          "internalType": "address",
          "name": "account",
          "type": "address"
        }
      ],
      "name": "grantRole",
      "outputs": [],
      "stateMutability": "nonpayable",
      "type": "function"
    },
    {
      "inputs": [
        {
          "internalType": "bytes32",
          "name": "role",
          "type": "bytes32"
        },
        {
          "internalType": "address",
          "name": "account",
          "type": "address"
        }
      ],
      "name": "hasRole",
      "outputs": [
        {
          "internalType": "bool",
          "name": "",
          "type": "bool"
        }
      ],
      "stateMutability": "view",
      "type": "function"
    },
    {
      "inputs": [
        {
          "internalType": "address",
          "name": "target",
          "type": "address"
        },
        {
          "internalType": "uint256",
          "name": "value",
          "type": "uint256"
        },
        {
          "internalType": "bytes",
          "name": "data",
          "type": "bytes"
        },
        {
          "internalType": "bytes32",
          "name": "predecessor",
          "type": "bytes32"
        },
        {
          "internalType": "bytes32",
          "name": "salt",
          "type": "bytes32"
        }
      ],
      "name": "hashOperation",
      "outputs": [
        {
          "internalType": "bytes32",
          "name": "hash",
          "type": "bytes32"
        }
      ],
      "stateMutability": "pure",
      "type": "function"
    },
    {
      "inputs": [
        {
          "internalType": "address[]",
          "name": "targets",
          "type": "address[]"
        },
        {
          "internalType": "uint256[]",
          "name": "values",
          "type": "uint256[]"
        },
        {
          "internalType": "bytes[]",
          "name": "payloads",
          "type": "bytes[]"
        },
        {
          "internalType": "bytes32",
          "name": "predecessor",
          "type": "bytes32"
        },
        {
          "internalType": "bytes32",
          "name": "salt",
          "type": "bytes32"
        }
      ],
      "name": "hashOperationBatch",
      "outputs": [
        {
          "internalType": "bytes32",
          "name": "hash",
          "type": "bytes32"
        }
      ],
      "stateMutability": "pure",
      "type": "function"
    },
    {
      "inputs": [
        {
          "internalType": "uint256",
          "name": "minDelay",
          "type": "uint256"
        },
        {
          "internalType": "address[]",
          "name": "proposers",
          "type": "address[]"
        },
        {
          "internalType": "address[]",
          "name": "executors",
          "type": "address[]"
        }
      ],
      "name": "initialize",
      "outputs": [],
      "stateMutability": "nonpayable",
      "type": "function"
    },
    {
      "inputs": [
        {
          "internalType": "bytes32",
          "name": "id",
          "type": "bytes32"
        }
      ],
      "name": "isOperation",
      "outputs": [
        {
          "internalType": "bool",
          "name": "registered",
          "type": "bool"
        }
      ],
      "stateMutability": "view",
      "type": "function"
    },
    {
      "inputs": [
        {
          "internalType": "bytes32",
          "name": "id",
          "type": "bytes32"
        }
      ],
      "name": "isOperationDone",
      "outputs": [
        {
          "internalType": "bool",
          "name": "done",
          "type": "bool"
        }
      ],
      "stateMutability": "view",
      "type": "function"
    },
    {
      "inputs": [
        {
          "internalType": "bytes32",
          "name": "id",
          "type": "bytes32"
        }
      ],
      "name": "isOperationPending",
      "outputs": [
        {
          "internalType": "bool",
          "name": "pending",
          "type": "bool"
        }
      ],
      "stateMutability": "view",
      "type": "function"
    },
    {
      "inputs": [
        {
          "internalType": "bytes32",
          "name": "id",
          "type": "bytes32"
        }
      ],
      "name": "isOperationReady",
      "outputs": [
        {
          "internalType": "bool",
          "name": "ready",
          "type": "bool"
        }
      ],
      "stateMutability": "view",
      "type": "function"
    },
    {
      "inputs": [
        {
          "internalType": "address",
          "name": "",
          "type": "address"
        },
        {
          "internalType": "address",
          "name": "",
          "type": "address"
        },
        {
          "internalType": "uint256[]",
          "name": "",
          "type": "uint256[]"
        },
        {
          "internalType": "uint256[]",
          "name": "",
          "type": "uint256[]"
        },
        {
          "internalType": "bytes",
          "name": "",
          "type": "bytes"
        }
      ],
      "name": "onERC1155BatchReceived",
      "outputs": [
        {
          "internalType": "bytes4",
          "name": "",
          "type": "bytes4"
        }
      ],
      "stateMutability": "nonpayable",
      "type": "function"
    },
    {
      "inputs": [
        {
          "internalType": "address",
          "name": "",
          "type": "address"
        },
        {
          "internalType": "address",
          "name": "",
          "type": "address"
        },
        {
          "internalType": "uint256",
          "name": "",
          "type": "uint256"
        },
        {
          "internalType": "uint256",
          "name": "",
          "type": "uint256"
        },
        {
          "internalType": "bytes",
          "name": "",
          "type": "bytes"
        }
      ],
      "name": "onERC1155Received",
      "outputs": [
        {
          "internalType": "bytes4",
          "name": "",
          "type": "bytes4"
        }
      ],
      "stateMutability": "nonpayable",
      "type": "function"
    },
    {
      "inputs": [
        {
          "internalType": "address",
          "name": "",
          "type": "address"
        },
        {
          "internalType": "address",
          "name": "",
          "type": "address"
        },
        {
          "internalType": "uint256",
          "name": "",
          "type": "uint256"
        },
        {
          "internalType": "bytes",
          "name": "",
          "type": "bytes"
        }
      ],
      "name": "onERC721Received",
      "outputs": [
        {
          "internalType": "bytes4",
          "name": "",
          "type": "bytes4"
        }
      ],
      "stateMutability": "nonpayable",
      "type": "function"
    },
    {
      "inputs": [
        {
          "internalType": "bytes32",
          "name": "role",
          "type": "bytes32"
        },
        {
          "internalType": "address",
          "name": "account",
          "type": "address"
        }
      ],
      "name": "renounceRole",
      "outputs": [],
      "stateMutability": "nonpayable",
      "type": "function"
    },
    {
      "inputs": [
        {
          "internalType": "bytes32",
          "name": "role",
          "type": "bytes32"
        },
        {
          "internalType": "address",
          "name": "account",
          "type": "address"
        }
      ],
      "name": "revokeRole",
      "outputs": [],
      "stateMutability": "nonpayable",
      "type": "function"
    },
    {
      "inputs": [
        {
          "internalType": "address",
          "name": "target",
          "type": "address"
        },
        {
          "internalType": "uint256",
          "name": "value",
          "type": "uint256"
        },
        {
          "internalType": "bytes",
          "name": "data",
          "type": "bytes"
        },
        {
          "internalType": "bytes32",
          "name": "predecessor",
          "type": "bytes32"
        },
        {
          "internalType": "bytes32",
          "name": "salt",
          "type": "bytes32"
        },
        {
          "internalType": "uint256",
          "name": "delay",
          "type": "uint256"
        }
      ],
      "name": "schedule",
      "outputs": [],
      "stateMutability": "nonpayable",
      "type": "function"
    },
    {
      "inputs": [
        {
          "internalType": "address[]",
          "name": "targets",
          "type": "address[]"
        },
        {
          "internalType": "uint256[]",
          "name": "values",
          "type": "uint256[]"
        },
        {
          "internalType": "bytes[]",
          "name": "payloads",
          "type": "bytes[]"
        },
        {
          "internalType": "bytes32",
          "name": "predecessor",
          "type": "bytes32"
        },
        {
          "internalType": "bytes32",
          "name": "salt",
          "type": "bytes32"
        },
        {
          "internalType": "uint256",
          "name": "delay",
          "type": "uint256"
        }
      ],
      "name": "scheduleBatch",
      "outputs": [],
      "stateMutability": "nonpayable",
      "type": "function"
    },
    {
      "inputs": [
        {
          "internalType": "bytes4",
          "name": "interfaceId",
          "type": "bytes4"
        }
      ],
      "name": "supportsInterface",
      "outputs": [
        {
          "internalType": "bool",
          "name": "",
          "type": "bool"
        }
      ],
      "stateMutability": "view",
      "type": "function"
    },
    {
      "inputs": [
        {
          "internalType": "uint256",
          "name": "newDelay",
          "type": "uint256"
        }
      ],
      "name": "updateDelay",
      "outputs": [],
      "stateMutability": "nonpayable",
      "type": "function"
    },
    {
      "stateMutability": "payable",
      "type": "receive"
    }
  ],
  "numDeployments": 3,
  "bytecode": "0x608080604052346100c1576000549060ff8260081c1661006f575060ff80821610610034575b60405161266690816100c78239f35b60ff90811916176000557f7f26b83ff96e1f2b6a682f133852f6798a09c465da95921460cefb3847402498602060405160ff8152a138610025565b62461bcd60e51b815260206004820152602760248201527f496e697469616c697a61626c653a20636f6e747261637420697320696e697469604482015266616c697a696e6760c81b6064820152608490fd5b600080fdfe6080604052600436101561001b575b361561001957600080fd5b005b60003560e01c806301d5062a146115a957806301ffc9a7146114d557806307bd02651461149a5780630d3cf6fc1461145f578063134008d3146113aa57806313bc9f201461138c578063150b7a021461131e578063248a9ca3146112ef5780632ab0f529146112c25780632f2ff15d1461120a57806331d50750146111de57806336568abe1461113f578063584b153e1461110857806364d623531461104c5780637fbc79c6146109625780638065657f146109435780638f2a0bb0146108215780638f61f4f5146107e657806391d1485414610798578063a217fddf1461077c578063b08e51c014610741578063b1c5f42714610717578063bc197c8114610676578063c4d252f514610391578063d45c443514610365578063d547741f14610324578063e38335e5146101f0578063f23a6e61146101825763f27a0c920361000e573461017d57600036600319011261017d576020609854604051908152f35b600080fd5b3461017d5760a036600319011261017d5761019b61164d565b506101a4611663565b5060843567ffffffffffffffff811161017d576101c590369060040161177a565b5060206040517ff23a6e61000000000000000000000000000000000000000000000000000000008152f35b61028461027d6101ff36611870565b600080527f7dc9f88e569f94faad6fa0d44dd44858caf3f34f1bd1c985800aedf5793aad8b6020527fa01e231ca478cf51f663e103939e98de36fa76d3e4e0b1de673dc711acc3a01b5492999198939693919260ff1615610316575b610266858514612197565b6102718a8514612197565b888a888789888d612006565b96876124e1565b60005b818110610297576100198761258d565b8080887fc2617efa69bab66782fa219543714338489c4e9e178271560a91b82c3f612b5888886103096102f08f98610311998f828e6102e38f836102de916102e996612217565b612227565b97612217565b359561223b565b906102fd828287876123b8565b60405194859485612390565b0390a3612208565b610287565b61031f33611b5b565b61025b565b3461017d57604036600319011261017d57610019600435610343611663565b908060005260656020526103606001604060002001543390611cb2565b611dd2565b3461017d57602036600319011261017d5760043560005260976020526020604060002054604051908152f35b3461017d5760208060031936011261017d576004357ffd643c72710c63c0180259aba6b2d05451e3591a24e58b62239378085726f7838060005260658352604060002033600052835260ff60406000205416156104a9575061040181600052609760205260016040600020541190565b1561043f57609760009282845252816040812055604051907fbaa1eb22f2a492ba1a5fea61b8df4d27c6c8b5f3971e63bb58fa14ff72eedb708383a2f35b6084826040519062461bcd60e51b82526004820152603160248201527f54696d656c6f636b436f6e74726f6c6c65723a206f7065726174696f6e20636160448201527f6e6e6f742062652063616e63656c6c65640000000000000000000000000000006064820152fd5b826104b333611e5c565b6040516104bf8161170a565b604281528281019360603686378151156106605760308553815160019081101561066057607860218401536041905b8082116106065750506105c3579061058c60486044949360405196879161057d878401967f416363657373436f6e74726f6c3a206163636f756e74200000000000000000008852610548815180928b603789019101611930565b8401917f206973206d697373696e6720726f6c6520000000000000000000000000000000603784015251809386840190611930565b0103602881018752018561173c565b6105b560405194859362461bcd60e51b8552600485015251809281602486015285850190611930565b601f01601f19168101030190fd5b6064836040519062461bcd60e51b825280600483015260248201527f537472696e67733a20686578206c656e67746820696e73756666696369656e746044820152fd5b9091600f81166010811015610660576f181899199a1a9b1b9c1cb0b131b232b360811b901a6106358486611e4b565b5360041c91801561064a5760001901906104ee565b634e487b7160e01b600052601160045260246000fd5b634e487b7160e01b600052603260045260246000fd5b3461017d5760a036600319011261017d5761068f61164d565b50610698611663565b5067ffffffffffffffff60443581811161017d576106ba9036906004016118d2565b5060643581811161017d576106d39036906004016118d2565b5060843590811161017d576106ec90369060040161177a565b5060206040517fbc197c81000000000000000000000000000000000000000000000000000000008152f35b3461017d57602061073961072a36611870565b96959095949194939293612006565b604051908152f35b3461017d57600036600319011261017d5760206040517ffd643c72710c63c0180259aba6b2d05451e3591a24e58b62239378085726f7838152f35b3461017d57600036600319011261017d57602060405160008152f35b3461017d57604036600319011261017d576107b1611663565b60043560005260656020526001600160a01b0360406000209116600052602052602060ff604060002054166040519015158152f35b3461017d57600036600319011261017d5760206040517fb09aa5aeb3702cfd50b6b62bc4532604938f21248a27a1d5ca736082b6819cc18152f35b3461017d5760c036600319011261017d5767ffffffffffffffff60043581811161017d5761085390369060040161183f565b919060243582811161017d5761086d90369060040161183f565b91909260443590811161017d5761088890369060040161183f565b906064359460a4359361089a33611953565b6108a5868914612197565b6108b0848914612197565b6108c26084358886868a878e88612006565b946108cd818761227d565b60005b8981106108d957005b8080887f4cf4410cc57040e44862ef0f45f3dd5a5e02db8eb8add648d4b0e236f1d07dca88888f8f8f906109318f9a61093e9b61092a8f8f966109246102de866103099b8195612217565b99612217565b359761223b565b906040519687968761215e565b6108d0565b3461017d576020610739610956366116bb565b94939093929192611fb0565b3461017d57606036600319011261017d5767ffffffffffffffff60243581811161017d576109949036906004016117d9565b9060443590811161017d576109ad9036906004016117d9565b906000549060ff8260081c16159182809361103f575b8015611028575b15610fbe5760ff19811660011760005582610fac575b506109fb60ff60005460081c166109f6816125ab565b6125ab565b7f5f58e3a2316349923ce3780f8d587db2d72378aed66a8261c916544fa6846ca5908160005260659182602052600160406000200154816001604060002001558160405191817fbd79b86ffe0ab8e8776151514217cd7cacd52c909f66475c3af44e129f0b00ff918183600087a47fb09aa5aeb3702cfd50b6b62bc4532604938f21248a27a1d5ca736082b6819cc160005281600160406000200154816001604060002001557fb09aa5aeb3702cfd50b6b62bc4532604938f21248a27a1d5ca736082b6819cc183600087a47fd8aa0f3194971a2a116679f7c2090f6939c8d4e01a2a8d7e41d55e5351469e6360005281600160406000200154816001604060002001557fd8aa0f3194971a2a116679f7c2090f6939c8d4e01a2a8d7e41d55e5351469e6383600087a47ffd643c72710c63c0180259aba6b2d05451e3591a24e58b62239378085726f783600081815260408120600101805490859055929085a48160005260406000203360005260205260ff6040600020541615610f5b575b816000528360205260406000203060005260205260ff6040600020541615610f08575b505060005b8151811015610d8b57610c5e906001600160a01b0380610bc3838661261c565b51167fb09aa5aeb3702cfd50b6b62bc4532604938f21248a27a1d5ca736082b6819cc16000528560205260406000208160005260205260ff6040600020541615610cf7575b50610c13828561261c565b51167ffd643c72710c63c0180259aba6b2d05451e3591a24e58b62239378085726f7836000528460205260406000208160005260205260ff6040600020541615610c63575b50612208565b610ba3565b7ffd643c72710c63c0180259aba6b2d05451e3591a24e58b62239378085726f783600052846020526040600020816000526020526040600020600160ff1982541617905533907ffd643c72710c63c0180259aba6b2d05451e3591a24e58b62239378085726f7837f2f8788117e7eff1d82e926ec794901d17c78024a50270940304540a733656f0d6000604051a486610c58565b7fb09aa5aeb3702cfd50b6b62bc4532604938f21248a27a1d5ca736082b6819cc1600052856020526040600020816000526020526040600020600160ff1982541617905533907fb09aa5aeb3702cfd50b6b62bc4532604938f21248a27a1d5ca736082b6819cc17f2f8788117e7eff1d82e926ec794901d17c78024a50270940304540a733656f0d6000604051a487610c08565b505060005b8351811015610e9257806001600160a01b03610daf610df9938761261c565b51167fd8aa0f3194971a2a116679f7c2090f6939c8d4e01a2a8d7e41d55e5351469e636000528360205260406000208160005260205260ff6040600020541615610dfe5750612208565b610d90565b7fd8aa0f3194971a2a116679f7c2090f6939c8d4e01a2a8d7e41d55e5351469e63600052836020526040600020816000526020526040600020600160ff1982541617905533907fd8aa0f3194971a2a116679f7c2090f6939c8d4e01a2a8d7e41d55e5351469e637f2f8788117e7eff1d82e926ec794901d17c78024a50270940304540a733656f0d6000604051a485610c58565b827f11c24f4ead16507c69ac467fbd5e4eed5fb5c699626d2cc6d66421df253886d5604060043580609855815190600082526020820152a1610ed057005b61ff0019600054166000557f7f26b83ff96e1f2b6a682f133852f6798a09c465da95921460cefb3847402498602060405160018152a1005b81600052836020526040600020306000526020526040600020600160ff1982541617905533917f2f8788117e7eff1d82e926ec794901d17c78024a50270940304540a733656f0d60003093a48480610b9e565b81600052836020526040600020336000526020526040600020600160ff198254161790553333837f2f8788117e7eff1d82e926ec794901d17c78024a50270940304540a733656f0d600085a4610b7b565b61ffff191661010117600055836109e0565b608460405162461bcd60e51b815260206004820152602e60248201527f496e697469616c697a61626c653a20636f6e747261637420697320616c72656160448201527f647920696e697469616c697a65640000000000000000000000000000000000006064820152fd5b50303b1580156109ca5750600160ff8216146109ca565b50600160ff8216106109c3565b3461017d57602036600319011261017d5760043530330361109e577f11c24f4ead16507c69ac467fbd5e4eed5fb5c699626d2cc6d66421df253886d560406098548151908152836020820152a1609855005b608460405162461bcd60e51b815260206004820152602b60248201527f54696d656c6f636b436f6e74726f6c6c65723a2063616c6c6572206d7573742060448201527f62652074696d656c6f636b0000000000000000000000000000000000000000006064820152fd5b3461017d57602036600319011261017d576020611135600435600052609760205260016040600020541190565b6040519015158152f35b3461017d57604036600319011261017d57611158611663565b336001600160a01b038216036111745761001990600435611dd2565b608460405162461bcd60e51b815260206004820152602f60248201527f416363657373436f6e74726f6c3a2063616e206f6e6c792072656e6f756e636560448201527f20726f6c657320666f722073656c6600000000000000000000000000000000006064820152fd5b3461017d57602036600319011261017d5760206111356004356000526097602052604060002054151590565b3461017d57604036600319011261017d57600435611226611663565b8160005260656020526112426001604060002001543390611cb2565b8160005260656020526001600160a01b0360406000209116908160005260205260ff604060002054161561127257005b8160005260656020526040600020816000526020526040600020600160ff1982541617905533917f2f8788117e7eff1d82e926ec794901d17c78024a50270940304540a733656f0d6000604051a4005b3461017d57602036600319011261017d576020611135600435600052609760205260016040600020541490565b3461017d57602036600319011261017d5760043560005260656020526020600160406000200154604051908152f35b3461017d57608036600319011261017d5761133761164d565b50611340611663565b5060643567ffffffffffffffff811161017d5761136190369060040161177a565b5060206040517f150b7a02000000000000000000000000000000000000000000000000000000008152f35b3461017d57602036600319011261017d576020611135600435611f6b565b61001961143d60006114497fc2617efa69bab66782fa219543714338489c4e9e178271560a91b82c3f612b586114346113e2366116bb565b7fd8aa0f3194971a2a116679f7c2090f6939c8d4e01a2a8d7e41d55e5351469e638a999597929994939452606560205260408a208a805260205260ff60408b20541615611451575b8884848989611fb0565b988997886124e1565b6102fd828287876123b8565b0390a361258d565b61145a33611b5b565b61142a565b3461017d57600036600319011261017d5760206040517f5f58e3a2316349923ce3780f8d587db2d72378aed66a8261c916544fa6846ca58152f35b3461017d57600036600319011261017d5760206040517fd8aa0f3194971a2a116679f7c2090f6939c8d4e01a2a8d7e41d55e5351469e638152f35b3461017d57602036600319011261017d576004357fffffffff00000000000000000000000000000000000000000000000000000000811680910361017d57807f4e2312e0000000000000000000000000000000000000000000000000000000006020921490811561154c575b506040519015158152f35b7f7965db0b0000000000000000000000000000000000000000000000000000000081149150811561157f575b5082611541565b7f01ffc9a70000000000000000000000000000000000000000000000000000000091501482611578565b3461017d5760c036600319011261017d576115c261164d565b6024359060443567ffffffffffffffff811161017d576000926116489261160e7f4cf4410cc57040e44862ef0f45f3dd5a5e02db8eb8add648d4b0e236f1d07dca93369060040161168d565b60649591953560a4359161162133611953565b61163160843583838b8a8a611fb0565b9761163c848a61227d565b6040519687968761215e565b0390a3005b600435906001600160a01b038216820361017d57565b602435906001600160a01b038216820361017d57565b35906001600160a01b038216820361017d57565b9181601f8401121561017d5782359167ffffffffffffffff831161017d576020838186019501011161017d57565b60a060031982011261017d576004356001600160a01b038116810361017d5791602435916044359067ffffffffffffffff821161017d576116fe9160040161168d565b90916064359060843590565b6080810190811067ffffffffffffffff82111761172657604052565b634e487b7160e01b600052604160045260246000fd5b90601f8019910116810190811067ffffffffffffffff82111761172657604052565b67ffffffffffffffff811161172657601f01601f191660200190565b81601f8201121561017d578035906117918261175e565b9261179f604051948561173c565b8284526020838301011161017d57816000926020809301838601378301015290565b67ffffffffffffffff81116117265760051b60200190565b81601f8201121561017d578035916117f0836117c1565b926117fe604051948561173c565b808452602092838086019260051b82010192831161017d578301905b828210611828575050505090565b83809161183484611679565b81520191019061181a565b9181601f8401121561017d5782359167ffffffffffffffff831161017d576020808501948460051b01011161017d57565b9060a060031983011261017d5767ffffffffffffffff60043581811161017d578361189d9160040161183f565b9390939260243583811161017d57826118b89160040161183f565b9390939260443591821161017d576116fe9160040161183f565b81601f8201121561017d578035916118e9836117c1565b926118f7604051948561173c565b808452602092838086019260051b82010192831161017d578301905b828210611921575050505090565b81358152908301908301611913565b60005b8381106119435750506000910152565b8181015183820152602001611933565b6001600160a01b031660008181527fafe71ff1fe81c59ca16af21c02420893e650adae4948ece1623218f842885477602090815260408083205490937fb09aa5aeb3702cfd50b6b62bc4532604938f21248a27a1d5ca736082b6819cc19160ff16156119c0575050505050565b6119c990611e5c565b908451906119d68261170a565b60428252838201946060368737825115611b475760308653825190600191821015611b475790607860218501536041915b818311611ad957505050611a975784611a7360486105b5936044979851988991611a64898401987f416363657373436f6e74726f6c3a206163636f756e74200000000000000000008a52610548815180928d603789019101611930565b0103602881018952018761173c565b5194859362461bcd60e51b8552600485015251809281602486015285850190611930565b60648386519062461bcd60e51b825280600483015260248201527f537472696e67733a20686578206c656e67746820696e73756666696369656e746044820152fd5b909192600f81166010811015611b33576f181899199a1a9b1b9c1cb0b131b232b360811b901a611b098587611e4b565b5360041c928015611b1f57600019019190611a07565b602482634e487b7160e01b81526011600452fd5b602483634e487b7160e01b81526032600452fd5b80634e487b7160e01b602492526032600452fd5b6001600160a01b031660008181527f7dc9f88e569f94faad6fa0d44dd44858caf3f34f1bd1c985800aedf5793aad8b602090815260408083205490937fd8aa0f3194971a2a116679f7c2090f6939c8d4e01a2a8d7e41d55e5351469e639160ff1615611bc8575050505050565b611bd190611e5c565b90845190611bde8261170a565b60428252838201946060368737825115611b475760308653825190600191821015611b475790607860218501536041915b818311611c6c57505050611a975784611a7360486105b5936044979851988991611a64898401987f416363657373436f6e74726f6c3a206163636f756e74200000000000000000008a52610548815180928d603789019101611930565b909192600f81166010811015611b33576f181899199a1a9b1b9c1cb0b131b232b360811b901a611c9c8587611e4b565b5360041c928015611b1f57600019019190611c0f565b600090808252602090606582526040936001600160a01b03858520911690818552835260ff858520541615611ce8575050505050565b611cf190611e5c565b90845190611cfe8261170a565b60428252838201946060368737825115611b475760308653825190600191821015611b475790607860218501536041915b818311611d8c57505050611a975784611a7360486105b5936044979851988991611a64898401987f416363657373436f6e74726f6c3a206163636f756e74200000000000000000008a52610548815180928d603789019101611930565b909192600f81166010811015611b33576f181899199a1a9b1b9c1cb0b131b232b360811b901a611dbc8587611e4b565b5360041c928015611b1f57600019019190611d2f565b9060009180835260656020526001600160a01b036040842092169182845260205260ff604084205416611e0457505050565b8083526065602052604083208284526020526040832060ff1981541690557ff6391f5c32d9c69d2a47ea670b442974b53935d1edc7fd64eb21e047a839171b3393604051a4565b908151811015610660570160200190565b604051906060820182811067ffffffffffffffff82111761172657604052602a82526020820160403682378251156106605760309053815160019081101561066057607860218401536029905b808211611efd575050611eb95790565b606460405162461bcd60e51b815260206004820152602060248201527f537472696e67733a20686578206c656e67746820696e73756666696369656e746044820152fd5b9091600f81166010811015611f56576f181899199a1a9b1b9c1cb0b131b232b360811b901a611f2c8486611e4b565b5360041c918015611f41576000190190611ea9565b60246000634e487b7160e01b81526011600452fd5b60246000634e487b7160e01b81526032600452fd5b6000526097602052604060002054600181119081611f87575090565b905042101590565b908060209392818452848401376000828201840152601f01601f1916010190565b94611fe7612000949592936040519687956001600160a01b03602088019a168a52604087015260a0606087015260c0860191611f8f565b91608084015260a083015203601f19810183528261173c565b51902090565b969294909695919560405196602091828901998060c08b0160a08d525260e08a01919060005b858282106121385750505050601f1997888a83030160408b01528082527f07ffffffffffffffffffffffffffffffffffffffffffffffffffffffffffffff811161017d579089969495939897929160051b80928a830137019380888601878703606089015252604085019460408260051b82010195836000925b8484106120ce575050505050506120009550608084015260a08301520390810183528261173c565b9193969850919398999496603f198282030184528935601e198436030181121561017d57830186810191903567ffffffffffffffff811161017d57803603831361017d5761212188928392600195611f8f565b9b0194019401918b98969394919a9997959a6120a6565b8084956001600160a01b036121506001959697611679565b16815201940192910161202c565b92909361218d926001600160a01b0360809699989799168552602085015260a0604085015260a0840191611f8f565b9460608201520152565b1561219e57565b608460405162461bcd60e51b815260206004820152602360248201527f54696d656c6f636b436f6e74726f6c6c65723a206c656e677468206d69736d6160448201527f74636800000000000000000000000000000000000000000000000000000000006064820152fd5b600019811461064a5760010190565b91908110156106605760051b0190565b356001600160a01b038116810361017d5790565b91908110156106605760051b81013590601e198136030182121561017d57019081359167ffffffffffffffff831161017d57602001823603811361017d579190565b90612295826000526097602052604060002054151590565b6123265760985481106122bc5742019081421161064a576000526097602052604060002055565b608460405162461bcd60e51b815260206004820152602660248201527f54696d656c6f636b436f6e74726f6c6c65723a20696e73756666696369656e7460448201527f2064656c617900000000000000000000000000000000000000000000000000006064820152fd5b608460405162461bcd60e51b815260206004820152602f60248201527f54696d656c6f636b436f6e74726f6c6c65723a206f7065726174696f6e20616c60448201527f7265616479207363686564756c656400000000000000000000000000000000006064820152fd5b6123b594926001600160a01b0360609316825260208201528160408201520191611f8f565b90565b90926000938493826040519384928337810185815203925af13d1561246b573d6123e18161175e565b906123ef604051928361173c565b8152600060203d92013e5b1561240157565b608460405162461bcd60e51b815260206004820152603360248201527f54696d656c6f636b436f6e74726f6c6c65723a20756e6465726c79696e67207460448201527f72616e73616374696f6e207265766572746564000000000000000000000000006064820152fd5b6123fa565b1561247757565b608460405162461bcd60e51b815260206004820152602a60248201527f54696d656c6f636b436f6e74726f6c6c65723a206f7065726174696f6e20697360448201527f206e6f74207265616479000000000000000000000000000000000000000000006064820152fd5b6124ed6124f291611f6b565b612470565b801590811561256e575b501561250457565b608460405162461bcd60e51b815260206004820152602660248201527f54696d656c6f636b436f6e74726f6c6c65723a206d697373696e67206465706560448201527f6e64656e637900000000000000000000000000000000000000000000000000006064820152fd5b6125879150600052609760205260016040600020541490565b386124fc565b6125996124ed82611f6b565b60005260976020526001604060002055565b156125b257565b608460405162461bcd60e51b815260206004820152602b60248201527f496e697469616c697a61626c653a20636f6e7472616374206973206e6f74206960448201527f6e697469616c697a696e670000000000000000000000000000000000000000006064820152fd5b80518210156106605760209160051b01019056fea2646970667358221220cce50e56c866fb061c30eb8f9dd60d145b5e801b09f8ea20e10d0639dc1ce7f164736f6c63430008100033"
}