{
  "address": "0x720472c8ce72c2A2D711333e064ABD3E6BbEAdd3",
  "abi": [
    {
      "inputs": [],
      "stateMutability": "nonpayable",
      "type": "constructor"
    },
    {
      "anonymous": false,
      "inputs": [
        {
          "indexed": true,
          "internalType": "address",
          "name": "owner",
          "type": "address"
        },
        {
          "indexed": true,
          "internalType": "address",
          "name": "approved",
          "type": "address"
        },
        {
          "indexed": true,
          "internalType": "uint256",
          "name": "tokenId",
          "type": "uint256"
        }
      ],
      "name": "Approval",
      "type": "event"
    },
    {
      "anonymous": false,
      "inputs": [
        {
          "indexed": true,
          "internalType": "address",
          "name": "owner",
          "type": "address"
        },
        {
          "indexed": true,
          "internalType": "address",
          "name": "operator",
          "type": "address"
        },
        {
          "indexed": false,
          "internalType": "bool",
          "name": "approved",
          "type": "bool"
        }
      ],
      "name": "ApprovalForAll",
      "type": "event"
    },
    {
      "anonymous": false,
      "inputs": [
        {
          "indexed": true,
          "internalType": "address",
          "name": "delegator",
          "type": "address"
        },
        {
          "indexed": true,
          "internalType": "address",
          "name": "fromDelegate",
          "type": "address"
        },
        {
          "indexed": true,
          "internalType": "address",
          "name": "toDelegate",
          "type": "address"
        }
      ],
      "name": "DelegateChanged",
      "type": "event"
    },
    {
      "anonymous": false,
      "inputs": [
        {
          "indexed": true,
          "internalType": "address",
          "name": "delegate",
          "type": "address"
        },
        {
          "indexed": false,
          "internalType": "uint256",
          "name": "previousBalance",
          "type": "uint256"
        },
        {
          "indexed": false,
          "internalType": "uint256",
          "name": "newBalance",
          "type": "uint256"
        }
      ],
      "name": "DelegateVotesChanged",
      "type": "event"
    },
    {
      "anonymous": false,
      "inputs": [
        {
          "indexed": false,
          "internalType": "uint8",
          "name": "version",
          "type": "uint8"
        }
      ],
      "name": "Initialized",
      "type": "event"
    },
    {
      "anonymous": false,
      "inputs": [
        {
          "indexed": true,
          "internalType": "address",
          "name": "previousOwner",
          "type": "address"
        },
        {
          "indexed": true,
          "internalType": "address",
          "name": "newOwner",
          "type": "address"
        }
      ],
      "name": "OwnershipTransferred",
      "type": "event"
    },
    {
      "anonymous": false,
      "inputs": [
        {
          "indexed": false,
          "internalType": "address",
          "name": "account",
          "type": "address"
        }
      ],
      "name": "Paused",
      "type": "event"
    },
    {
      "anonymous": false,
      "inputs": [
        {
          "indexed": true,
          "internalType": "address",
          "name": "from",
          "type": "address"
        },
        {
          "indexed": true,
          "internalType": "address",
          "name": "to",
          "type": "address"
        },
        {
          "indexed": true,
          "internalType": "uint256",
          "name": "tokenId",
          "type": "uint256"
        }
      ],
      "name": "Transfer",
      "type": "event"
    },
    {
      "anonymous": false,
      "inputs": [
        {
          "indexed": false,
          "internalType": "address",
          "name": "account",
          "type": "address"
        }
      ],
      "name": "Unpaused",
      "type": "event"
    },
    {
      "inputs": [],
      "name": "DOMAIN_SEPARATOR",
      "outputs": [
        {
          "internalType": "bytes32",
          "name": "",
          "type": "bytes32"
        }
      ],
      "stateMutability": "view",
      "type": "function"
    },
    {
      "inputs": [
        {
          "internalType": "address",
          "name": "to",
          "type": "address"
        },
        {
          "internalType": "uint256",
          "name": "tokenId",
          "type": "uint256"
        }
      ],
      "name": "approve",
      "outputs": [],
      "stateMutability": "nonpayable",
      "type": "function"
    },
    {
      "inputs": [
        {
          "internalType": "address",
          "name": "owner",
          "type": "address"
        }
      ],
      "name": "balanceOf",
      "outputs": [
        {
          "internalType": "uint256",
          "name": "",
          "type": "uint256"
        }
      ],
      "stateMutability": "view",
      "type": "function"
    },
    {
      "inputs": [
        {
          "internalType": "address",
          "name": "delegatee",
          "type": "address"
        }
      ],
      "name": "delegate",
      "outputs": [],
      "stateMutability": "nonpayable",
      "type": "function"
    },
    {
      "inputs": [
        {
          "internalType": "address",
          "name": "delegatee",
          "type": "address"
        },
        {
          "internalType": "uint256",
          "name": "nonce",
          "type": "uint256"
        },
        {
          "internalType": "uint256",
          "name": "expiry",
          "type": "uint256"
        },
        {
          "internalType": "uint8",
          "name": "v",
          "type": "uint8"
        },
        {
          "internalType": "bytes32",
          "name": "r",
          "type": "bytes32"
        },
        {
          "internalType": "bytes32",
          "name": "s",
          "type": "bytes32"
        }
      ],
      "name": "delegateBySig",
      "outputs": [],
      "stateMutability": "nonpayable",
      "type": "function"
    },
    {
      "inputs": [
        {
          "internalType": "address",
          "name": "account",
          "type": "address"
        }
      ],
      "name": "delegates",
      "outputs": [
        {
          "internalType": "address",
          "name": "",
          "type": "address"
        }
      ],
      "stateMutability": "view",
      "type": "function"
    },
    {
      "inputs": [
        {
          "internalType": "uint256",
          "name": "tokenId",
          "type": "uint256"
        }
      ],
      "name": "getApproved",
      "outputs": [
        {
          "internalType": "address",
          "name": "",
          "type": "address"
        }
      ],
      "stateMutability": "view",
      "type": "function"
    },
    {
      "inputs": [
        {
          "internalType": "uint256",
          "name": "blockNumber",
          "type": "uint256"
        }
      ],
      "name": "getPastTotalSupply",
      "outputs": [
        {
          "internalType": "uint256",
          "name": "",
          "type": "uint256"
        }
      ],
      "stateMutability": "view",
      "type": "function"
    },
    {
      "inputs": [
        {
          "internalType": "address",
          "name": "account",
          "type": "address"
        },
        {
          "internalType": "uint256",
          "name": "blockNumber",
          "type": "uint256"
        }
      ],
      "name": "getPastVotes",
      "outputs": [
        {
          "internalType": "uint256",
          "name": "",
          "type": "uint256"
        }
      ],
      "stateMutability": "view",
      "type": "function"
    },
    {
      "inputs": [
        {
          "internalType": "address",
          "name": "account",
          "type": "address"
        }
      ],
      "name": "getVotes",
      "outputs": [
        {
          "internalType": "uint256",
          "name": "",
          "type": "uint256"
        }
      ],
      "stateMutability": "view",
      "type": "function"
    },
    {
      "inputs": [],
      "name": "initialize",
      "outputs": [],
      "stateMutability": "nonpayable",
      "type": "function"
    },
    {
      "inputs": [
        {
          "internalType": "address",
          "name": "owner",
          "type": "address"
        },
        {
          "internalType": "address",
          "name": "operator",
          "type": "address"
        }
      ],
      "name": "isApprovedForAll",
      "outputs": [
        {
          "internalType": "bool",
          "name": "",
          "type": "bool"
        }
      ],
      "stateMutability": "view",
      "type": "function"
    },
    {
      "inputs": [],
      "name": "name",
      "outputs": [
        {
          "internalType": "string",
          "name": "",
          "type": "string"
        }
      ],
      "stateMutability": "view",
      "type": "function"
    },
    {
      "inputs": [
        {
          "internalType": "address",
          "name": "owner",
          "type": "address"
        }
      ],
      "name": "nonces",
      "outputs": [
        {
          "internalType": "uint256",
          "name": "",
          "type": "uint256"
        }
      ],
      "stateMutability": "view",
      "type": "function"
    },
    {
      "inputs": [],
      "name": "owner",
      "outputs": [
        {
          "internalType": "address",
          "name": "",
          "type": "address"
        }
      ],
      "stateMutability": "view",
      "type": "function"
    },
    {
      "inputs": [
        {
          "internalType": "uint256",
          "name": "tokenId",
          "type": "uint256"
        }
      ],
      "name": "ownerOf",
      "outputs": [
        {
          "internalType": "address",
          "name": "",
          "type": "address"
        }
      ],
      "stateMutability": "view",
      "type": "function"
    },
    {
      "inputs": [],
      "name": "pause",
      "outputs": [],
      "stateMutability": "nonpayable",
      "type": "function"
    },
    {
      "inputs": [],
      "name": "paused",
      "outputs": [
        {
          "internalType": "bool",
          "name": "",
          "type": "bool"
        }
      ],
      "stateMutability": "view",
      "type": "function"
    },
    {
      "inputs": [],
      "name": "renounceOwnership",
      "outputs": [],
      "stateMutability": "nonpayable",
      "type": "function"
    },
    {
      "inputs": [
        {
          "internalType": "address",
          "name": "to",
          "type": "address"
        }
      ],
      "name": "safeMint",
      "outputs": [],
      "stateMutability": "nonpayable",
      "type": "function"
    },
    {
      "inputs": [
        {
          "internalType": "address",
          "name": "from",
          "type": "address"
        },
        {
          "internalType": "address",
          "name": "to",
          "type": "address"
        },
        {
          "internalType": "uint256",
          "name": "tokenId",
          "type": "uint256"
        }
      ],
      "name": "safeTransferFrom",
      "outputs": [],
      "stateMutability": "nonpayable",
      "type": "function"
    },
    {
      "inputs": [
        {
          "internalType": "address",
          "name": "from",
          "type": "address"
        },
        {
          "internalType": "address",
          "name": "to",
          "type": "address"
        },
        {
          "internalType": "uint256",
          "name": "tokenId",
          "type": "uint256"
        },
        {
          "internalType": "bytes",
          "name": "data",
          "type": "bytes"
        }
      ],
      "name": "safeTransferFrom",
      "outputs": [],
      "stateMutability": "nonpayable",
      "type": "function"
    },
    {
      "inputs": [
        {
          "internalType": "address",
          "name": "operator",
          "type": "address"
        },
        {
          "internalType": "bool",
          "name": "approved",
          "type": "bool"
        }
      ],
      "name": "setApprovalForAll",
      "outputs": [],
      "stateMutability": "nonpayable",
      "type": "function"
    },
    {
      "inputs": [
        {
          "internalType": "bytes4",
          "name": "interfaceId",
          "type": "bytes4"
        }
      ],
      "name": "supportsInterface",
      "outputs": [
        {
          "internalType": "bool",
          "name": "",
          "type": "bool"
        }
      ],
      "stateMutability": "view",
      "type": "function"
    },
    {
      "inputs": [],
      "name": "symbol",
      "outputs": [
        {
          "internalType": "string",
          "name": "",
          "type": "string"
        }
      ],
      "stateMutability": "view",
      "type": "function"
    },
    {
      "inputs": [
        {
          "internalType": "uint256",
          "name": "index",
          "type": "uint256"
        }
      ],
      "name": "tokenByIndex",
      "outputs": [
        {
          "internalType": "uint256",
          "name": "",
          "type": "uint256"
        }
      ],
      "stateMutability": "view",
      "type": "function"
    },
    {
      "inputs": [
        {
          "internalType": "address",
          "name": "owner",
          "type": "address"
        },
        {
          "internalType": "uint256",
          "name": "index",
          "type": "uint256"
        }
      ],
      "name": "tokenOfOwnerByIndex",
      "outputs": [
        {
          "internalType": "uint256",
          "name": "",
          "type": "uint256"
        }
      ],
      "stateMutability": "view",
      "type": "function"
    },
    {
      "inputs": [
        {
          "internalType": "uint256",
          "name": "tokenId",
          "type": "uint256"
        }
      ],
      "name": "tokenURI",
      "outputs": [
        {
          "internalType": "string",
          "name": "",
          "type": "string"
        }
      ],
      "stateMutability": "view",
      "type": "function"
    },
    {
      "inputs": [],
      "name": "totalSupply",
      "outputs": [
        {
          "internalType": "uint256",
          "name": "",
          "type": "uint256"
        }
      ],
      "stateMutability": "view",
      "type": "function"
    },
    {
      "inputs": [
        {
          "internalType": "address",
          "name": "from",
          "type": "address"
        },
        {
          "internalType": "address",
          "name": "to",
          "type": "address"
        },
        {
          "internalType": "uint256",
          "name": "tokenId",
          "type": "uint256"
        }
      ],
      "name": "transferFrom",
      "outputs": [],
      "stateMutability": "nonpayable",
      "type": "function"
    },
    {
      "inputs": [
        {
          "internalType": "address",
          "name": "newOwner",
          "type": "address"
        }
      ],
      "name": "transferOwnership",
      "outputs": [],
      "stateMutability": "nonpayable",
      "type": "function"
    },
    {
      "inputs": [],
      "name": "unpause",
      "outputs": [],
      "stateMutability": "nonpayable",
      "type": "function"
    }
  ],
  "numDeployments": 3,
  "bytecode": "0x608080604052346100c2576000549060ff8260081c16610070575060ff80821610610035575b6040516131b19081620000c88239f35b60ff90811916176000557f7f26b83ff96e1f2b6a682f133852f6798a09c465da95921460cefb3847402498602060405160ff8152a138610025565b62461bcd60e51b815260206004820152602760248201527f496e697469616c697a61626c653a20636f6e747261637420697320696e697469604482015266616c697a696e6760c81b6064820152608490fd5b600080fdfe608080604052600436101561001357600080fd5b60003560e01c90816301ffc9a7146118065750806306fdde0314611760578063081812fc14611742578063095ea7b3146115a957806318160ddd1461158b57806323b872dd146115675780632f745c59146114a35780633644e515146114885780633a46b1a81461135b5780633f4ba83a146112bf57806340d097c31461107757806342842e0e146110315780634f6ccce714610f90578063587cde1e14610f545780635c19a95c14610f325780635c975abb14610f0f5780636352211e14610ee057806370a0823114610ebd578063715018a614610e5d5780637ecebe0014610e225780638129fc1c146109125780638456cb59146108b85780638da5cb5b146108915780638e539e8c1461077257806395d89b41146106905780639ab24eb01461064e578063a22cb4651461057d578063b88d4fde146104cf578063c3cda520146102f5578063c87b56dd14610280578063e985e9c5146102295763f2fde38b1461017f57600080fd5b3461022457602036600319011261022457610198611976565b6101a0611a4d565b6001600160a01b038116156101ba576101b890611aa5565b005b608460405162461bcd60e51b815260206004820152602660248201527f4f776e61626c653a206e6577206f776e657220697320746865207a65726f206160448201527f64647265737300000000000000000000000000000000000000000000000000006064820152fd5b600080fd5b3461022457604036600319011261022457610242611976565b61024a61198c565b906001600160a01b03809116600052606a60205260406000209116600052602052602060ff604060002054166040519015158152f35b34610224576020366003190112610224576102bb6102b660043560005260676020526001600160a01b0360406000205416151590565b6123c1565b60006040516102c9816119f3565b526102f16040516102d9816119f3565b60008152604051918291602083526020830190611936565b0390f35b346102245760c03660031901126102245761030e611976565b6064359060243560443560ff841684036102245780421161048b57604051602081017fe48329057bfd03d55e49b547132e39cffd9c1820ad7b9d4c5307691425d15adf81526001600160a01b0392838616604084015284606084015260808301526080825260a082019167ffffffffffffffff92818110848211176104755760405251902061039b612f95565b906040519060208201927f19010000000000000000000000000000000000000000000000000000000000008452602283015260428201526042815260808101928184109084111761047557610409966104019360405260a4359260843592519020612ee0565b949094612d72565b831660005261016460205260406000209081549160018301905503610431576101b891611aef565b606460405162461bcd60e51b815260206004820152601460248201527f566f7465733a20696e76616c6964206e6f6e63650000000000000000000000006044820152fd5b634e487b7160e01b600052604160045260246000fd5b606460405162461bcd60e51b815260206004820152601860248201527f566f7465733a207369676e6174757265206578706972656400000000000000006044820152fd5b34610224576080366003190112610224576104e8611976565b6104f061198c565b906064359060443567ffffffffffffffff831161022457366023840112156102245782600401359361052185611a31565b9261052f6040519485611a0f565b85845236602487870101116102245760006020876101b898602461057899018389013786010152610568610563843361258b565b6124a8565b6105738383836125f9565b612af1565b612519565b3461022457604036600319011261022457610596611976565b60243590811515809203610224576001600160a01b03169081331461060a5733600052606a602052604060002082600052602052604060002060ff1981541660ff83161790556040519081527f17307eab39ab6107e8899845ad3d59bd9653f200f220920489ca2b5937696c3160203392a3005b606460405162461bcd60e51b815260206004820152601960248201527f4552433732313a20617070726f766520746f2063616c6c6572000000000000006044820152fd5b34610224576020366003190112610224576001600160a01b0361066f611976565b1660005261016260205260206106886040600020612c2d565b604051908152f35b346102245760003660031901126102245760405160006066546106b281612431565b8084529060019081811690811561074b57506001146106f0575b6102f1846106dc81860382611a0f565b604051918291602083526020830190611936565b6066600090815292507f46501879b8ca8525e8c2fd519e2fbfcfa2ebea26501294aa02cbfcfb12e943545b8284106107335750505081016020016106dc826106cc565b8054602085870181019190915290930192810161071b565b60ff191660208087019190915292151560051b850190920192506106dc91508390506106cc565b34610224576020366003190112610224576004354381101561084d57610163549060005b8281106107f05782806107ba5750602060005b6001600160e01b0360405191168152f35b60001981019081116107da576107d1602091612ba4565b5054811c6107a9565b634e487b7160e01b600052601160045260246000fd5b9091600190610805818418831c82851661232a565b918463ffffffff61081585612ba4565b505416111561082a575050905b919091610796565b90925081018091111561082257634e487b7160e01b600052601160045260246000fd5b606460405162461bcd60e51b815260206004820152601a60248201527f566f7465733a20626c6f636b206e6f7420796574206d696e65640000000000006044820152fd5b346102245760003660031901126102245760206001600160a01b0360fb5416604051908152f35b34610224576000366003190112610224576108d1611a4d565b6108d961312b565b600160ff1960c954161760c9557f62e78cea01bee320cd4e420270b5ea74000d11b0c9f74754ebdbfc544b05a2586020604051338152a1005b346102245760003660031901126102245760005460ff8160081c1615808091610e15575b8015610dfe575b15610d945760ff198281166001176000559181610d82575b5061095e613081565b9160405161096b816119d7565b600381527f544b32000000000000000000000000000000000000000000000000000000000060208201526109af60ff60005460081c166109aa816130ba565b6130ba565b835167ffffffffffffffff8111610475576109cb606554612431565b601f8111610cdf575b50602094601f8211600114610c5b57948192939495600092610c50575b50508160011b916000199060031b1c1916176065555b80519067ffffffffffffffff821161047557610a24606654612431565b601f8111610beb575b50602090601f8311600114610b6157610a9693929160009183610b56575b50508160011b916000199060031b1c1916176066555b60ff60005460081c1690610a74826130ba565b610a7d826130ba565b610a86826130ba565b60c9541660c9556109aa816130ba565b610a9f33611aa5565b610aa7613081565b90610b1b60405192610ab8846119d7565b6001845260208401937f310000000000000000000000000000000000000000000000000000000000000085526000549460ff8660081c1692610af9846130ba565b610b02846130ba565b60208151910120915190209061012d5561012e556130ba565b610b2157005b61ff0019166000557f7f26b83ff96e1f2b6a682f133852f6798a09c465da95921460cefb3847402498602060405160018152a1005b015190508580610a4b565b90601f1983169160666000527f46501879b8ca8525e8c2fd519e2fbfcfa2ebea26501294aa02cbfcfb12e943549260005b818110610bd35750916001939185610a9697969410610bba575b505050811b01606655610a61565b015160001960f88460031b161c19169055858080610bac565b92936020600181928786015181550195019301610b92565b60666000527f46501879b8ca8525e8c2fd519e2fbfcfa2ebea26501294aa02cbfcfb12e94354601f840160051c81019160208510610c46575b601f0160051c01905b818110610c3a5750610a2d565b60008155600101610c2d565b9091508190610c24565b0151905085806109f1565b601f1982169560656000527f8ff97419363ffd7000167f130ef7168fbea05faf9251824ca5043f113cc6a7c79160005b888110610cc757508360019596979810610cae575b505050811b01606555610a07565b015160001960f88460031b161c19169055858080610ca0565b91926020600181928685015181550194019201610c8b565b6065600052601f820160051c7f8ff97419363ffd7000167f130ef7168fbea05faf9251824ca5043f113cc6a7c7019060208310610d5a575b601f0160051c7f8ff97419363ffd7000167f130ef7168fbea05faf9251824ca5043f113cc6a7c701905b818110610d4e57506109d4565b60008155600101610d41565b7f8ff97419363ffd7000167f130ef7168fbea05faf9251824ca5043f113cc6a7c79150610d17565b61ffff19166101011760005582610955565b608460405162461bcd60e51b815260206004820152602e60248201527f496e697469616c697a61626c653a20636f6e747261637420697320616c72656160448201527f647920696e697469616c697a65640000000000000000000000000000000000006064820152fd5b50303b15801561093d5750600160ff83161461093d565b50600160ff831610610936565b34610224576020366003190112610224576001600160a01b03610e43611976565b166000526101646020526020604060002054604051908152f35b3461022457600036600319011261022457610e76611a4d565b600060fb546001600160a01b0319811660fb55816001600160a01b0360405192167f8be0079c531659141344cd1fd0a4f28419497f9722a3daafe3b4186f6b6457e08284a3f35b34610224576020366003190112610224576020610688610edb611976565b612337565b34610224576020366003190112610224576020610efe60043561240c565b6001600160a01b0360405191168152f35b3461022457600036600319011261022457602060ff60c954166040519015158152f35b34610224576020366003190112610224576101b8610f4e611976565b33611aef565b346102245760203660031901126102245760206001600160a01b0380610f78611976565b16600052610161825260406000205416604051908152f35b3461022457602036600319011261022457600435609954811015610fc757610fb9602091612b57565b90546040519160031b1c8152f35b608460405162461bcd60e51b815260206004820152602c60248201527f455243373231456e756d657261626c653a20676c6f62616c20696e646578206f60448201527f7574206f6620626f756e647300000000000000000000000000000000000000006064820152fd5b346102245761103f366119a2565b60405190602082019282841067ffffffffffffffff851117610475576101b8946105789460405260008452610568610563843361258b565b346102245760208060031936011261022457611091611976565b611099611a4d565b6101c5805490600182019055604051906110b2826119f3565b600082526001600160a01b039283811693841561127c576110e98360005260676020526001600160a01b0360406000205416151590565b611238576110f561312b565b8460005261016194858752816040600020541615611229575b60995484600052609a885280604060002055600160401b811015610475578461114082600161115b9401609955612b57565b90919082549060031b600019811b9283911b16911916179055565b61116483612337565b816000526097885260406000208160005288528460406000205584600052609888526040600020558060005260688752604060002091825496600188018098116107da576101b89861057898611224955586600052606781526040600020846001600160a01b0319825416179055868460007fddf252ad1be2c89b69c2b068fc378daa952ba7f163c4a11628f55a4df523b3ef81604051a4611204612c5f565b505060008052528060406000205416916000526040600020541690611fa1565b61294f565b6112338380611aef565b61110e565b6064866040519062461bcd60e51b82526004820152601c60248201527f4552433732313a20746f6b656e20616c7265616479206d696e746564000000006044820152fd5b6064866040519062461bcd60e51b825280600483015260248201527f4552433732313a206d696e7420746f20746865207a65726f20616464726573736044820152fd5b34610224576000366003190112610224576112d8611a4d565b60c95460ff8116156113175760ff191660c9557f5db9ee0a495bf2e6ff9c91a7834c1ba4fdd244a5e8aa4e537bd38aeae4b073aa6020604051338152a1005b606460405162461bcd60e51b815260206004820152601460248201527f5061757361626c653a206e6f74207061757365640000000000000000000000006044820152fd5b3461022457604036600319011261022457611374611976565b60246001600160a01b038135921660005261016260205260406000209043831015611445578154926000905b8482106113ea575050826113bd5750506040516000815260209150f35b60001983019283116113d657506020916107d191612bdb565b634e487b7160e01b60005260116004526000fd5b90936001906113ff818718831c82881661232a565b918363ffffffff6114108589612bdb565b5054161115611423575050935b906113a0565b90955081018091111561141d5782634e487b7160e01b60005260116004526000fd5b60649060206040519162461bcd60e51b83528160048401528201527f436865636b706f696e74733a20626c6f636b206e6f7420796574206d696e65646044820152fd5b34610224576000366003190112610224576020610688612f95565b34610224576040366003190112610224576114bc611976565b602435906114c981612337565b8210156114fd576001600160a01b031660005260976020526040600020906000526020526020604060002054604051908152f35b608460405162461bcd60e51b815260206004820152602b60248201527f455243373231456e756d657261626c653a206f776e657220696e646578206f7560448201527f74206f6620626f756e64730000000000000000000000000000000000000000006064820152fd5b34610224576101b8611578366119a2565b91611586610563843361258b565b6125f9565b34610224576000366003190112610224576020609954604051908152f35b34610224576040366003190112610224576115c2611976565b6001600160a01b039060243582806115d98361240c565b169216918083146116d8578033149081156116b3575b501561164957600092818452606960205260408420836001600160a01b031982541617905561161d8261240c565b1691604051927f8c5be1e5ebec7d5bd14f71427d1e84f3dd0314c0f7b2291e5b200ac8c7c3b9258585a4f35b608460405162461bcd60e51b815260206004820152603e60248201527f4552433732313a20617070726f76652063616c6c6572206973206e6f7420746f60448201527f6b656e206f776e6572206e6f7220617070726f76656420666f7220616c6c00006064820152fd5b9050600052606a60205260406000203360005260205260ff60406000205416846115ef565b608460405162461bcd60e51b815260206004820152602160248201527f4552433732313a20617070726f76616c20746f2063757272656e74206f776e6560448201527f72000000000000000000000000000000000000000000000000000000000000006064820152fd5b34610224576020366003190112610224576020610efe60043561246b565b3461022457600036600319011261022457604051600060655461178281612431565b8084529060019081811690811561074b57506001146117ab576102f1846106dc81860382611a0f565b6065600090815292507f8ff97419363ffd7000167f130ef7168fbea05faf9251824ca5043f113cc6a7c75b8284106117ee5750505081016020016106dc826106cc565b805460208587018101919091529093019281016117d6565b3461022457602036600319011261022457600435907fffffffff00000000000000000000000000000000000000000000000000000000821680920361022457817f780e9d6300000000000000000000000000000000000000000000000000000000602093149081156118ab575b8115611881575b5015158152f35b7fe90fb3f6000000000000000000000000000000000000000000000000000000009150148361187a565b90507f80ac58cd000000000000000000000000000000000000000000000000000000008114801561190d575b80156118e4575b90611873565b507f01ffc9a70000000000000000000000000000000000000000000000000000000081146118de565b507f5b5e139f0000000000000000000000000000000000000000000000000000000081146118d7565b919082519283825260005b848110611962575050826000602080949584010152601f8019910116010190565b602081830181015184830182015201611941565b600435906001600160a01b038216820361022457565b602435906001600160a01b038216820361022457565b6060906003190112610224576001600160a01b0390600435828116810361022457916024359081168103610224579060443590565b6040810190811067ffffffffffffffff82111761047557604052565b6020810190811067ffffffffffffffff82111761047557604052565b90601f8019910116810190811067ffffffffffffffff82111761047557604052565b67ffffffffffffffff811161047557601f01601f191660200190565b6001600160a01b0360fb54163303611a6157565b606460405162461bcd60e51b815260206004820152602060248201527f4f776e61626c653a2063616c6c6572206973206e6f7420746865206f776e65726044820152fd5b60fb54906001600160a01b0380911691826001600160a01b031982161760fb55167f8be0079c531659141344cd1fd0a4f28419497f9722a3daafe3b4186f6b6457e06000604051a3565b91906001600160a01b039081841691600094838652611b5c602091610161835260409484868a2054168095878b2092169782896001600160a01b0319819554161790557f3134e8a2e6d97e929a7e54011ea5485d7d196dd5f0ba4d4ef95803e8e3fc257f8b8951a4612337565b918481141580611f98575b611b75575b50505050509050565b80611d9e575b5083611b88575b80611b6c565b8386526101628152611ba583872092611ba084612c2d565b61232a565b908254611bb184612c2d565b9381151580611d64575b15611c4757611bc984613003565b986000198301928311611c33575097611c08611c20927fdec2bacdd2f05b59de34da9b523dff8be42e5e38e818c82fdb0bae774387a72498999a612bdb565b509063ffffffff82549181199060201b169116179055565b8351928352820152a28038808080611b82565b80634e487b7160e01b602492526011600452fd5b63ffffffff804311611d1257611c5c85613003565b92875190611c69826119d7565b8243168252858201936001600160e01b038096168552600160401b821015611cfe5790611c9b91600182018155612bdb565b9b909b611ceb575051915163ffffffff9190921616911660201b63ffffffff191617909655939492937fdec2bacdd2f05b59de34da9b523dff8be42e5e38e818c82fdb0bae774387a72493611c20565b80634e487b7160e01b6024925280600452fd5b60248d634e487b7160e01b81526041600452fd5b60848488519062461bcd60e51b82526004820152602660248201527f53616665436173743a2076616c756520646f65736e27742066697420696e203360448201526532206269747360d01b6064820152fd5b506000198201828111611d8a57611d8063ffffffff9183612bdb565b5054164314611bbb565b60248a634e487b7160e01b81526011600452fd5b8087526101628252838720611db281612c2d565b848103908111611f8457815491611dc881612c2d565b9280151580611f5e575b15611e4357611de083613003565b916000198201918211611e2f577fdec2bacdd2f05b59de34da9b523dff8be42e5e38e818c82fdb0bae774387a7249492611c088a9593611e1f93612bdb565b825191825285820152a238611b7b565b60248c634e487b7160e01b81526011600452fd5b9063ffffffff90814311611f0c57611e5a84613003565b91895193611e67856119d7565b8143168552888501926001600160e01b038095168452600160401b821015611ef85790611e9991600182018155612bdb565b949094611ee55751915163ffffffff9190921616911660201b63ffffffff19161790557fdec2bacdd2f05b59de34da9b523dff8be42e5e38e818c82fdb0bae774387a724918691611e1f565b60248e634e487b7160e01b815280600452fd5b60248f634e487b7160e01b81526041600452fd5b6084878a519062461bcd60e51b82526004820152602660248201527f53616665436173743a2076616c756520646f65736e27742066697420696e203360448201526532206269747360d01b6064820152fd5b506000198101818111611e2f57611f7a63ffffffff9184612bdb565b5054164314611dd2565b602489634e487b7160e01b81526011600452fd5b50821515611b67565b6001600160a01b0391821691168082141580612322575b611fc0575050565b806121aa575b5080611fcf5750565b60008181526101626020526040812090611fe882612c2d565b9060018201809211611c33578254611fff84612c2d565b9381151580612170575b156120655761201784613003565b926000198301928311611c3357507fdec2bacdd2f05b59de34da9b523dff8be42e5e38e818c82fdb0bae774387a7249492611c086040959361205893612bdb565b82519182526020820152a2565b63ffffffff80431161211d5761207a85613003565b9260405190612088826119d7565b824316825260208201936001600160e01b038096168552600160401b82101561210957906120bb91600182018155612bdb565b959095611ceb575051915163ffffffff9190921616911660201b63ffffffff19161790557fdec2bacdd2f05b59de34da9b523dff8be42e5e38e818c82fdb0bae774387a72491604091612058565b602487634e487b7160e01b81526041600452fd5b608460405162461bcd60e51b815260206004820152602660248201527f53616665436173743a2076616c756520646f65736e27742066697420696e203360448201526532206269747360d01b6064820152fd5b5060001982018281116121965761218c63ffffffff9183612bdb565b5054164314612009565b602484634e487b7160e01b81526011600452fd5b6000818152610162602052604081206121c281612c2d565b6000198082019290918311612196578054906121dd81612c2d565b94821515806122ea575b15612244576121f585613003565b938301928311611c3357507fdec2bacdd2f05b59de34da9b523dff8be42e5e38e818c82fdb0bae774387a7249492611c086040959361223393612bdb565b82519182526020820152a238611fc6565b925063ffffffff80431161211d5761225b85613003565b9260405190612269826119d7565b824316825260208201936001600160e01b038096168552600160401b821015612109579061229c91600182018155612bdb565b959095611ceb575051915163ffffffff9190921616911660201b63ffffffff19161790557fdec2bacdd2f05b59de34da9b523dff8be42e5e38e818c82fdb0bae774387a72491604091612233565b5083830183811161230e5761230463ffffffff9184612bdb565b50541643146121e7565b602482634e487b7160e01b81526011600452fd5b506001611fb8565b919082018092116107da57565b6001600160a01b0316801561235757600052606860205260406000205490565b608460405162461bcd60e51b815260206004820152602960248201527f4552433732313a2061646472657373207a65726f206973206e6f74206120766160448201527f6c6964206f776e657200000000000000000000000000000000000000000000006064820152fd5b156123c857565b606460405162461bcd60e51b815260206004820152601860248201527f4552433732313a20696e76616c696420746f6b656e20494400000000000000006044820152fd5b60005260676020526001600160a01b036040600020541661242e8115156123c1565b90565b90600182811c92168015612461575b602083101461244b57565b634e487b7160e01b600052602260045260246000fd5b91607f1691612440565b61248e6102b68260005260676020526001600160a01b0360406000205416151590565b60005260696020526001600160a01b036040600020541690565b156124af57565b608460405162461bcd60e51b815260206004820152602e60248201527f4552433732313a2063616c6c6572206973206e6f7420746f6b656e206f776e6560448201527f72206e6f7220617070726f7665640000000000000000000000000000000000006064820152fd5b1561252057565b60405162461bcd60e51b815260206004820152603260248201527f4552433732313a207472616e7366657220746f206e6f6e20455243373231526560448201527f63656976657220696d706c656d656e74657200000000000000000000000000006064820152608490fd5b906001600160a01b03808061259f8461240c565b169316918383149384156125d2575b5083156125bc575b50505090565b6125c89192935061246b565b16143880806125b6565b909350600052606a60205260406000208260005260205260ff6040600020541692386125ae565b909291926126068461240c565b906001600160a01b03809281851691829116036128e55782821693841561287c5761262f61312b565b6000968792868452610161926020928484526040968888882054161561286d575b83159283156127ce575090919293949550609954828c52609a865280888d2055600160401b8110156127ba579061269783611140848f9a9998979695600101609955612b57565b838a0361278c575b50808652606984528686206001600160a01b03199081815416905581878a6126c68361240c565b168a519e8f907f8c5be1e5ebec7d5bd14f71427d1e84f3dd0314c0f7b2291e5b200ac8c7c3b92591a4838752606885528787208054600019810191908211611f8457558987526068855287872080549060018201809211611f84578861277b9d9e8d9488947fddf252ad1be2c89b69c2b068fc378daa952ba7f163c4a11628f55a4df523b3ef945586835260678a52858d842091825416179055a461277d575b83525282828220541693815220541690611fa1565b565b612785612c5f565b5050612766565b61279590612337565b898752609785528787208188528552818888205581875260988552878720553861269f565b60248c634e487b7160e01b81526041600452fd5b8a85036127dc575b50612697565b6127ec9192939495969750612337565b6000198101908111611e2f579082918c979695949388526098865288882054818103612836575b5082885287898120558488526097865288882090885285528688812055386127d6565b85895260978752898920828a52875289892054868a52609788528a8a20828b528852808b8b20558952609887528989205538612813565b6128778180611aef565b612650565b608460405162461bcd60e51b8152602060048201526024808201527f4552433732313a207472616e7366657220746f20746865207a65726f2061646460448201527f72657373000000000000000000000000000000000000000000000000000000006064820152fd5b608460405162461bcd60e51b815260206004820152602560248201527f4552433732313a207472616e736665722066726f6d20696e636f72726563742060448201527f6f776e65720000000000000000000000000000000000000000000000000000006064820152fd5b9192600092909190803b15612ae7576129a5946040518092630a85bd0160e11b9485835233600484015287602484015260448301526080606483015281876001600160a01b038260209b8c976084830190611936565b0393165af1849181612a8b575b50612a62575050503d600014612a5a573d6129cc81611a31565b906129da6040519283611a0f565b81528091833d92013e5b80519182612a575760405162461bcd60e51b815260206004820152603260248201527f4552433732313a207472616e7366657220746f206e6f6e20455243373231526560448201527f63656976657220696d706c656d656e74657200000000000000000000000000006064820152608490fd5b01fd5b5060606129e4565b7fffffffff00000000000000000000000000000000000000000000000000000000161492509050565b9091508581813d8311612ae0575b612aa38183611a0f565b81010312612adc57517fffffffff0000000000000000000000000000000000000000000000000000000081168103612adc5790386129b2565b8480fd5b503d612a99565b5050915050600190565b9293600093909291803b15612b4c579484916129a59660405180948193630a85bd0160e11b978884523360048501526001600160a01b0380921660248501526044840152608060648401528260209b8c976084830190611936565b505050915050600190565b609954811015612b8e5760996000527f72a152ddfb8e864297c917af52ea6c1c68aead0fee1a62673fcc7e0c94979d000190600090565b634e487b7160e01b600052603260045260246000fd5b6101638054821015612b8e576000527fb0f3e90519fd0de3100ca1a24094c0a25e5cbf467d74a2603172b5a5204555b30190600090565b8054821015612b8e5760005260206000200190600090565b61016354600081612c0657506000919050565b6000198201918211611c335750612c246001600160e01b0391612ba4565b505460201c1690565b805490600082612c405750600092915050565b6000198301928311611c3357506001600160e01b0391612c2491612bdb565b612c67612bf3565b90600182018092116107da576101638054612c80612bf3565b9181151580612d4d575b15612cb55750612c9984613003565b60001982019182116107da57611c08612cb192612ba4565b9190565b9063ffffffff9081431161211d57612ccc86613003565b9060405193612cda856119d7565b834316855260208501916001600160e01b038094168352600160401b81101561047557612d0c91600182019055612ba4565b939093612d37579351905163ffffffff9190941616921660201b63ffffffff19169190911790559190565b634e487b7160e01b600052600060045260246000fd5b5060001982018281116107da57612d6863ffffffff91612ba4565b5054164314612c8a565b6005811015612eca5780612d835750565b60018103612dcf57606460405162461bcd60e51b815260206004820152601860248201527f45434453413a20696e76616c6964207369676e617475726500000000000000006044820152fd5b60028103612e1b57606460405162461bcd60e51b815260206004820152601f60248201527f45434453413a20696e76616c6964207369676e6174757265206c656e677468006044820152fd5b60038103612e7257608460405162461bcd60e51b815260206004820152602260248201527f45434453413a20696e76616c6964207369676e6174757265202773272076616c604482015261756560f01b6064820152fd5b600414612e7b57565b608460405162461bcd60e51b815260206004820152602260248201527f45434453413a20696e76616c6964207369676e6174757265202776272076616c604482015261756560f01b6064820152fd5b634e487b7160e01b600052602160045260246000fd5b9291907f7fffffffffffffffffffffffffffffff5d576e7357a4501ddfe92f46681b20a08311612f895760ff16601b81141580612f7e575b612f72579160809493916020936040519384528484015260408301526060820152600093849182805260015afa15612f655781516001600160a01b03811615612f5f579190565b50600190565b50604051903d90823e3d90fd5b50505050600090600490565b50601c811415612f18565b50505050600090600390565b61012d5461012e546040519060208201927f8b73c3c69bb8fe3d512ecc4cf759cc79239f7b179b0ffacaa9a75d522b39400f8452604083015260608201524660808201523060a082015260a0815260c0810181811067ffffffffffffffff8211176104755760405251902090565b6001600160e01b0390818111613017571690565b608460405162461bcd60e51b815260206004820152602760248201527f53616665436173743a2076616c756520646f65736e27742066697420696e203260448201527f32342062697473000000000000000000000000000000000000000000000000006064820152fd5b6040519061308e826119d7565b600682527f546f6b656e3200000000000000000000000000000000000000000000000000006020830152565b156130c157565b608460405162461bcd60e51b815260206004820152602b60248201527f496e697469616c697a61626c653a20636f6e7472616374206973206e6f74206960448201527f6e697469616c697a696e670000000000000000000000000000000000000000006064820152fd5b60ff60c9541661313757565b606460405162461bcd60e51b815260206004820152601060248201527f5061757361626c653a20706175736564000000000000000000000000000000006044820152fdfea2646970667358221220fae7c9bd6a524e8bbea9004e05b4cf416d8a075c64dbfc5c05a41302d8c5b63d64736f6c63430008100033"
}