{
  "address": "0xD0141E899a65C95a556fE2B27e5982A6DE7fDD7A",
  "abi": [
    {
      "inputs": [],
      "stateMutability": "nonpayable",
      "type": "constructor"
    },
    {
      "anonymous": false,
      "inputs": [
        {
          "indexed": true,
          "internalType": "address",
          "name": "owner",
          "type": "address"
        },
        {
          "indexed": true,
          "internalType": "address",
          "name": "approved",
          "type": "address"
        },
        {
          "indexed": true,
          "internalType": "uint256",
          "name": "tokenId",
          "type": "uint256"
        }
      ],
      "name": "Approval",
      "type": "event"
    },
    {
      "anonymous": false,
      "inputs": [
        {
          "indexed": true,
          "internalType": "address",
          "name": "owner",
          "type": "address"
        },
        {
          "indexed": true,
          "internalType": "address",
          "name": "operator",
          "type": "address"
        },
        {
          "indexed": false,
          "internalType": "bool",
          "name": "approved",
          "type": "bool"
        }
      ],
      "name": "ApprovalForAll",
      "type": "event"
    },
    {
      "anonymous": false,
      "inputs": [
        {
          "indexed": true,
          "internalType": "address",
          "name": "delegator",
          "type": "address"
        },
        {
          "indexed": true,
          "internalType": "address",
          "name": "fromDelegate",
          "type": "address"
        },
        {
          "indexed": true,
          "internalType": "address",
          "name": "toDelegate",
          "type": "address"
        }
      ],
      "name": "DelegateChanged",
      "type": "event"
    },
    {
      "anonymous": false,
      "inputs": [
        {
          "indexed": true,
          "internalType": "address",
          "name": "delegate",
          "type": "address"
        },
        {
          "indexed": false,
          "internalType": "uint256",
          "name": "previousBalance",
          "type": "uint256"
        },
        {
          "indexed": false,
          "internalType": "uint256",
          "name": "newBalance",
          "type": "uint256"
        }
      ],
      "name": "DelegateVotesChanged",
      "type": "event"
    },
    {
      "anonymous": false,
      "inputs": [
        {
          "indexed": true,
          "internalType": "address",
          "name": "previousOwner",
          "type": "address"
        },
        {
          "indexed": true,
          "internalType": "address",
          "name": "newOwner",
          "type": "address"
        }
      ],
      "name": "OwnershipTransferred",
      "type": "event"
    },
    {
      "anonymous": false,
      "inputs": [
        {
          "indexed": false,
          "internalType": "address",
          "name": "account",
          "type": "address"
        }
      ],
      "name": "Paused",
      "type": "event"
    },
    {
      "anonymous": false,
      "inputs": [
        {
          "indexed": true,
          "internalType": "address",
          "name": "from",
          "type": "address"
        },
        {
          "indexed": true,
          "internalType": "address",
          "name": "to",
          "type": "address"
        },
        {
          "indexed": true,
          "internalType": "uint256",
          "name": "tokenId",
          "type": "uint256"
        }
      ],
      "name": "Transfer",
      "type": "event"
    },
    {
      "anonymous": false,
      "inputs": [
        {
          "indexed": false,
          "internalType": "address",
          "name": "account",
          "type": "address"
        }
      ],
      "name": "Unpaused",
      "type": "event"
    },
    {
      "inputs": [],
      "name": "DOMAIN_SEPARATOR",
      "outputs": [
        {
          "internalType": "bytes32",
          "name": "",
          "type": "bytes32"
        }
      ],
      "stateMutability": "view",
      "type": "function"
    },
    {
      "inputs": [
        {
          "internalType": "address",
          "name": "to",
          "type": "address"
        },
        {
          "internalType": "uint256",
          "name": "tokenId",
          "type": "uint256"
        }
      ],
      "name": "approve",
      "outputs": [],
      "stateMutability": "nonpayable",
      "type": "function"
    },
    {
      "inputs": [
        {
          "internalType": "address",
          "name": "owner",
          "type": "address"
        }
      ],
      "name": "balanceOf",
      "outputs": [
        {
          "internalType": "uint256",
          "name": "",
          "type": "uint256"
        }
      ],
      "stateMutability": "view",
      "type": "function"
    },
    {
      "inputs": [
        {
          "internalType": "address",
          "name": "delegatee",
          "type": "address"
        }
      ],
      "name": "delegate",
      "outputs": [],
      "stateMutability": "nonpayable",
      "type": "function"
    },
    {
      "inputs": [
        {
          "internalType": "address",
          "name": "delegatee",
          "type": "address"
        },
        {
          "internalType": "uint256",
          "name": "nonce",
          "type": "uint256"
        },
        {
          "internalType": "uint256",
          "name": "expiry",
          "type": "uint256"
        },
        {
          "internalType": "uint8",
          "name": "v",
          "type": "uint8"
        },
        {
          "internalType": "bytes32",
          "name": "r",
          "type": "bytes32"
        },
        {
          "internalType": "bytes32",
          "name": "s",
          "type": "bytes32"
        }
      ],
      "name": "delegateBySig",
      "outputs": [],
      "stateMutability": "nonpayable",
      "type": "function"
    },
    {
      "inputs": [
        {
          "internalType": "address",
          "name": "account",
          "type": "address"
        }
      ],
      "name": "delegates",
      "outputs": [
        {
          "internalType": "address",
          "name": "",
          "type": "address"
        }
      ],
      "stateMutability": "view",
      "type": "function"
    },
    {
      "inputs": [
        {
          "internalType": "uint256",
          "name": "tokenId",
          "type": "uint256"
        }
      ],
      "name": "getApproved",
      "outputs": [
        {
          "internalType": "address",
          "name": "",
          "type": "address"
        }
      ],
      "stateMutability": "view",
      "type": "function"
    },
    {
      "inputs": [
        {
          "internalType": "uint256",
          "name": "blockNumber",
          "type": "uint256"
        }
      ],
      "name": "getPastTotalSupply",
      "outputs": [
        {
          "internalType": "uint256",
          "name": "",
          "type": "uint256"
        }
      ],
      "stateMutability": "view",
      "type": "function"
    },
    {
      "inputs": [
        {
          "internalType": "address",
          "name": "account",
          "type": "address"
        },
        {
          "internalType": "uint256",
          "name": "blockNumber",
          "type": "uint256"
        }
      ],
      "name": "getPastVotes",
      "outputs": [
        {
          "internalType": "uint256",
          "name": "",
          "type": "uint256"
        }
      ],
      "stateMutability": "view",
      "type": "function"
    },
    {
      "inputs": [
        {
          "internalType": "address",
          "name": "account",
          "type": "address"
        }
      ],
      "name": "getVotes",
      "outputs": [
        {
          "internalType": "uint256",
          "name": "",
          "type": "uint256"
        }
      ],
      "stateMutability": "view",
      "type": "function"
    },
    {
      "inputs": [
        {
          "internalType": "address",
          "name": "owner",
          "type": "address"
        },
        {
          "internalType": "address",
          "name": "operator",
          "type": "address"
        }
      ],
      "name": "isApprovedForAll",
      "outputs": [
        {
          "internalType": "bool",
          "name": "",
          "type": "bool"
        }
      ],
      "stateMutability": "view",
      "type": "function"
    },
    {
      "inputs": [],
      "name": "name",
      "outputs": [
        {
          "internalType": "string",
          "name": "",
          "type": "string"
        }
      ],
      "stateMutability": "view",
      "type": "function"
    },
    {
      "inputs": [
        {
          "internalType": "address",
          "name": "owner",
          "type": "address"
        }
      ],
      "name": "nonces",
      "outputs": [
        {
          "internalType": "uint256",
          "name": "",
          "type": "uint256"
        }
      ],
      "stateMutability": "view",
      "type": "function"
    },
    {
      "inputs": [],
      "name": "owner",
      "outputs": [
        {
          "internalType": "address",
          "name": "",
          "type": "address"
        }
      ],
      "stateMutability": "view",
      "type": "function"
    },
    {
      "inputs": [
        {
          "internalType": "uint256",
          "name": "tokenId",
          "type": "uint256"
        }
      ],
      "name": "ownerOf",
      "outputs": [
        {
          "internalType": "address",
          "name": "",
          "type": "address"
        }
      ],
      "stateMutability": "view",
      "type": "function"
    },
    {
      "inputs": [],
      "name": "pause",
      "outputs": [],
      "stateMutability": "nonpayable",
      "type": "function"
    },
    {
      "inputs": [],
      "name": "paused",
      "outputs": [
        {
          "internalType": "bool",
          "name": "",
          "type": "bool"
        }
      ],
      "stateMutability": "view",
      "type": "function"
    },
    {
      "inputs": [],
      "name": "renounceOwnership",
      "outputs": [],
      "stateMutability": "nonpayable",
      "type": "function"
    },
    {
      "inputs": [
        {
          "internalType": "address",
          "name": "to",
          "type": "address"
        }
      ],
      "name": "safeMint",
      "outputs": [],
      "stateMutability": "nonpayable",
      "type": "function"
    },
    {
      "inputs": [
        {
          "internalType": "address",
          "name": "from",
          "type": "address"
        },
        {
          "internalType": "address",
          "name": "to",
          "type": "address"
        },
        {
          "internalType": "uint256",
          "name": "tokenId",
          "type": "uint256"
        }
      ],
      "name": "safeTransferFrom",
      "outputs": [],
      "stateMutability": "nonpayable",
      "type": "function"
    },
    {
      "inputs": [
        {
          "internalType": "address",
          "name": "from",
          "type": "address"
        },
        {
          "internalType": "address",
          "name": "to",
          "type": "address"
        },
        {
          "internalType": "uint256",
          "name": "tokenId",
          "type": "uint256"
        },
        {
          "internalType": "bytes",
          "name": "data",
          "type": "bytes"
        }
      ],
      "name": "safeTransferFrom",
      "outputs": [],
      "stateMutability": "nonpayable",
      "type": "function"
    },
    {
      "inputs": [
        {
          "internalType": "address",
          "name": "operator",
          "type": "address"
        },
        {
          "internalType": "bool",
          "name": "approved",
          "type": "bool"
        }
      ],
      "name": "setApprovalForAll",
      "outputs": [],
      "stateMutability": "nonpayable",
      "type": "function"
    },
    {
      "inputs": [
        {
          "internalType": "bytes4",
          "name": "interfaceId",
          "type": "bytes4"
        }
      ],
      "name": "supportsInterface",
      "outputs": [
        {
          "internalType": "bool",
          "name": "",
          "type": "bool"
        }
      ],
      "stateMutability": "view",
      "type": "function"
    },
    {
      "inputs": [],
      "name": "symbol",
      "outputs": [
        {
          "internalType": "string",
          "name": "",
          "type": "string"
        }
      ],
      "stateMutability": "view",
      "type": "function"
    },
    {
      "inputs": [
        {
          "internalType": "uint256",
          "name": "index",
          "type": "uint256"
        }
      ],
      "name": "tokenByIndex",
      "outputs": [
        {
          "internalType": "uint256",
          "name": "",
          "type": "uint256"
        }
      ],
      "stateMutability": "view",
      "type": "function"
    },
    {
      "inputs": [
        {
          "internalType": "address",
          "name": "owner",
          "type": "address"
        },
        {
          "internalType": "uint256",
          "name": "index",
          "type": "uint256"
        }
      ],
      "name": "tokenOfOwnerByIndex",
      "outputs": [
        {
          "internalType": "uint256",
          "name": "",
          "type": "uint256"
        }
      ],
      "stateMutability": "view",
      "type": "function"
    },
    {
      "inputs": [
        {
          "internalType": "uint256",
          "name": "tokenId",
          "type": "uint256"
        }
      ],
      "name": "tokenURI",
      "outputs": [
        {
          "internalType": "string",
          "name": "",
          "type": "string"
        }
      ],
      "stateMutability": "view",
      "type": "function"
    },
    {
      "inputs": [],
      "name": "totalSupply",
      "outputs": [
        {
          "internalType": "uint256",
          "name": "",
          "type": "uint256"
        }
      ],
      "stateMutability": "view",
      "type": "function"
    },
    {
      "inputs": [
        {
          "internalType": "address",
          "name": "from",
          "type": "address"
        },
        {
          "internalType": "address",
          "name": "to",
          "type": "address"
        },
        {
          "internalType": "uint256",
          "name": "tokenId",
          "type": "uint256"
        }
      ],
      "name": "transferFrom",
      "outputs": [],
      "stateMutability": "nonpayable",
      "type": "function"
    },
    {
      "inputs": [
        {
          "internalType": "address",
          "name": "newOwner",
          "type": "address"
        }
      ],
      "name": "transferOwnership",
      "outputs": [],
      "stateMutability": "nonpayable",
      "type": "function"
    },
    {
      "inputs": [],
      "name": "unpause",
      "outputs": [],
      "stateMutability": "nonpayable",
      "type": "function"
    }
  ],
  "numDeployments": 3,
  "bytecode": "0x61014080604052346200046457620000178162000469565b6007815266546f6b656e313360c81b602080830182815260405191936200003e8362000469565b60019182845285840190603160f81b8252604051956200005e8762000469565b600787528787015260405193620000758562000469565b6004855263544b313360e01b8886015286516001600160401b03979095908887116200044e576000968754918483811c9316801562000443575b8c841014620003465781908c601f94858111620003ed575b50508c908d8584116001146200038557508a9262000379575b5050600019600383901b1c191690841b1787555b815191898311620003655783548481811c911680156200035a575b8c8210146200034657908b828486959411620002ee575b50508b918311600114620002895788926200027d575b5050600019600383901b1c191690821b1790555b600a80546001600160a81b0319811633600881811b610100600160a81b031692909217909355604051959291901c6001600160a01b03167f8be0079c531659141344cd1fd0a4f28419497f9722a3daafe3b4186f6b6457e08787a351902093519020918360e052610100958387524660a0528201927f8b73c3c69bb8fe3d512ecc4cf759cc79239f7b179b0ffacaa9a75d522b39400f94858552604084015260608301524660808301523060a083015260a0825260c082019482861090861117620002695750836040525190206080523060c052610120908152612d8d928362000486843960805183612b97015260a05183612c63015260c05183612b68015260e05183612be601525182612c0c01525181612bc30152f35b634e487b7160e01b81526041600452602490fd5b0151905038806200013c565b8489528b89208594509190601f1984168a8e5b828210620002d65750508411620002bc575b505050811b01905562000150565b015160001960f88460031b161c19169055388080620002ae565b83850151865588979095019493840193018e6200029c565b9091929350858a5283828b209181870160051c83019387106200033c575b91869588929594930160051c01915b8281106200032d57508d915062000126565b8b81558695508791016200031b565b925081926200030c565b634e487b7160e01b89526022600452602489fd5b90607f16906200010f565b634e487b7160e01b88526041600452602488fd5b015190503880620000e0565b9190879450601f1984168c8052838d20938d905b828210620003d35750508411620003b9575b505050811b018755620000f4565b015160001960f88460031b161c19169055388080620003ab565b8484015186558a9790950194938401939081019062000399565b909192508a805284828c209181860160051c830193861062000439575b918891869594930160051c01915b8281106200042a57508e9150620000c7565b8c815585945088910162000418565b925081926200040a565b92607f1692620000af565b634e487b7160e01b600052604160045260246000fd5b600080fd5b604081019081106001600160401b038211176200044e5760405256fe6080604081815260048036101561001557600080fd5b600092833560e01c90816301ffc9a7146114045750806306fdde0314611339578063081812fc14611311578063095ea7b31461117a57806318160ddd1461115b57806323b872dd146111355780632f745c59146110775780633644e5151461105a5780633a46b1a814610f265780633f4ba83a14610e8957806340d097c314610c2c57806342842e0e14610bd05780634f6ccce714610b2c578063587cde1e14610af25780635c19a95c14610ace5780635c975abb14610aaa5780636352211e14610a7a57806370a0823114610a54578063715018a6146109e55780637ecebe00146109ae5780638456cb59146109535780638da5cb5b146109285780638e539e8c1461080557806395d89b41146106ef5780639ab24eb0146106b1578063a22cb465146105e2578063b88d4fde14610534578063c3cda52014610344578063c87b56dd146102d3578063e985e9c5146102815763f2fde38b1461017857600080fd5b3461027d57602036600319011261027d57610191611575565b9161019a611667565b6001600160a01b0390818416928315610215575074ffffffffffffffffffffffffffffffffffffffff00600a549460081b1674ffffffffffffffffffffffffffffffffffffffff0019851617600a55519260081c167f8be0079c531659141344cd1fd0a4f28419497f9722a3daafe3b4186f6b6457e08484a3f35b6020608492519162461bcd60e51b8352820152602660248201527f4f776e61626c653a206e6577206f776e657220697320746865207a65726f206160448201527f64647265737300000000000000000000000000000000000000000000000000006064820152fd5b8280fd5b5050346102cf57806003193601126102cf5760ff816020936102a1611575565b6102a9611590565b6001600160a01b0391821683526005875283832091168252855220549151911615158152f35b5080fd5b509190346102cf5760203660031901126102cf5761031361030e610340943560005260026020526001600160a01b0360406000205416151590565b611fb2565b81815161031f8161160d565b5280519161032c8361160d565b825251918291602083526020830190611535565b0390f35b503461027d5760c036600319011261027d5761035e611575565b9060243560443560643560ff81168103610530578142116104ed57855190602082017fe48329057bfd03d55e49b547132e39cffd9c1820ad7b9d4c5307691425d15adf81526001600160a01b03938488168985015285606085015260808401526080835260a083019267ffffffffffffffff93818110858211176104da578952519020906103ea612b5e565b9288519260208401947f1901000000000000000000000000000000000000000000000000000000000000865260228501526042840152604283526080830190838210908211176104c7579161045b9695949391610453938a5260a4359260843592519020612aa9565b94909461293b565b83168652600e6020528486209081549160018301905503610484575090610481916116c2565b51f35b606490602085519162461bcd60e51b8352820152601460248201527f566f7465733a20696e76616c6964206e6f6e63650000000000000000000000006044820152fd5b60248a604189634e487b7160e01b835252fd5b60248b60418a634e487b7160e01b835252fd5b606484602088519162461bcd60e51b8352820152601860248201527f566f7465733a207369676e6174757265206578706972656400000000000000006044820152fd5b8680fd5b503461027d57608036600319011261027d5761054e611575565b610556611590565b906044356064359367ffffffffffffffff8511610530573660238601121561053057840135926105858461164b565b9261059287519485611629565b8484528736602487890101116105df576020866105da9760246104819a0183890137860101526105ca6105c58433612142565b61205f565b6105d58383836121b0565b6126c0565b6120d0565b80fd5b503461027d578160031936011261027d576105fb611575565b602435908115158092036106ad576001600160a01b03169182331461066a5750338452600560205282842082855260205282842060ff1981541660ff831617905582519081527f17307eab39ab6107e8899845ad3d59bd9653f200f220920489ca2b5937696c3160203392a351f35b606490602085519162461bcd60e51b8352820152601960248201527f4552433732313a20617070726f766520746f2063616c6c6572000000000000006044820152fd5b8480fd5b5050346102cf5760203660031901126102cf576106e8816020936001600160a01b036106db611575565b168152600c8552206127fb565b9051908152f35b5091346105df57806003193601126105df578151918160019283549384811c918186169586156107fb575b60209687851081146107e8578899509688969785829a5291826000146107c1575050600114610766575b5050506103409291610757910385611629565b51928284938452830190611535565b91908693508083527fb10e2d527612073b26eecdfd717e6a320cf44b4afac2b0732d9fcbe2b7fa0cf65b8284106107a95750505082010181610757610340610744565b8054848a018601528895508794909301928101610790565b60ff19168782015293151560051b8601909301935084925061075791506103409050610744565b60248360228c634e487b7160e01b835252fd5b92607f169261071a565b5091346105df5760203660031901126105df57823592438410156108e557600d549382905b85821061088d5750508361084f5750602092506001600160e01b0390915b5191168152f35b600019840193841161087a5750506001600160e01b03610870602093612773565b5054831c91610848565b906011602492634e487b7160e01b835252fd5b90946001906108a2818818831c828916611f05565b918363ffffffff6108b285612773565b50541611156108c5575050945b9061082a565b9096508101809111156108bf57602484601185634e487b7160e01b835252fd5b606490602084519162461bcd60e51b8352820152601a60248201527f566f7465733a20626c6f636b206e6f7420796574206d696e65640000000000006044820152fd5b5050346102cf57816003193601126102cf576020906001600160a01b03600a5460081c169051908152f35b5050346102cf57816003193601126102cf5761096d611667565b610975612d07565b600160ff19600a541617600a557f62e78cea01bee320cd4e420270b5ea74000d11b0c9f74754ebdbfc544b05a25860208251338152a151f35b5050346102cf5760203660031901126102cf57806020926001600160a01b036109d5611575565b168152600e845220549051908152f35b5050346102cf57816003193601126102cf576109ff611667565b816001600160a01b03600a549274ffffffffffffffffffffffffffffffffffffffff00198416600a55519260081c167f8be0079c531659141344cd1fd0a4f28419497f9722a3daafe3b4186f6b6457e08284a3f35b5050346102cf5760203660031901126102cf576020906106e8610a75611575565b611f28565b5091346105df5760203660031901126105df57506001600160a01b03610aa260209335611ffd565b915191168152f35b5050346102cf57816003193601126102cf5760209060ff600a541690519015158152f35b5050346102cf5760203660031901126102cf57610481610aec611575565b336116c2565b5050346102cf5760203660031901126102cf57602091816001600160a01b039182610b1b611575565b168152600b85522054169051908152f35b5082346105df5760203660031901126105df5750803590600854821015610b6757602083610b5984612726565b91905490519160031b1c8152f35b608490602084519162461bcd60e51b8352820152602c60248201527f455243373231456e756d657261626c653a20676c6f62616c20696e646578206f60448201527f7574206f6620626f756e647300000000000000000000000000000000000000006064820152fd5b503461027d57610bdf366115a6565b91845193602085019085821067ffffffffffffffff831117610c195750916105da9391610481959387528784526105ca6105c58433612142565b876041602492634e487b7160e01b835252fd5b509190346102cf5760208060031936011261027d57610c49611575565b610c51611667565b600f549060018201600f55835192610c688461160d565b8584526001600160a01b03808316918215610e4857610c9d8560005260026020526001600160a01b0360406000205416151590565b610e0657610ca9612d07565b828852600b815281878920541615610df7575b6008548589526009825280888a2055600160401b811015610de45785610ceb826001610d069401600855612726565b90919082549060031b600019811b9283911b16911916179055565b610d0f84611f28565b83895260068252878920818a52825285888a205585895260078252878920558288526003815286882080549060018201809211610dd15792600b610dcc9388878d7fddf252ad1be2c89b69c2b068fc378daa952ba7f163c4a11628f55a4df523b3ef818f6104819f9d9b996105da9f9d9a55858252600287528082208573ffffffffffffffffffffffffffffffffffffffff1982541617905551a4610db261282d565b50508b80525280898b205416918a52888a20541690611b7e565b612522565b60248a60118d634e487b7160e01b835252fd5b60248960418c634e487b7160e01b835252fd5b610e0184806116c2565b610cbc565b8860649188519162461bcd60e51b8352820152601c60248201527f4552433732313a20746f6b656e20616c7265616479206d696e746564000000006044820152fd5b888160649289519262461bcd60e51b845283015260248201527f4552433732313a206d696e7420746f20746865207a65726f20616464726573736044820152fd5b503461027d578260031936011261027d57610ea2611667565b600a549060ff821615610ee3575060ff1916600a557f5db9ee0a495bf2e6ff9c91a7834c1ba4fdd244a5e8aa4e537bd38aeae4b073aa60208251338152a151f35b606490602084519162461bcd60e51b8352820152601460248201527f5061757361626c653a206e6f74207061757365640000000000000000000000006044820152fd5b503461027d578160031936011261027d57610f3f611575565b6001600160a01b03168352600c60205281832060248035924384101561101a5782549386905b858210610fc257505083610f8a57505050506001600160e01b03602092915191168152f35b60001984019592939192918611610fb2575050506108706020936001600160e01b03926127aa565b601190634e487b7160e01b835252fd5b9094600190610fd7818818831c828916611f05565b918363ffffffff610fe8858a6127aa565b5054161115610ffb575050945b90610f65565b909650810180911115610ff5578388601185634e487b7160e01b835252fd5b60206064928187519362461bcd60e51b85528401528201527f436865636b706f696e74733a20626c6f636b206e6f7420796574206d696e65646044820152fd5b5050346102cf57816003193601126102cf576020906106e8612b5e565b5091346105df57816003193601126105df57611091611575565b6024359061109e81611f28565b8210156110cc5760209284926001600160a01b03849316825260068552828220908252845220549051908152f35b608485602086519162461bcd60e51b8352820152602b60248201527f455243373231456e756d657261626c653a206f776e657220696e646578206f7560448201527f74206f6620626f756e64730000000000000000000000000000000000000000006064820152fd5b5050346102cf57610481611148366115a6565b916111566105c58433612142565b6121b0565b5050346102cf57816003193601126102cf576020906008549051908152f35b503461027d578160031936011261027d57611193611575565b602435916001600160a01b039081806111ab86611ffd565b169316928084146112a857803314908115611289575b5015611220578386526020528385208273ffffffffffffffffffffffffffffffffffffffff198254161790556111f683611ffd565b169251927f8c5be1e5ebec7d5bd14f71427d1e84f3dd0314c0f7b2291e5b200ac8c7c3b9258585a4f35b608490602086519162461bcd60e51b8352820152603e60248201527f4552433732313a20617070726f76652063616c6c6572206973206e6f7420746f60448201527f6b656e206f776e6572206e6f7220617070726f76656420666f7220616c6c00006064820152fd5b90508652600560205284862033875260205260ff8587205416386111c1565b608482602088519162461bcd60e51b8352820152602160248201527f4552433732313a20617070726f76616c20746f2063757272656e74206f776e6560448201527f72000000000000000000000000000000000000000000000000000000000000006064820152fd5b5091346105df5760203660031901126105df57506001600160a01b03610aa260209335612022565b5091346105df57806003193601126105df5781519181825492600184811c918186169586156113fa575b60209687851081146107e8578899509688969785829a5291826000146107c157505060011461139f575050506103409291610757910385611629565b91908693508280527f290decd9548b62a8d60345a988386fc84ba6bc95484008f6362f93160ef3e5635b8284106113e25750505082010181610757610340610744565b8054848a0186015288955087949093019281016113c9565b92607f1692611363565b9250503461027d57602036600319011261027d57357fffffffff00000000000000000000000000000000000000000000000000000000811680910361027d57602092507f780e9d630000000000000000000000000000000000000000000000000000000081149081156114aa575b8115611480575b5015158152f35b7fe90fb3f60000000000000000000000000000000000000000000000000000000091501438611479565b90507f80ac58cd000000000000000000000000000000000000000000000000000000008114801561150c575b80156114e3575b90611472565b507f01ffc9a70000000000000000000000000000000000000000000000000000000081146114dd565b507f5b5e139f0000000000000000000000000000000000000000000000000000000081146114d6565b919082519283825260005b848110611561575050826000602080949584010152601f8019910116010190565b602081830181015184830182015201611540565b600435906001600160a01b038216820361158b57565b600080fd5b602435906001600160a01b038216820361158b57565b606090600319011261158b576001600160a01b0390600435828116810361158b5791602435908116810361158b579060443590565b6040810190811067ffffffffffffffff8211176115f757604052565b634e487b7160e01b600052604160045260246000fd5b6020810190811067ffffffffffffffff8211176115f757604052565b90601f8019910116810190811067ffffffffffffffff8211176115f757604052565b67ffffffffffffffff81116115f757601f01601f191660200190565b6001600160a01b03600a5460081c16330361167e57565b606460405162461bcd60e51b815260206004820152602060248201527f4f776e61626c653a2063616c6c6572206973206e6f7420746865206f776e65726044820152fd5b91906001600160a01b03908184169160009483865261173b602091600b835260409484868a2054168095878b20921697828973ffffffffffffffffffffffffffffffffffffffff19819554161790557f3134e8a2e6d97e929a7e54011ea5485d7d196dd5f0ba4d4ef95803e8e3fc257f8b8951a4611f28565b918481141580611b75575b611754575b50505050509050565b8061197c575b5083611767575b8061174b565b838652600c81526117838387209261177e846127fb565b611f05565b90825461178f846127fb565b9381151580611942575b15611825576117a784612c89565b9860001983019283116118115750976117e66117fe927fdec2bacdd2f05b59de34da9b523dff8be42e5e38e818c82fdb0bae774387a72498999a6127aa565b509063ffffffff82549181199060201b169116179055565b8351928352820152a28038808080611761565b80634e487b7160e01b602492526011600452fd5b63ffffffff8043116118f05761183a85612c89565b92875190611847826115db565b8243168252858201936001600160e01b038096168552600160401b8210156118dc5790611879916001820181556127aa565b9b909b6118c9575051915163ffffffff9190921616911660201b63ffffffff191617909655939492937fdec2bacdd2f05b59de34da9b523dff8be42e5e38e818c82fdb0bae774387a724936117fe565b80634e487b7160e01b6024925280600452fd5b60248d634e487b7160e01b81526041600452fd5b60848488519062461bcd60e51b82526004820152602660248201527f53616665436173743a2076616c756520646f65736e27742066697420696e203360448201526532206269747360d01b6064820152fd5b5060001982018281116119685761195e63ffffffff91836127aa565b5054164314611799565b60248a634e487b7160e01b81526011600452fd5b808752600c825283872061198f816127fb565b848103908111611b61578154916119a5816127fb565b9280151580611b3b575b15611a20576119bd83612c89565b916000198201918211611a0c577fdec2bacdd2f05b59de34da9b523dff8be42e5e38e818c82fdb0bae774387a72494926117e68a95936119fc936127aa565b825191825285820152a23861175a565b60248c634e487b7160e01b81526011600452fd5b9063ffffffff90814311611ae957611a3784612c89565b91895193611a44856115db565b8143168552888501926001600160e01b038095168452600160401b821015611ad55790611a76916001820181556127aa565b949094611ac25751915163ffffffff9190921616911660201b63ffffffff19161790557fdec2bacdd2f05b59de34da9b523dff8be42e5e38e818c82fdb0bae774387a7249186916119fc565b60248e634e487b7160e01b815280600452fd5b60248f634e487b7160e01b81526041600452fd5b6084878a519062461bcd60e51b82526004820152602660248201527f53616665436173743a2076616c756520646f65736e27742066697420696e203360448201526532206269747360d01b6064820152fd5b506000198101818111611a0c57611b5763ffffffff91846127aa565b50541643146119af565b602489634e487b7160e01b81526011600452fd5b50821515611746565b6001600160a01b0391821691168082141580611efd575b611b9d575050565b80611d86575b5080611bac5750565b6000818152600c6020526040812090611bc4826127fb565b9060018201809211611811578254611bdb846127fb565b9381151580611d4c575b15611c4157611bf384612c89565b92600019830192831161181157507fdec2bacdd2f05b59de34da9b523dff8be42e5e38e818c82fdb0bae774387a72494926117e660409593611c34936127aa565b82519182526020820152a2565b63ffffffff804311611cf957611c5685612c89565b9260405190611c64826115db565b824316825260208201936001600160e01b038096168552600160401b821015611ce55790611c97916001820181556127aa565b9590956118c9575051915163ffffffff9190921616911660201b63ffffffff19161790557fdec2bacdd2f05b59de34da9b523dff8be42e5e38e818c82fdb0bae774387a72491604091611c34565b602487634e487b7160e01b81526041600452fd5b608460405162461bcd60e51b815260206004820152602660248201527f53616665436173743a2076616c756520646f65736e27742066697420696e203360448201526532206269747360d01b6064820152fd5b506000198201828111611d7257611d6863ffffffff91836127aa565b5054164314611be5565b602484634e487b7160e01b81526011600452fd5b6000818152600c60205260408120611d9d816127fb565b6000198082019290918311611d7257805490611db8816127fb565b9482151580611ec5575b15611e1f57611dd085612c89565b93830192831161181157507fdec2bacdd2f05b59de34da9b523dff8be42e5e38e818c82fdb0bae774387a72494926117e660409593611e0e936127aa565b82519182526020820152a238611ba3565b925063ffffffff804311611cf957611e3685612c89565b9260405190611e44826115db565b824316825260208201936001600160e01b038096168552600160401b821015611ce55790611e77916001820181556127aa565b9590956118c9575051915163ffffffff9190921616911660201b63ffffffff19161790557fdec2bacdd2f05b59de34da9b523dff8be42e5e38e818c82fdb0bae774387a72491604091611e0e565b50838301838111611ee957611edf63ffffffff91846127aa565b5054164314611dc2565b602482634e487b7160e01b81526011600452fd5b506001611b95565b91908201809211611f1257565b634e487b7160e01b600052601160045260246000fd5b6001600160a01b03168015611f4857600052600360205260406000205490565b608460405162461bcd60e51b815260206004820152602960248201527f4552433732313a2061646472657373207a65726f206973206e6f74206120766160448201527f6c6964206f776e657200000000000000000000000000000000000000000000006064820152fd5b15611fb957565b606460405162461bcd60e51b815260206004820152601860248201527f4552433732313a20696e76616c696420746f6b656e20494400000000000000006044820152fd5b60005260026020526001600160a01b036040600020541661201f811515611fb2565b90565b61204561030e8260005260026020526001600160a01b0360406000205416151590565b60005260046020526001600160a01b036040600020541690565b1561206657565b608460405162461bcd60e51b815260206004820152602e60248201527f4552433732313a2063616c6c6572206973206e6f7420746f6b656e206f776e6560448201527f72206e6f7220617070726f7665640000000000000000000000000000000000006064820152fd5b156120d757565b60405162461bcd60e51b815260206004820152603260248201527f4552433732313a207472616e7366657220746f206e6f6e20455243373231526560448201527f63656976657220696d706c656d656e74657200000000000000000000000000006064820152608490fd5b906001600160a01b03808061215684611ffd565b16931691838314938415612189575b508315612173575b50505090565b61217f91929350612022565b161438808061216d565b909350600052600560205260406000208260005260205260ff604060002054169238612165565b9291906121bc82611ffd565b906001600160a01b0392839283871694859116036124b85782821693841561244f576121e6612d07565b600096858852602092600b845260409486868b20541615612440575b831592831561239a5750600854828b526009865280878c2055600160401b8110156123865782610ceb82600161223b9401600855612726565b838803612358575b508089526004845284892073ffffffffffffffffffffffffffffffffffffffff19908181541690558661227583611ffd565b1690828b8851937f8c5be1e5ebec7d5bd14f71427d1e84f3dd0314c0f7b2291e5b200ac8c7c3b9258286a4848b5260038652868b2080546000198101919082116123445755888b5260038652868b208054906001820180921161234457957fddf252ad1be2c89b69c2b068fc378daa952ba7f163c4a11628f55a4df523b3ef8d6123339d9e9997958397958e95600b9b5586835260028a52858d842091825416179055a4612335575b83525282828220541693815220541690611b7e565b565b61233d61282d565b505061231e565b60248d634e487b7160e01b81526011600452fd5b61236190611f28565b878a5260068552858a20818b52855281868b2055818a5260078552858a205538612243565b60248b634e487b7160e01b81526041600452fd5b8885036123a8575b5061223b565b6123b190611f28565b600019810190811161242c57828b5260078652868b20548181036123f3575b50828b528a87812055848b5260068652868b20908b5285528986812055386123a2565b858c5260068752878c20828d528752878c8181205491818984935260068b528181208582528b5220558c5260078752878c2055386123d0565b60248b634e487b7160e01b81526011600452fd5b61244a81806116c2565b612202565b608460405162461bcd60e51b8152602060048201526024808201527f4552433732313a207472616e7366657220746f20746865207a65726f2061646460448201527f72657373000000000000000000000000000000000000000000000000000000006064820152fd5b608460405162461bcd60e51b815260206004820152602560248201527f4552433732313a207472616e736665722066726f6d20696e636f72726563742060448201527f6f776e65720000000000000000000000000000000000000000000000000000006064820152fd5b9192600092909190803b156126b657612578946040518092630a85bd0160e11b9485835233600484015287602484015260448301526080606483015281876001600160a01b038260209b8c976084830190611535565b0393165af184918161265e575b50612635575050503d60001461262d573d61259f8161164b565b906125ad6040519283611629565b81528091833d92013e5b8051918261262a5760405162461bcd60e51b815260206004820152603260248201527f4552433732313a207472616e7366657220746f206e6f6e20455243373231526560448201527f63656976657220696d706c656d656e74657200000000000000000000000000006064820152608490fd5b01fd5b5060606125b7565b7fffffffff00000000000000000000000000000000000000000000000000000000161492509050565b9091508581813d83116126af575b6126768183611629565b810103126106ad57517fffffffff00000000000000000000000000000000000000000000000000000000811681036106ad579038612585565b503d61266c565b5050915050600190565b9293600093909291803b1561271b579484916125789660405180948193630a85bd0160e11b978884523360048501526001600160a01b0380921660248501526044840152608060648401528260209b8c976084830190611535565b505050915050600190565b60085481101561275d5760086000527ff3f7a9fe364faab93b216da50a3214154f22a0a2b415b23a84c8169e8b636ee30190600090565b634e487b7160e01b600052603260045260246000fd5b600d5481101561275d57600d6000527fd7b6990105719101dabeb77144f2a3385c8033acd3af97e9423a695e81ad1eb50190600090565b805482101561275d5760005260206000200190600090565b600d546000816127d457506000919050565b600019820191821161181157506127f26001600160e01b0391612773565b505460201c1690565b80549060008261280e5750600092915050565b600019830192831161181157506001600160e01b03916127f2916127aa565b6128356127c2565b9060018201809211611f1257600d5461284c6127c2565b9080151580612916575b156128805761286484612c89565b6000198201918211611f12576117e661287c92612773565b9190565b63ffffffff804311611cf95761289585612c89565b604051926128a2846115db565b824316845260208401906001600160e01b038093168252600160401b8110156115f7578060016128d59201600d55612773565b939093612900579351905163ffffffff9190941616921660201b63ffffffff19169190911790559190565b634e487b7160e01b600052600060045260246000fd5b506000198101818111611f125761293163ffffffff91612773565b5054164314612856565b6005811015612a93578061294c5750565b6001810361299857606460405162461bcd60e51b815260206004820152601860248201527f45434453413a20696e76616c6964207369676e617475726500000000000000006044820152fd5b600281036129e457606460405162461bcd60e51b815260206004820152601f60248201527f45434453413a20696e76616c6964207369676e6174757265206c656e677468006044820152fd5b60038103612a3b57608460405162461bcd60e51b815260206004820152602260248201527f45434453413a20696e76616c6964207369676e6174757265202773272076616c604482015261756560f01b6064820152fd5b600414612a4457565b608460405162461bcd60e51b815260206004820152602260248201527f45434453413a20696e76616c6964207369676e6174757265202776272076616c604482015261756560f01b6064820152fd5b634e487b7160e01b600052602160045260246000fd5b9291907f7fffffffffffffffffffffffffffffff5d576e7357a4501ddfe92f46681b20a08311612b525760ff16601b81141580612b47575b612b3b579160809493916020936040519384528484015260408301526060820152600093849182805260015afa15612b2e5781516001600160a01b03811615612b28579190565b50600190565b50604051903d90823e3d90fd5b50505050600090600490565b50601c811415612ae1565b50505050600090600390565b6001600160a01b037f000000000000000000000000000000000000000000000000000000000000000016301480612c60575b15612bb9577f000000000000000000000000000000000000000000000000000000000000000090565b60405160208101907f000000000000000000000000000000000000000000000000000000000000000082527f000000000000000000000000000000000000000000000000000000000000000060408201527f000000000000000000000000000000000000000000000000000000000000000060608201524660808201523060a082015260a0815260c0810181811067ffffffffffffffff8211176115f75760405251902090565b507f00000000000000000000000000000000000000000000000000000000000000004614612b90565b6001600160e01b0390818111612c9d571690565b608460405162461bcd60e51b815260206004820152602760248201527f53616665436173743a2076616c756520646f65736e27742066697420696e203260448201527f32342062697473000000000000000000000000000000000000000000000000006064820152fd5b60ff600a5416612d1357565b606460405162461bcd60e51b815260206004820152601060248201527f5061757361626c653a20706175736564000000000000000000000000000000006044820152fdfea264697066735822122002d1ffb5603997874dc1f74f5095e568196cda34fca4b74cb3a6616a59dd477164736f6c63430008100033"
}